:0400000086EF7FF018
:10FF0C000001D0EF7FF0A9EC7FF08EEC7FF01200B7
:10FF1C00300ED36E040ED26E000E9B6ED2BE12004B
:10FF2C00FDD7000E026E000E026E090E026401D0A7
:10FF3C001200680E016EE40EE82EFED7012EFCD7DF
:10FF4C0000D0022AF2D7000E8D6E000E8C6E000EC1
:10FF5C00896E000E8A6E000E8B6E030E966EC00EAE
:10FF6C00926EF80E936E820E946EE30E956E000EEA
:10FF7C000F013A6F000E0F01396F040E0F013B6F2A
:10FF8C00000E0F013C6F000E0F01386FC00E616E3A
:10FF9C00F19E1200000E046E89EC7FF0000E046ED0
:10FFAC00630E046401D00AD0680E036EE40EE82ED2
:10FFBC00FED7032EFCD700D0042AF2D78AA002D099
:10FFCC00010E01D0000EFF0A036E8A500318FE0BBF
:10FFDC0003188A6E8AA202D0010E01D0000EFF0A0D
:10FFEC00036E03468A500318FD0B03188A6E97ECB8
:04FFFC007FF0E4D7D7
:020000040030CA
:0E000000FF331F3CFFBF05FF0FC00FE00F4096
:00000001FF
