

Microchip Technology PIC18 LITE Macro Assembler V1.38 build -256452561 
                                                                                               Sun Dec 18 19:24:53 2016

Microchip Technology Omniscient Code Generator v1.38 (Free mode) build 201607010351
     1                           	processor	18F46K22
     2                           	fnconf	rparam,??,?,0
     3                           	opt	pw 120
     4                           	opt	lm
     5                           	psect	idataBANK0,global,class=CODE,delta=1
     6                           	psect	idataBANK1,global,class=CODE,delta=1
     7                           	psect	idataBANK3,global,class=CODE,delta=1
     8                           	psect	mediumconst,global,reloc=2,class=MEDIUMCONST,delta=1
     9                           	psect	cinit,global,reloc=2,class=CODE,delta=1
    10                           	psect	bssCOMRAM,global,class=COMRAM,space=1,delta=1
    11                           	psect	bssBANK0,global,class=BANK0,space=1,delta=1
    12                           	psect	dataBANK0,global,class=BANK0,space=1,delta=1
    13                           	psect	bssBANK1,global,class=BANK1,space=1,delta=1
    14                           	psect	dataBANK1,global,class=BANK1,space=1,delta=1
    15                           	psect	bssBANK2,global,class=BANK2,space=1,delta=1
    16                           	psect	bssBANK3,global,class=BANK3,space=1,delta=1
    17                           	psect	dataBANK3,global,class=BANK3,space=1,delta=1
    18                           	psect	bssBANK4,global,class=BANK4,space=1,delta=1
    19                           	psect	bssBANK5,global,class=BANK5,space=1,delta=1
    20                           	psect	bssBANK6,global,class=BANK6,space=1,delta=1
    21                           	psect	bssBIGRAM,global,class=BIGRAM,space=1,delta=1
    22                           	psect	cstackBANK1,global,class=BANK1,space=1,delta=1
    23                           	psect	cstackBANK0,global,class=BANK0,space=1,delta=1
    24                           	psect	cstackCOMRAM,global,class=COMRAM,space=1,delta=1
    25                           	psect	text0,global,reloc=2,class=CODE,delta=1
    26                           	psect	text1,global,reloc=2,class=CODE,delta=1
    27                           	psect	text2,global,reloc=2,class=CODE,delta=1
    28                           	psect	text3,global,reloc=2,class=CODE,delta=1
    29                           	psect	text4,global,reloc=2,class=CODE,delta=1
    30                           	psect	text5,global,reloc=2,class=CODE,delta=1
    31                           	psect	text6,global,reloc=2,class=CODE,delta=1
    32                           	psect	text7,global,reloc=2,class=CODE,delta=1
    33                           	psect	text8,global,reloc=2,class=CODE,delta=1
    34                           	psect	text9,global,reloc=2,class=CODE,delta=1
    35                           	psect	text10,global,reloc=2,class=CODE,delta=1
    36                           	psect	text11,global,reloc=2,class=CODE,delta=1
    37                           	psect	text12,global,reloc=2,class=CODE,delta=1
    38                           	psect	text13,global,reloc=2,class=CODE,delta=1
    39                           	psect	text14,global,reloc=2,class=CODE,delta=1
    40                           	psect	text15,global,reloc=2,class=CODE,delta=1
    41                           	psect	text16,global,reloc=2,class=CODE,delta=1
    42                           	psect	text17,global,reloc=2,class=CODE,delta=1
    43                           	psect	text18,global,reloc=2,class=CODE,delta=1
    44                           	psect	text19,global,reloc=2,class=CODE,delta=1
    45                           	psect	text20,global,reloc=2,class=CODE,delta=1
    46                           	psect	text21,global,reloc=2,class=CODE,delta=1
    47                           	psect	text22,global,reloc=2,class=CODE,delta=1
    48                           	psect	text23,global,reloc=2,class=CODE,delta=1
    49                           	psect	text24,global,reloc=2,class=CODE,delta=1
    50                           	psect	text25,global,reloc=2,class=CODE,delta=1
    51                           	psect	text26,global,reloc=2,class=CODE,delta=1
    52                           	psect	text27,global,reloc=2,class=CODE,delta=1
    53                           	psect	text28,global,reloc=2,class=CODE,delta=1
    54                           	psect	text29,global,reloc=2,class=CODE,delta=1
    55                           	psect	text30,global,reloc=2,class=CODE,delta=1
    56                           	psect	text31,global,reloc=2,class=CODE,delta=1
    57                           	psect	text32,global,reloc=2,class=CODE,delta=1
    58                           	psect	text33,global,reloc=2,class=CODE,delta=1
    59                           	psect	text34,global,reloc=2,class=CODE,delta=1
    60                           	psect	text35,global,reloc=2,class=CODE,delta=1
    61                           	psect	text36,global,reloc=2,class=CODE,delta=1
    62                           	psect	text37,global,reloc=2,class=CODE,delta=1
    63                           	psect	text38,global,reloc=2,class=CODE,delta=1
    64                           	psect	text39,global,reloc=2,class=CODE,delta=1
    65                           	psect	text40,global,reloc=2,class=CODE,delta=1
    66                           	psect	text41,global,reloc=2,class=CODE,delta=1
    67                           	psect	text42,global,reloc=2,class=CODE,delta=1
    68                           	psect	text43,global,reloc=2,class=CODE,delta=1
    69                           	psect	text44,global,reloc=2,class=CODE,delta=1
    70                           	psect	text45,global,reloc=2,class=CODE,delta=1
    71                           	psect	text46,global,reloc=2,class=CODE,delta=1
    72                           	psect	text47,global,reloc=2,class=CODE,delta=1
    73                           	psect	text48,global,reloc=2,class=CODE,delta=1
    74                           	psect	text49,global,reloc=2,class=CODE,delta=1
    75                           	psect	text50,global,reloc=2,class=CODE,delta=1
    76                           	psect	text51,global,reloc=2,class=CODE,delta=1
    77                           	psect	text52,global,reloc=2,class=CODE,delta=1
    78                           	psect	text53,global,reloc=2,class=CODE,delta=1
    79                           	psect	text54,global,reloc=2,class=CODE,delta=1
    80                           	psect	text55,global,reloc=2,class=CODE,delta=1
    81                           	psect	text56,global,reloc=2,class=CODE,delta=1
    82                           	psect	text57,global,reloc=2,class=CODE,delta=1
    83                           	psect	text58,global,reloc=2,class=CODE,delta=1
    84                           	psect	text59,global,reloc=2,class=CODE,delta=1
    85                           	psect	text60,global,reloc=2,class=CODE,delta=1
    86                           	psect	text61,global,reloc=2,class=CODE,delta=1
    87                           	psect	text62,global,reloc=2,class=CODE,delta=1
    88                           	psect	text63,global,reloc=2,class=CODE,delta=1
    89                           	psect	text64,global,reloc=2,class=CODE,delta=1
    90                           	psect	text65,global,reloc=2,class=CODE,delta=1
    91                           	psect	text66,global,reloc=2,class=CODE,delta=1
    92                           	psect	text67,global,reloc=2,class=CODE,delta=1
    93                           	psect	text68,global,reloc=2,class=CODE,delta=1
    94                           	psect	text69,global,reloc=2,class=CODE,delta=1
    95                           	psect	text70,global,reloc=2,class=CODE,delta=1
    96                           	psect	text71,global,reloc=2,class=CODE,delta=1
    97                           	psect	text72,global,reloc=2,class=CODE,delta=1
    98                           	psect	intcode,global,reloc=2,class=CODE,delta=1
    99                           	psect	text74,global,reloc=2,class=CODE,delta=1
   100                           	psect	text75,global,reloc=2,class=CODE,delta=1
   101                           	psect	text76,global,reloc=2,class=CODE,delta=1
   102                           	psect	text77,global,reloc=2,class=CODE,delta=1
   103                           	psect	text78,global,reloc=2,class=CODE,delta=1
   104                           	psect	text79,global,reloc=2,class=CODE,delta=1
   105                           	psect	text80,global,reloc=2,class=CODE,delta=1
   106                           	psect	text81,global,reloc=2,class=CODE,delta=1
   107                           	psect	text82,global,reloc=2,class=CODE,delta=1
   108                           	psect	text83,global,reloc=2,class=CODE,delta=1
   109                           	psect	intsave_regs,global,class=BIGRAM,space=1,delta=1
   110                           	psect	text84,global,reloc=2,class=CODE,delta=1
   111                           	psect	rparam,global,class=COMRAM,space=1,delta=1
   112                           	psect	temp,global,ovrld,common,class=COMRAM,space=1,delta=1
   113  0000                     
   114                           	psect	idataBANK0
   115  002CD8                     __pidataBANK0:
   116                           	opt stack 0
   117                           
   118                           ;initializer for _menu_timeout
   119  002CD8  3A98               	dw	15000
   120  002CDA  0000               	dw	0
   121                           
   122                           ;initializer for _call_new_menu
   123  002CDC  01                 	db	1
   124                           
   125                           	psect	idataBANK1
   126  002B72                     __pidataBANK1:
   127                           	opt stack 0
   128                           
   129                           ;initializer for _test_mode_freq_list
   130  002B72  0064               	dw	100
   131  002B74  0000               	dw	0
   132  002B76  0244               	dw	580
   133  002B78  0000               	dw	0
   134  002B7A  1AD6               	dw	6870
   135  002B7C  0000               	dw	0
   136  002B7E  3114               	dw	12564
   137  002B80  0001               	dw	1
   138  002B82  A7D4               	dw	42964
   139  002B84  0001               	dw	1
   140  002B86  A0C4               	dw	41156
   141  002B88  0004               	dw	4
   142  002B8A  1B64               	dw	7012
   143  002B8C  0008               	dw	8
   144  002B8E  4240               	dw	16960
   145  002B90  000F               	dw	15
   146                           
   147                           	psect	idataBANK3
   148  002480                     __pidataBANK3:
   149                           	opt stack 0
   150                           
   151                           ;initializer for _main_menu_txt
   152  002480  4D                 	db	77
   153  002481  61                 	db	97
   154  002482  69                 	db	105
   155  002483  6E                 	db	110
   156  002484  00                 	db	0
   157  002485  00                 	db	0
   158  002486  00                 	db	0
   159  002487  00                 	db	0
   160  002488  00                 	db	0
   161  002489  00                 	db	0
   162  00248A  00                 	db	0
   163  00248B  00                 	db	0
   164  00248C  00                 	db	0
   165  00248D  00                 	db	0
   166  00248E  00                 	db	0
   167  00248F  00                 	db	0
   168  002490  00                 	db	0
   169  002491  00                 	db	0
   170  002492  00                 	db	0
   171  002493  00                 	db	0
   172  002494  00                 	db	0
   173  002495  47                 	db	71
   174  002496  65                 	db	101
   175  002497  6E                 	db	110
   176  002498  65                 	db	101
   177  002499  72                 	db	114
   178  00249A  61                 	db	97
   179  00249B  6C                 	db	108
   180  00249C  20                 	db	32
   181  00249D  4C                 	db	76
   182  00249E  69                 	db	105
   183  00249F  62                 	db	98
   184  0024A0  72                 	db	114
   185  0024A1  61                 	db	97
   186  0024A2  72                 	db	114
   187  0024A3  79                 	db	121
   188  0024A4  00                 	db	0
   189  0024A5  00                 	db	0
   190  0024A6  00                 	db	0
   191  0024A7  00                 	db	0
   192  0024A8  00                 	db	0
   193  0024A9  00                 	db	0
   194  0024AA  43                 	db	67
   195  0024AB  75                 	db	117
   196  0024AC  73                 	db	115
   197  0024AD  74                 	db	116
   198  0024AE  6F                 	db	111
   199  0024AF  6D                 	db	109
   200  0024B0  20                 	db	32
   201  0024B1  4C                 	db	76
   202  0024B2  69                 	db	105
   203  0024B3  62                 	db	98
   204  0024B4  72                 	db	114
   205  0024B5  61                 	db	97
   206  0024B6  72                 	db	114
   207  0024B7  79                 	db	121
   208  0024B8  00                 	db	0
   209  0024B9  00                 	db	0
   210  0024BA  00                 	db	0
   211  0024BB  00                 	db	0
   212  0024BC  00                 	db	0
   213  0024BD  00                 	db	0
   214  0024BE  00                 	db	0
   215  0024BF  53                 	db	83
   216  0024C0  65                 	db	101
   217  0024C1  74                 	db	116
   218  0024C2  74                 	db	116
   219  0024C3  69                 	db	105
   220  0024C4  6E                 	db	110
   221  0024C5  67                 	db	103
   222  0024C6  73                 	db	115
   223  0024C7  00                 	db	0
   224  0024C8  00                 	db	0
   225  0024C9  00                 	db	0
   226  0024CA  00                 	db	0
   227  0024CB  00                 	db	0
   228  0024CC  00                 	db	0
   229  0024CD  00                 	db	0
   230  0024CE  00                 	db	0
   231  0024CF  00                 	db	0
   232  0024D0  00                 	db	0
   233  0024D1  00                 	db	0
   234  0024D2  00                 	db	0
   235  0024D3  00                 	db	0
   236                           
   237                           	psect	mediumconst
   238  00FEDC                     __pmediumconst:
   239                           	opt stack 0
   240  00FEDC  00                 	db	0
   241  00FEDD                     _dpowers:
   242                           	opt stack 0
   243  00FEDD  0001               	dw	1
   244  00FEDF  000A               	dw	10
   245  00FEE1  0064               	dw	100
   246  00FEE3  03E8               	dw	1000
   247  00FEE5  2710               	dw	10000
   248  00FEE7                     __end_of_dpowers:
   249                           	opt stack 0
   250  00FEE7                     _pause:
   251                           	opt stack 0
   252  00FEE7  00                 	db	0
   253  00FEE8  1B                 	db	27
   254  00FEE9  1B                 	db	27
   255  00FEEA  1B                 	db	27
   256  00FEEB  1B                 	db	27
   257  00FEEC  1B                 	db	27
   258  00FEED  00                 	db	0
   259  00FEEE  00                 	db	0
   260  00FEEF                     __end_of_pause:
   261                           	opt stack 0
   262  00FEEF                     _play:
   263                           	opt stack 0
   264  00FEEF  00                 	db	0
   265  00FEF0  08                 	db	8
   266  00FEF1  0C                 	db	12
   267  00FEF2  0E                 	db	14
   268  00FEF3  0C                 	db	12
   269  00FEF4  08                 	db	8
   270  00FEF5  00                 	db	0
   271  00FEF6  00                 	db	0
   272  00FEF7                     __end_of_play:
   273                           	opt stack 0
   274  00FEF7                     _stop:
   275                           	opt stack 0
   276  00FEF7  00                 	db	0
   277  00FEF8  1F                 	db	31
   278  00FEF9  1F                 	db	31
   279  00FEFA  1F                 	db	31
   280  00FEFB  1F                 	db	31
   281  00FEFC  1F                 	db	31
   282  00FEFD  00                 	db	0
   283  00FEFE  00                 	db	0
   284  00FEFF                     __end_of_stop:
   285                           	opt stack 0
   286  00FEFF                     _time:
   287                           	opt stack 0
   288  00FEFF  1F                 	db	31
   289  00FF00  11                 	db	17
   290  00FF01  0A                 	db	10
   291  00FF02  04                 	db	4
   292  00FF03  0A                 	db	10
   293  00FF04  11                 	db	17
   294  00FF05  1F                 	db	31
   295  00FF06  00                 	db	0
   296  00FF07                     __end_of_time:
   297                           	opt stack 0
   298  0000                     _ANSELA	set	3896
   299  0000                     _ANSELB	set	3897
   300  0000                     _ANSELC	set	3898
   301  0000                     _ANSELD	set	3899
   302  0000                     _ANSELE	set	3900
   303  0000                     _BAUDCON1	set	4024
   304  0000                     _INTCON2bits	set	4081
   305  0000                     _INTCONbits	set	4082
   306  0000                     _LATA	set	3977
   307  0000                     _LATAbits	set	3977
   308  0000                     _LATB	set	3978
   309  0000                     _LATBbits	set	3978
   310  0000                     _LATC	set	3979
   311  0000                     _LATCbits	set	3979
   312  0000                     _LATD	set	3980
   313  0000                     _LATDbits	set	3980
   314  0000                     _LATE	set	3981
   315  0000                     _LATEbits	set	3981
   316  0000                     _OSCCON	set	4051
   317  0000                     _OSCCON2	set	4050
   318  0000                     _OSCTUNE	set	3995
   319  0000                     _PIE1bits	set	3997
   320  0000                     _PIE3bits	set	4003
   321  0000                     _PIR1bits	set	3998
   322  0000                     _PIR3bits	set	4004
   323  0000                     _PORTBbits	set	3969
   324  0000                     _PORTDbits	set	3971
   325  0000                     _PORTEbits	set	3972
   326  0000                     _PR2	set	4027
   327  0000                     _RCONbits	set	4048
   328  0000                     _RCREG1	set	4014
   329  0000                     _RCSTA1	set	4011
   330  0000                     _RCSTA1bits	set	4011
   331  0000                     _SPBRG1	set	4015
   332  0000                     _SPBRGH1	set	4016
   333  0000                     _SSP1ADD	set	4040
   334  0000                     _SSP1BUF	set	4041
   335  0000                     _SSP1CON1	set	4038
   336  0000                     _SSP1CON1bits	set	4038
   337  0000                     _SSP1STAT	set	4039
   338  0000                     _SSP1STATbits	set	4039
   339  0000                     _SSP2ADD	set	3950
   340  0000                     _SSP2BUF	set	3951
   341  0000                     _SSP2CON1	set	3948
   342  0000                     _SSP2CON1bits	set	3948
   343  0000                     _SSP2CON2bits	set	3947
   344  0000                     _SSP2CON3	set	3945
   345  0000                     _SSP2STAT	set	3949
   346  0000                     _T2CON	set	4026
   347  0000                     _T2CONbits	set	4026
   348  0000                     _TMR2	set	4028
   349  0000                     _TRISA	set	3986
   350  0000                     _TRISB	set	3987
   351  0000                     _TRISC	set	3988
   352  0000                     _TRISD	set	3989
   353  0000                     _TRISE	set	3990
   354  0000                     _TXREG1	set	4013
   355  0000                     _TXSTA1	set	4012
   356  0000                     _WPUB	set	3937
   357  0000                     _PLLRDY	set	32407
   358  00FF07                     STR_16:
   359  00FF07  4E                 	db	78	;'N'
   360  00FF08  6F                 	db	111	;'o'
   361  00FF09  20                 	db	32
   362  00FF0A  47                 	db	71	;'G'
   363  00FF0B  72                 	db	114	;'r'
   364  00FF0C  6F                 	db	111	;'o'
   365  00FF0D  75                 	db	117	;'u'
   366  00FF0E  70                 	db	112	;'p'
   367  00FF0F  20                 	db	32
   368  00FF10  53                 	db	83	;'S'
   369  00FF11  65                 	db	101	;'e'
   370  00FF12  6C                 	db	108	;'l'
   371  00FF13  65                 	db	101	;'e'
   372  00FF14  63                 	db	99	;'c'
   373  00FF15  74                 	db	116	;'t'
   374  00FF16  65                 	db	101	;'e'
   375  00FF17  64                 	db	100	;'d'
   376  00FF18  20                 	db	32
   377  00FF19  20                 	db	32
   378  00FF1A  20                 	db	32
   379  00FF1B  20                 	db	32
   380  00FF1C  00                 	db	0
   381  00FF1D                     STR_17:
   382  00FF1D  4E                 	db	78	;'N'
   383  00FF1E  6F                 	db	111	;'o'
   384  00FF1F  20                 	db	32
   385  00FF20  73                 	db	115	;'s'
   386  00FF21  75                 	db	117	;'u'
   387  00FF22  62                 	db	98	;'b'
   388  00FF23  67                 	db	103	;'g'
   389  00FF24  72                 	db	114	;'r'
   390  00FF25  6F                 	db	111	;'o'
   391  00FF26  75                 	db	117	;'u'
   392  00FF27  70                 	db	112	;'p'
   393  00FF28  20                 	db	32
   394  00FF29  53                 	db	83	;'S'
   395  00FF2A  65                 	db	101	;'e'
   396  00FF2B  6C                 	db	108	;'l'
   397  00FF2C  65                 	db	101	;'e'
   398  00FF2D  63                 	db	99	;'c'
   399  00FF2E  74                 	db	116	;'t'
   400  00FF2F  65                 	db	101	;'e'
   401  00FF30  64                 	db	100	;'d'
   402  00FF31  20                 	db	32
   403  00FF32  00                 	db	0
   404  00FF33                     STR_13:
   405  00FF33  23                 	db	35
   406  00FF34  3A                 	db	58	;':'
   407  00FF35  25                 	db	37
   408  00FF36  36                 	db	54	;'6'
   409  00FF37  75                 	db	117	;'u'
   410  00FF38  20                 	db	32
   411  00FF39  20                 	db	32
   412  00FF3A  20                 	db	32
   413  00FF3B  46                 	db	70	;'F'
   414  00FF3C  3A                 	db	58	;':'
   415  00FF3D  25                 	db	37
   416  00FF3E  34                 	db	52	;'4'
   417  00FF3F  75                 	db	117	;'u'
   418  00FF40  2E                 	db	46
   419  00FF41  25                 	db	37
   420  00FF42  31                 	db	49	;'1'
   421  00FF43  75                 	db	117	;'u'
   422  00FF44  00                 	db	0
   423  00FF45                     STR_15:
   424  00FF45  54                 	db	84	;'T'
   425  00FF46  68                 	db	104	;'h'
   426  00FF47  69                 	db	105	;'i'
   427  00FF48  73                 	db	115	;'s'
   428  00FF49  20                 	db	32
   429  00FF4A  69                 	db	105	;'i'
   430  00FF4B  73                 	db	115	;'s'
   431  00FF4C  20                 	db	32
   432  00FF4D  63                 	db	99	;'c'
   433  00FF4E  75                 	db	117	;'u'
   434  00FF4F  73                 	db	115	;'s'
   435  00FF50  74                 	db	116	;'t'
   436  00FF51  20                 	db	32
   437  00FF52  6C                 	db	108	;'l'
   438  00FF53  69                 	db	105	;'i'
   439  00FF54  62                 	db	98	;'b'
   440  00FF55  00                 	db	0
   441  00FF56                     STR_2:
   442  00FF56  4C                 	db	76	;'L'
   443  00FF57  45                 	db	69	;'E'
   444  00FF58  44                 	db	68	;'D'
   445  00FF59  20                 	db	32
   446  00FF5A  43                 	db	67	;'C'
   447  00FF5B  6F                 	db	111	;'o'
   448  00FF5C  6E                 	db	110	;'n'
   449  00FF5D  74                 	db	116	;'t'
   450  00FF5E  72                 	db	114	;'r'
   451  00FF5F  6F                 	db	111	;'o'
   452  00FF60  6C                 	db	108	;'l'
   453  00FF61  6C                 	db	108	;'l'
   454  00FF62  65                 	db	101	;'e'
   455  00FF63  72                 	db	114	;'r'
   456  00FF64  00                 	db	0
   457  00FF65                     STR_18:
   458  00FF65  25                 	db	37
   459  00FF66  36                 	db	54	;'6'
   460  00FF67  75                 	db	117	;'u'
   461  00FF68  20                 	db	32
   462  00FF69  20                 	db	32
   463  00FF6A  20                 	db	32
   464  00FF6B  20                 	db	32
   465  00FF6C  20                 	db	32
   466  00FF6D  20                 	db	32
   467  00FF6E  20                 	db	32
   468  00FF6F  25                 	db	37
   469  00FF70  36                 	db	54	;'6'
   470  00FF71  75                 	db	117	;'u'
   471  00FF72  00                 	db	0
   472  00FF73                     STR_22:
   473  00FF73  23                 	db	35
   474  00FF74  3A                 	db	58	;':'
   475  00FF75  25                 	db	37
   476  00FF76  36                 	db	54	;'6'
   477  00FF77  75                 	db	117	;'u'
   478  00FF78  20                 	db	32
   479  00FF79  20                 	db	32
   480  00FF7A  20                 	db	32
   481  00FF7B  46                 	db	70	;'F'
   482  00FF7C  3A                 	db	58	;':'
   483  00FF7D  25                 	db	37
   484  00FF7E  36                 	db	54	;'6'
   485  00FF7F  75                 	db	117	;'u'
   486  00FF80  00                 	db	0
   487  00FF81                     STR_20:
   488  00FF81  44                 	db	68	;'D'
   489  00FF82  3A                 	db	58	;':'
   490  00FF83  25                 	db	37
   491  00FF84  36                 	db	54	;'6'
   492  00FF85  75                 	db	117	;'u'
   493  00FF86  20                 	db	32
   494  00FF87  20                 	db	32
   495  00FF88  20                 	db	32
   496  00FF89  54                 	db	84	;'T'
   497  00FF8A  3A                 	db	58	;':'
   498  00FF8B  25                 	db	37
   499  00FF8C  36                 	db	54	;'6'
   500  00FF8D  75                 	db	117	;'u'
   501  00FF8E  00                 	db	0
   502  00FF8F                     STR_1:
   503  00FF8F  52                 	db	82	;'R'
   504  00FF90  50                 	db	80	;'P'
   505  00FF91  47                 	db	71	;'G'
   506  00FF92  72                 	db	114	;'r'
   507  00FF93  65                 	db	101	;'e'
   508  00FF94  65                 	db	101	;'e'
   509  00FF95  6E                 	db	110	;'n'
   510  00FF96  20                 	db	32
   511  00FF97  45                 	db	69	;'E'
   512  00FF98  6C                 	db	108	;'l'
   513  00FF99  65                 	db	101	;'e'
   514  00FF9A  63                 	db	99	;'c'
   515  00FF9B  00                 	db	0
   516  00FF9C                     STR_3:
   517  00FF9C  56                 	db	86	;'V'
   518  00FF9D  65                 	db	101	;'e'
   519  00FF9E  72                 	db	114	;'r'
   520  00FF9F  73                 	db	115	;'s'
   521  00FFA0  69                 	db	105	;'i'
   522  00FFA1  6F                 	db	111	;'o'
   523  00FFA2  6E                 	db	110	;'n'
   524  00FFA3  20                 	db	32
   525  00FFA4  31                 	db	49	;'1'
   526  00FFA5  2E                 	db	46
   527  00FFA6  30                 	db	48	;'0'
   528  00FFA7  00                 	db	0
   529  00FFA8  34                 	db	52	;'4'
   530  00FFA9  20                 	db	32
   531  00FFAA  46                 	db	70	;'F'
   532  00FFAB  72                 	db	114	;'r'
   533  00FFAC  65                 	db	101	;'e'
   534  00FFAD  71                 	db	113	;'q'
   535  00FFAE  20                 	db	32
   536  00FFAF  54                 	db	84	;'T'
   537  00FFB0  65                 	db	101	;'e'
   538  00FFB1  73                 	db	115	;'s'
   539  00FFB2  74                 	db	116	;'t'
   540  00FFB3  00                 	db	0
   541  00FFB4                     STR_9:
   542  00FFB4  38                 	db	56	;'8'
   543  00FFB5  2E                 	db	46
   544  00FFB6  31                 	db	49	;'1'
   545  00FFB7  20                 	db	32
   546  00FFB8  48                 	db	72	;'H'
   547  00FFB9  7A                 	db	122	;'z'
   548  00FFBA  20                 	db	32
   549  00FFBB  54                 	db	84	;'T'
   550  00FFBC  65                 	db	101	;'e'
   551  00FFBD  73                 	db	115	;'s'
   552  00FFBE  74                 	db	116	;'t'
   553  00FFBF  00                 	db	0
   554  00FFC0  31                 	db	49	;'1'
   555  00FFC1  30                 	db	48	;'0'
   556  00FFC2  20                 	db	32
   557  00FFC3  4B                 	db	75	;'K'
   558  00FFC4  48                 	db	72	;'H'
   559  00FFC5  7A                 	db	122	;'z'
   560  00FFC6  20                 	db	32
   561  00FFC7  54                 	db	84	;'T'
   562  00FFC8  65                 	db	101	;'e'
   563  00FFC9  73                 	db	115	;'s'
   564  00FFCA  74                 	db	116	;'t'
   565  00FFCB  00                 	db	0
   566  00FFCC                     STR_5:
   567  00FFCC  38                 	db	56	;'8'
   568  00FFCD  2E                 	db	46
   569  00FFCE  31                 	db	49	;'1'
   570  00FFCF  20                 	db	32
   571  00FFD0  48                 	db	72	;'H'
   572  00FFD1  7A                 	db	122	;'z'
   573  00FFD2  20                 	db	32
   574  00FFD3  4C                 	db	76	;'L'
   575  00FFD4  69                 	db	105	;'i'
   576  00FFD5  62                 	db	98	;'b'
   577  00FFD6  00                 	db	0
   578  00FFD7  31                 	db	49	;'1'
   579  00FFD8  20                 	db	32
   580  00FFD9  4B                 	db	75	;'K'
   581  00FFDA  48                 	db	72	;'H'
   582  00FFDB  7A                 	db	122	;'z'
   583  00FFDC  20                 	db	32
   584  00FFDD  54                 	db	84	;'T'
   585  00FFDE  65                 	db	101	;'e'
   586  00FFDF  73                 	db	115	;'s'
   587  00FFE0  74                 	db	116	;'t'
   588  00FFE1  00                 	db	0
   589  00FFE2  31                 	db	49	;'1'
   590  00FFE3  20                 	db	32
   591  00FFE4  6B                 	db	107	;'k'
   592  00FFE5  48                 	db	72	;'H'
   593  00FFE6  7A                 	db	122	;'z'
   594  00FFE7  20                 	db	32
   595  00FFE8  4C                 	db	76	;'L'
   596  00FFE9  69                 	db	105	;'i'
   597  00FFEA  62                 	db	98	;'b'
   598  00FFEB  00                 	db	0
   599  00FFEC  31                 	db	49	;'1'
   600  00FFED  30                 	db	48	;'0'
   601  00FFEE  6B                 	db	107	;'k'
   602  00FFEF  48                 	db	72	;'H'
   603  00FFF0  7A                 	db	122	;'z'
   604  00FFF1  20                 	db	32
   605  00FFF2  4C                 	db	76	;'L'
   606  00FFF3  69                 	db	105	;'i'
   607  00FFF4  62                 	db	98	;'b'
   608  00FFF5  00                 	db	0
   609  00FFF6                     STR_14:
   610  00FFF6  53                 	db	83	;'S'
   611  00FFF7  65                 	db	101	;'e'
   612  00FFF8  74                 	db	116	;'t'
   613  00FFF9  74                 	db	116	;'t'
   614  00FFFA  69                 	db	105	;'i'
   615  00FFFB  6E                 	db	110	;'n'
   616  00FFFC  67                 	db	103	;'g'
   617  00FFFD  73                 	db	115	;'s'
   618  00FFFE  00                 	db	0
   619  0000                     
   620                           ; #config settings
   621  00FFFF  00                 	db	0	; dummy byte at the end
   622  0000                     
   623                           	psect	cinit
   624  001966                     __pcinit:
   625                           	opt stack 0
   626  001966                     start_initialization:
   627                           	opt stack 0
   628  001966                     __initialization:
   629                           	opt stack 0
   630                           
   631                           ; Initialize objects allocated to BANK3 (84 bytes)
   632                           ; load TBLPTR registers with __pidataBANK3
   633  001966  0E80               	movlw	low __pidataBANK3
   634  001968  6EF6               	movwf	tblptrl,c
   635  00196A  0E24               	movlw	high __pidataBANK3
   636  00196C  6EF7               	movwf	tblptrh,c
   637  00196E  0E00               	movlw	low (__pidataBANK3 shr (0+16))
   638  001970  6EF8               	movwf	tblptru,c
   639  001972  EE03  F082         	lfsr	0,__pdataBANK3
   640  001976  EE10 F054          	lfsr	1,84
   641  00197A                     copy_data0:
   642  00197A  0009               	tblrd		*+
   643  00197C  CFF5 FFEE          	movff	tablat,postinc0
   644  001980  50E5               	movf	postdec1,w,c
   645  001982  50E1               	movf	fsr1l,w,c
   646  001984  E1FA               	bnz	copy_data0
   647                           
   648                           ; Initialize objects allocated to BANK1 (32 bytes)
   649                           ; load TBLPTR registers with __pidataBANK1
   650  001986  0E72               	movlw	low __pidataBANK1
   651  001988  6EF6               	movwf	tblptrl,c
   652  00198A  0E2B               	movlw	high __pidataBANK1
   653  00198C  6EF7               	movwf	tblptrh,c
   654  00198E  0E00               	movlw	low (__pidataBANK1 shr (0+16))
   655  001990  6EF8               	movwf	tblptru,c
   656  001992  EE01  F0C1         	lfsr	0,__pdataBANK1
   657  001996  EE10 F020          	lfsr	1,32
   658  00199A                     copy_data1:
   659  00199A  0009               	tblrd		*+
   660  00199C  CFF5 FFEE          	movff	tablat,postinc0
   661  0019A0  50E5               	movf	postdec1,w,c
   662  0019A2  50E1               	movf	fsr1l,w,c
   663  0019A4  E1FA               	bnz	copy_data1
   664                           
   665                           ; Initialize objects allocated to BANK0 (5 bytes)
   666                           ; load TBLPTR registers with __pidataBANK0
   667  0019A6  0ED8               	movlw	low __pidataBANK0
   668  0019A8  6EF6               	movwf	tblptrl,c
   669  0019AA  0E2C               	movlw	high __pidataBANK0
   670  0019AC  6EF7               	movwf	tblptrh,c
   671  0019AE  0E00               	movlw	low (__pidataBANK0 shr (0+16))
   672  0019B0  6EF8               	movwf	tblptru,c
   673  0019B2  EE00  F0FB         	lfsr	0,__pdataBANK0
   674  0019B6  EE10 F005          	lfsr	1,5
   675  0019BA                     copy_data2:
   676  0019BA  0009               	tblrd		*+
   677  0019BC  CFF5 FFEE          	movff	tablat,postinc0
   678  0019C0  50E5               	movf	postdec1,w,c
   679  0019C2  50E1               	movf	fsr1l,w,c
   680  0019C4  E1FA               	bnz	copy_data2
   681                           
   682                           ; Clear objects allocated to BIGRAM (1384 bytes)
   683  0019C6  EE06  F080         	lfsr	0,__pbssBIGRAM
   684  0019CA  EE15 F068          	lfsr	1,1384
   685  0019CE                     clear_0:
   686  0019CE  6AEE               	clrf	postinc0,c
   687  0019D0  50E5               	movf	postdec1,w,c
   688  0019D2  50E1               	movf	fsr1l,w,c
   689  0019D4  E1FC               	bnz	clear_0
   690  0019D6  50E2               	movf	fsr1h,w,c
   691  0019D8  E1FA               	bnz	clear_0
   692                           
   693                           ; Clear objects allocated to BANK6 (128 bytes)
   694  0019DA  EE06  F000         	lfsr	0,__pbssBANK6
   695  0019DE  0E80               	movlw	128
   696  0019E0                     clear_1:
   697  0019E0  6AEE               	clrf	postinc0,c
   698  0019E2  06E8               	decf	wreg,f,c
   699  0019E4  E1FD               	bnz	clear_1
   700                           
   701                           ; Clear objects allocated to BANK5 (133 bytes)
   702  0019E6  EE05  F000         	lfsr	0,__pbssBANK5
   703  0019EA  0E85               	movlw	133
   704  0019EC                     clear_2:
   705  0019EC  6AEE               	clrf	postinc0,c
   706  0019EE  06E8               	decf	wreg,f,c
   707  0019F0  E1FD               	bnz	clear_2
   708                           
   709                           ; Clear objects allocated to BANK4 (208 bytes)
   710  0019F2  EE04  F000         	lfsr	0,__pbssBANK4
   711  0019F6  0ED0               	movlw	208
   712  0019F8                     clear_3:
   713  0019F8  6AEE               	clrf	postinc0,c
   714  0019FA  06E8               	decf	wreg,f,c
   715  0019FC  E1FD               	bnz	clear_3
   716                           
   717                           ; Clear objects allocated to BANK3 (130 bytes)
   718  0019FE  EE03  F000         	lfsr	0,__pbssBANK3
   719  001A02  0E82               	movlw	130
   720  001A04                     clear_4:
   721  001A04  6AEE               	clrf	postinc0,c
   722  001A06  06E8               	decf	wreg,f,c
   723  001A08  E1FD               	bnz	clear_4
   724                           
   725                           ; Clear objects allocated to BANK2 (208 bytes)
   726  001A0A  EE02  F000         	lfsr	0,__pbssBANK2
   727  001A0E  0ED0               	movlw	208
   728  001A10                     clear_5:
   729  001A10  6AEE               	clrf	postinc0,c
   730  001A12  06E8               	decf	wreg,f,c
   731  001A14  E1FD               	bnz	clear_5
   732                           
   733                           ; Clear objects allocated to BANK1 (193 bytes)
   734  001A16  EE01  F000         	lfsr	0,__pbssBANK1
   735  001A1A  0EC1               	movlw	193
   736  001A1C                     clear_6:
   737  001A1C  6AEE               	clrf	postinc0,c
   738  001A1E  06E8               	decf	wreg,f,c
   739  001A20  E1FD               	bnz	clear_6
   740                           
   741                           ; Clear objects allocated to BANK0 (52 bytes)
   742  001A22  EE00  F0C7         	lfsr	0,__pbssBANK0
   743  001A26  0E34               	movlw	52
   744  001A28                     clear_7:
   745  001A28  6AEE               	clrf	postinc0,c
   746  001A2A  06E8               	decf	wreg,f,c
   747  001A2C  E1FD               	bnz	clear_7
   748                           
   749                           ; Clear objects allocated to COMRAM (19 bytes)
   750  001A2E  EE00  F039         	lfsr	0,__pbssCOMRAM
   751  001A32  0E13               	movlw	19
   752  001A34                     clear_8:
   753  001A34  6AEE               	clrf	postinc0,c
   754  001A36  06E8               	decf	wreg,f,c
   755  001A38  E1FD               	bnz	clear_8
   756  001A3A                     end_of_initialization:
   757                           	opt stack 0
   758  001A3A                     __end_of__initialization:
   759                           	opt stack 0
   760  001A3A  904C               	bcf	int$flags,0,c	;clear compiler interrupt flag (level 1)
   761  001A3C  924C               	bcf	int$flags,1,c	;clear compiler interrupt flag (level 2)
   762  001A3E  0100               	movlb	0
   763  001A40  EFC3  F008         	goto	_main	;jump to C main() function
   764                           tblptru	equ	0xFF8
   765                           tblptrh	equ	0xFF7
   766                           tblptrl	equ	0xFF6
   767                           tablat	equ	0xFF5
   768                           postinc0	equ	0xFEE
   769                           wreg	equ	0xFE8
   770                           postdec1	equ	0xFE5
   771                           fsr1h	equ	0xFE2
   772                           fsr1l	equ	0xFE1
   773                           
   774                           	psect	bssCOMRAM
   775  000039                     __pbssCOMRAM:
   776                           	opt stack 0
   777  000039                     _SysTick:
   778                           	opt stack 0
   779  000039                     	ds	2
   780  00003B                     _selected_subgrp:
   781                           	opt stack 0
   782  00003B                     	ds	2
   783  00003D                     I2C2_ISR@i2c_10bit_address_restart:
   784                           	opt stack 0
   785  00003D                     	ds	1
   786  00003E                     I2C2_ISR@i2c_bytes_left:
   787                           	opt stack 0
   788  00003E                     	ds	1
   789  00003F                     _column:
   790                           	opt stack 0
   791  00003F                     	ds	1
   792  000040                     _eusart1RxCount:
   793                           	opt stack 0
   794  000040                     	ds	1
   795  000041                     _eusart1RxHead:
   796                           	opt stack 0
   797  000041                     	ds	1
   798  000042                     _eusart1RxTail:
   799                           	opt stack 0
   800  000042                     	ds	1
   801  000043                     _eusart1TxBufferRemaining:
   802                           	opt stack 0
   803  000043                     	ds	1
   804  000044                     _eusart1TxHead:
   805                           	opt stack 0
   806  000044                     	ds	1
   807  000045                     _eusart1TxTail:
   808                           	opt stack 0
   809  000045                     	ds	1
   810  000046                     _i2c2_state:
   811                           	opt stack 0
   812  000046                     	ds	1
   813  000047                     _i2c2_trb_count:
   814                           	opt stack 0
   815  000047                     	ds	1
   816  000048                     _line:
   817                           	opt stack 0
   818  000048                     	ds	1
   819  000049                     _sysMode:
   820                           	opt stack 0
   821  000049                     	ds	1
   822  00004A                     I2C2_ISR@i2c_address:
   823                           	opt stack 0
   824  00004A                     	ds	2
   825                           tblptru	equ	0xFF8
   826                           tblptrh	equ	0xFF7
   827                           tblptrl	equ	0xFF6
   828                           tablat	equ	0xFF5
   829                           postinc0	equ	0xFEE
   830                           wreg	equ	0xFE8
   831                           postdec1	equ	0xFE5
   832                           fsr1h	equ	0xFE2
   833                           fsr1l	equ	0xFE1
   834                           
   835                           	psect	bssBANK0
   836  0000C7                     __pbssBANK0:
   837                           	opt stack 0
   838  0000C7                     _i2c2_object:
   839                           	opt stack 0
   840  0000C7                     	ds	7
   841  0000CE                     _task_10mS:
   842                           	opt stack 0
   843  0000CE                     	ds	4
   844  0000D2                     AD5930_shutdown@F7986:
   845                           	opt stack 0
   846  0000D2                     	ds	2
   847  0000D4                     AD5930_write_def_control@F7978:
   848                           	opt stack 0
   849  0000D4                     	ds	2
   850  0000D6                     AD5930_write_freq@F7981:
   851                           	opt stack 0
   852  0000D6                     	ds	2
   853  0000D8                     I2C2_ISR@pi2c_buf_ptr:
   854                           	opt stack 0
   855  0000D8                     	ds	2
   856  0000DA                     _TMR2_InterruptHandler:
   857                           	opt stack 0
   858  0000DA                     	ds	2
   859  0000DC                     _buffer_index:
   860                           	opt stack 0
   861  0000DC                     	ds	2
   862  0000DE                     _current_freq_index:
   863                           	opt stack 0
   864  0000DE                     	ds	2
   865  0000E0                     _found_subgrps:
   866                           	opt stack 0
   867  0000E0                     	ds	2
   868  0000E2                     _found_tests:
   869                           	opt stack 0
   870  0000E2                     	ds	2
   871  0000E4                     _menu_page:
   872                           	opt stack 0
   873  0000E4                     	ds	2
   874  0000E6                     _menu_sel_page:
   875                           	opt stack 0
   876  0000E6                     	ds	2
   877  0000E8                     _p_i2c2_current:
   878                           	opt stack 0
   879  0000E8                     	ds	2
   880  0000EA                     _p_i2c2_trb_current:
   881                           	opt stack 0
   882  0000EA                     	ds	2
   883  0000EC                     _rx_link_layer:
   884                           	opt stack 0
   885  0000EC                     	ds	2
   886  0000EE                     _selected_grp_remaining_time_sec:
   887                           	opt stack 0
   888  0000EE                     	ds	2
   889  0000F0                     _subgrp_cntr:
   890                           	opt stack 0
   891  0000F0                     	ds	2
   892  0000F2                     _tx_link_layer:
   893                           	opt stack 0
   894  0000F2                     	ds	2
   895  0000F4                     _SysTick_Ticked:
   896                           	opt stack 0
   897  0000F4                     	ds	1
   898  0000F5                     _curr_menu:
   899                           	opt stack 0
   900  0000F5                     	ds	1
   901  0000F6                     _menu_has_changed:
   902                           	opt stack 0
   903  0000F6                     	ds	1
   904  0000F7                     _serialMessageRdy:
   905                           	opt stack 0
   906  0000F7                     	ds	1
   907  0000F8                     	ds	1
   908  0000F9                     _test_mode_index:
   909                           	opt stack 0
   910  0000F9                     	ds	1
   911  0000FA                     _update_freq:
   912                           	opt stack 0
   913  0000FA                     	ds	1
   914                           tblptru	equ	0xFF8
   915                           tblptrh	equ	0xFF7
   916                           tblptrl	equ	0xFF6
   917                           tablat	equ	0xFF5
   918                           postinc0	equ	0xFEE
   919                           wreg	equ	0xFE8
   920                           postdec1	equ	0xFE5
   921                           fsr1h	equ	0xFE2
   922                           fsr1l	equ	0xFE1
   923                           
   924                           	psect	dataBANK0
   925  0000FB                     __pdataBANK0:
   926                           	opt stack 0
   927  0000FB                     _menu_timeout:
   928                           	opt stack 0
   929  0000FB                     	ds	4
   930  0000FF                     _call_new_menu:
   931                           	opt stack 0
   932  0000FF                     	ds	1
   933                           tblptru	equ	0xFF8
   934                           tblptrh	equ	0xFF7
   935                           tblptrl	equ	0xFF6
   936                           tablat	equ	0xFF5
   937                           postinc0	equ	0xFEE
   938                           wreg	equ	0xFE8
   939                           postdec1	equ	0xFE5
   940                           fsr1h	equ	0xFE2
   941                           fsr1l	equ	0xFE1
   942                           
   943                           	psect	bssBANK1
   944  000100                     __pbssBANK1:
   945                           	opt stack 0
   946  000100                     build_test_header@F8377:
   947                           	opt stack 0
   948  000100                     	ds	15
   949  00010F                     _SerialPortData:
   950                           	opt stack 0
   951  00010F                     	ds	14
   952  00011D                     _eusart1RxBuffer:
   953                           	opt stack 0
   954  00011D                     	ds	8
   955  000125                     _eusart1TxBuffer:
   956                           	opt stack 0
   957  000125                     	ds	8
   958  00012D                     _task_1000mS:
   959                           	opt stack 0
   960  00012D                     	ds	4
   961  000131                     	ds	4
   962  000135                     _task_500mS:
   963                           	opt stack 0
   964  000135                     	ds	4
   965  000139                     get_frequency_result@F8337:
   966                           	opt stack 0
   967  000139                     	ds	3
   968  00013C                     _RX_Buf_Debug:
   969                           	opt stack 0
   970  00013C                     	ds	32
   971  00015C                     _TX_Buf_Debug:
   972                           	opt stack 0
   973  00015C                     	ds	32
   974  00017C                     _extMemory:
   975                           	opt stack 0
   976  00017C                     	ds	14
   977  00018A                     I2C2_MasterRead@trBlock:
   978                           	opt stack 0
   979  00018A                     	ds	5
   980  00018F                     I2C2_MasterWrite@trBlock:
   981                           	opt stack 0
   982  00018F                     	ds	5
   983  000194                     _i2c2_tr_queue:
   984                           	opt stack 0
   985  000194                     	ds	5
   986  000199                     _key_down:
   987                           	opt stack 0
   988  000199                     	ds	5
   989  00019E                     _key_left:
   990                           	opt stack 0
   991  00019E                     	ds	5
   992  0001A3                     _key_pause:
   993                           	opt stack 0
   994  0001A3                     	ds	5
   995  0001A8                     _key_power:
   996                           	opt stack 0
   997  0001A8                     	ds	5
   998  0001AD                     _key_right:
   999                           	opt stack 0
  1000  0001AD                     	ds	5
  1001  0001B2                     _key_sel:
  1002                           	opt stack 0
  1003  0001B2                     	ds	5
  1004  0001B7                     _key_stop:
  1005                           	opt stack 0
  1006  0001B7                     	ds	5
  1007  0001BC                     _key_up:
  1008                           	opt stack 0
  1009  0001BC                     	ds	5
  1010                           tblptru	equ	0xFF8
  1011                           tblptrh	equ	0xFF7
  1012                           tblptrl	equ	0xFF6
  1013                           tablat	equ	0xFF5
  1014                           postinc0	equ	0xFEE
  1015                           wreg	equ	0xFE8
  1016                           postdec1	equ	0xFE5
  1017                           fsr1h	equ	0xFE2
  1018                           fsr1l	equ	0xFE1
  1019                           
  1020                           	psect	dataBANK1
  1021  0001C1                     __pdataBANK1:
  1022                           	opt stack 0
  1023  0001C1                     _test_mode_freq_list:
  1024                           	opt stack 0
  1025  0001C1                     	ds	32
  1026                           tblptru	equ	0xFF8
  1027                           tblptrh	equ	0xFF7
  1028                           tblptrl	equ	0xFF6
  1029                           tablat	equ	0xFF5
  1030                           postinc0	equ	0xFEE
  1031                           wreg	equ	0xFE8
  1032                           postdec1	equ	0xFE5
  1033                           fsr1h	equ	0xFE2
  1034                           fsr1l	equ	0xFE1
  1035                           
  1036                           	psect	bssBANK2
  1037  000200                     __pbssBANK2:
  1038                           	opt stack 0
  1039  000200                     _currGenTest:
  1040                           	opt stack 0
  1041  000200                     	ds	128
  1042  000280                     _menu_buffer:
  1043                           	opt stack 0
  1044  000280                     	ds	80
  1045                           tblptru	equ	0xFF8
  1046                           tblptrh	equ	0xFF7
  1047                           tblptrl	equ	0xFF6
  1048                           tablat	equ	0xFF5
  1049                           postinc0	equ	0xFEE
  1050                           wreg	equ	0xFE8
  1051                           postdec1	equ	0xFE5
  1052                           fsr1h	equ	0xFE2
  1053                           fsr1l	equ	0xFE1
  1054                           
  1055                           	psect	bssBANK3
  1056  000300                     __pbssBANK3:
  1057                           	opt stack 0
  1058  000300                     _loc_buffer:
  1059                           	opt stack 0
  1060  000300                     	ds	130
  1061                           tblptru	equ	0xFF8
  1062                           tblptrh	equ	0xFF7
  1063                           tblptrl	equ	0xFF6
  1064                           tablat	equ	0xFF5
  1065                           postinc0	equ	0xFEE
  1066                           wreg	equ	0xFE8
  1067                           postdec1	equ	0xFE5
  1068                           fsr1h	equ	0xFE2
  1069                           fsr1l	equ	0xFE1
  1070                           
  1071                           	psect	dataBANK3
  1072  000382                     __pdataBANK3:
  1073                           	opt stack 0
  1074  000382                     _main_menu_txt:
  1075                           	opt stack 0
  1076  000382                     	ds	84
  1077                           tblptru	equ	0xFF8
  1078                           tblptrh	equ	0xFF7
  1079                           tblptrl	equ	0xFF6
  1080                           tablat	equ	0xFF5
  1081                           postinc0	equ	0xFEE
  1082                           wreg	equ	0xFE8
  1083                           postdec1	equ	0xFE5
  1084                           fsr1h	equ	0xFE2
  1085                           fsr1l	equ	0xFE1
  1086                           
  1087                           	psect	bssBANK4
  1088  000400                     __pbssBANK4:
  1089                           	opt stack 0
  1090  000400                     build_tests@F8368:
  1091                           	opt stack 0
  1092  000400                     	ds	128
  1093  000480                     menu_UpdateSystemDisplay@F428:
  1094                           	opt stack 0
  1095  000480                     	ds	80
  1096                           tblptru	equ	0xFF8
  1097                           tblptrh	equ	0xFF7
  1098                           tblptrl	equ	0xFF6
  1099                           tablat	equ	0xFF5
  1100                           postinc0	equ	0xFEE
  1101                           wreg	equ	0xFE8
  1102                           postdec1	equ	0xFE5
  1103                           fsr1h	equ	0xFE2
  1104                           fsr1l	equ	0xFE1
  1105                           
  1106                           	psect	bssBANK5
  1107  000500                     __pbssBANK5:
  1108                           	opt stack 0
  1109  000500                     _appData:
  1110                           	opt stack 0
  1111  000500                     	ds	133
  1112                           tblptru	equ	0xFF8
  1113                           tblptrh	equ	0xFF7
  1114                           tblptrl	equ	0xFF6
  1115                           tablat	equ	0xFF5
  1116                           postinc0	equ	0xFEE
  1117                           wreg	equ	0xFE8
  1118                           postdec1	equ	0xFE5
  1119                           fsr1h	equ	0xFE2
  1120                           fsr1l	equ	0xFE1
  1121                           
  1122                           	psect	bssBANK6
  1123  000600                     __pbssBANK6:
  1124                           	opt stack 0
  1125  000600                     build_test_libraries@F8351:
  1126                           	opt stack 0
  1127  000600                     	ds	128
  1128                           tblptru	equ	0xFF8
  1129                           tblptrh	equ	0xFF7
  1130                           tblptrl	equ	0xFF6
  1131                           tablat	equ	0xFF5
  1132                           postinc0	equ	0xFEE
  1133                           wreg	equ	0xFE8
  1134                           postdec1	equ	0xFE5
  1135                           fsr1h	equ	0xFE2
  1136                           fsr1l	equ	0xFE1
  1137                           
  1138                           	psect	bssBIGRAM
  1139  000680                     __pbssBIGRAM:
  1140                           	opt stack 0
  1141  000680                     _Test_lookup:
  1142                           	opt stack 0
  1143  000680                     	ds	500
  1144  000874                     _subgrp_lookup:
  1145                           	opt stack 0
  1146  000874                     	ds	500
  1147  000A68                     _menu_subgroup:
  1148                           	opt stack 0
  1149  000A68                     	ds	384
  1150                           tblptru	equ	0xFF8
  1151                           tblptrh	equ	0xFF7
  1152                           tblptrl	equ	0xFF6
  1153                           tablat	equ	0xFF5
  1154                           postinc0	equ	0xFEE
  1155                           wreg	equ	0xFE8
  1156                           postdec1	equ	0xFE5
  1157                           fsr1h	equ	0xFE2
  1158                           fsr1l	equ	0xFE1
  1159                           
  1160                           	psect	cstackBANK1
  1161  0001E1                     __pcstackBANK1:
  1162                           	opt stack 0
  1163  0001E1                     menu_NewMenu@subGrp_Index:
  1164                           	opt stack 0
  1165                           
  1166                           ; 1 bytes @ 0x0
  1167  0001E1                     	ds	1
  1168  0001E2                     menu_NewMenu@temp:
  1169                           	opt stack 0
  1170                           
  1171                           ; 2 bytes @ 0x1
  1172  0001E2                     	ds	2
  1173  0001E4                     ??_main:
  1174                           
  1175                           ; 1 bytes @ 0x3
  1176  0001E4                     	ds	1
  1177  0001E5                     main@i:
  1178                           	opt stack 0
  1179                           
  1180                           ; 1 bytes @ 0x4
  1181  0001E5                     	ds	1
  1182                           tblptru	equ	0xFF8
  1183                           tblptrh	equ	0xFF7
  1184                           tblptrl	equ	0xFF6
  1185                           tablat	equ	0xFF5
  1186                           postinc0	equ	0xFEE
  1187                           wreg	equ	0xFE8
  1188                           postdec1	equ	0xFE5
  1189                           fsr1h	equ	0xFE2
  1190                           fsr1l	equ	0xFE1
  1191                           
  1192                           	psect	cstackBANK0
  1193  000060                     __pcstackBANK0:
  1194                           	opt stack 0
  1195  000060                     ??_menu_UpdateSystemDisplay:
  1196  000060                     ?___ftadd:
  1197                           	opt stack 0
  1198  000060                     Data_is_Valid@success:
  1199                           	opt stack 0
  1200  000060                     ___ftadd@f1:
  1201                           	opt stack 0
  1202  000060                     ReadExtEEPROM@_eeprom:
  1203                           	opt stack 0
  1204                           
  1205                           ; 14 bytes @ 0x0
  1206  000060                     	ds	1
  1207  000061                     Data_is_Valid@header:
  1208                           	opt stack 0
  1209                           
  1210                           ; 15 bytes @ 0x1
  1211  000061                     	ds	2
  1212  000063                     ___ftadd@f2:
  1213                           	opt stack 0
  1214                           
  1215                           ; 3 bytes @ 0x3
  1216  000063                     	ds	1
  1217  000064                     menu_UpdateSystemDisplay@opMode:
  1218                           	opt stack 0
  1219                           
  1220                           ; 80 bytes @ 0x4
  1221  000064                     	ds	2
  1222  000066                     ___ftadd@sign:
  1223                           	opt stack 0
  1224                           
  1225                           ; 1 bytes @ 0x6
  1226  000066                     	ds	1
  1227  000067                     ___ftadd@exp2:
  1228                           	opt stack 0
  1229                           
  1230                           ; 1 bytes @ 0x7
  1231  000067                     	ds	1
  1232  000068                     ___ftadd@exp1:
  1233                           	opt stack 0
  1234                           
  1235                           ; 1 bytes @ 0x8
  1236  000068                     	ds	1
  1237  000069                     ?___fttol:
  1238                           	opt stack 0
  1239  000069                     ___fttol@f1:
  1240                           	opt stack 0
  1241                           
  1242                           ; 3 bytes @ 0x9
  1243  000069                     	ds	4
  1244  00006D                     ??___fttol:
  1245                           
  1246                           ; 1 bytes @ 0xD
  1247  00006D                     	ds	1
  1248  00006E                     ReadExtEEPROM@MemAddr:
  1249                           	opt stack 0
  1250                           
  1251                           ; 4 bytes @ 0xE
  1252  00006E                     	ds	2
  1253  000070                     InitEEPROM@_eeprom:
  1254                           	opt stack 0
  1255                           
  1256                           ; 2 bytes @ 0x10
  1257  000070                     	ds	2
  1258  000072                     InitEEPROM@SlaveAddr:
  1259                           	opt stack 0
  1260  000072                     ___fttol@sign1:
  1261                           	opt stack 0
  1262  000072                     ReadExtEEPROM@pData:
  1263                           	opt stack 0
  1264                           
  1265                           ; 2 bytes @ 0x12
  1266  000072                     	ds	1
  1267  000073                     InitEEPROM@Max_Data_Len:
  1268                           	opt stack 0
  1269  000073                     ___fttol@lval:
  1270                           	opt stack 0
  1271                           
  1272                           ; 4 bytes @ 0x13
  1273  000073                     	ds	1
  1274  000074                     ReadExtEEPROM@NumBytes:
  1275                           	opt stack 0
  1276                           
  1277                           ; 2 bytes @ 0x14
  1278  000074                     	ds	2
  1279  000076                     pull_data_for_display@index:
  1280                           	opt stack 0
  1281                           
  1282                           ; 2 bytes @ 0x16
  1283  000076                     	ds	1
  1284  000077                     ___fttol@exp1:
  1285                           	opt stack 0
  1286                           
  1287                           ; 1 bytes @ 0x17
  1288  000077                     	ds	1
  1289  000078                     pull_data_for_display@data:
  1290                           	opt stack 0
  1291  000078                     AD5930_write_freq@freq:
  1292                           	opt stack 0
  1293                           
  1294                           ; 4 bytes @ 0x18
  1295  000078                     	ds	4
  1296  00007C                     ??_AD5930_write_freq:
  1297                           
  1298                           ; 1 bytes @ 0x1C
  1299  00007C                     	ds	6
  1300  000082                     AD5930_write_freq@data:
  1301                           	opt stack 0
  1302                           
  1303                           ; 4 bytes @ 0x22
  1304  000082                     	ds	4
  1305  000086                     AD5930_write_freq@reg:
  1306                           	opt stack 0
  1307                           
  1308                           ; 2 bytes @ 0x26
  1309  000086                     	ds	2
  1310  000088                     run_test_mode@disp_buff:
  1311                           	opt stack 0
  1312                           
  1313                           ; 21 bytes @ 0x28
  1314  000088                     	ds	21
  1315  00009D                     run_test_mode@temp:
  1316                           	opt stack 0
  1317                           
  1318                           ; 2 bytes @ 0x3D
  1319  00009D                     	ds	2
  1320  00009F                     _run_test_mode$2387:
  1321                           	opt stack 0
  1322                           
  1323                           ; 2 bytes @ 0x3F
  1324  00009F                     	ds	2
  1325  0000A1                     _run_test_mode$2388:
  1326                           	opt stack 0
  1327                           
  1328                           ; 2 bytes @ 0x41
  1329  0000A1                     	ds	2
  1330  0000A3                     _run_test_mode$2390:
  1331                           	opt stack 0
  1332                           
  1333                           ; 2 bytes @ 0x43
  1334  0000A3                     	ds	2
  1335  0000A5                     run_test_mode@temp2:
  1336                           	opt stack 0
  1337                           
  1338                           ; 2 bytes @ 0x45
  1339  0000A5                     	ds	15
  1340  0000B4                     menu_UpdateSystemDisplay@pFrequency:
  1341                           	opt stack 0
  1342                           
  1343                           ; 2 bytes @ 0x54
  1344  0000B4                     	ds	2
  1345  0000B6                     menu_UpdateSystemDisplay@p:
  1346                           	opt stack 0
  1347                           
  1348                           ; 2 bytes @ 0x56
  1349  0000B6                     	ds	2
  1350  0000B8                     menu_UpdateSystemDisplay@RemainingTime:
  1351                           	opt stack 0
  1352                           
  1353                           ; 2 bytes @ 0x58
  1354  0000B8                     	ds	2
  1355  0000BA                     menu_UpdateSystemDisplay@systemMode:
  1356                           	opt stack 0
  1357                           
  1358                           ; 1 bytes @ 0x5A
  1359  0000BA                     	ds	1
  1360  0000BB                     menu_UpdateSystemDisplay@FreqIndex:
  1361                           	opt stack 0
  1362                           
  1363                           ; 2 bytes @ 0x5B
  1364  0000BB                     	ds	2
  1365  0000BD                     menu_UpdateSystemDisplay@temp2:
  1366                           	opt stack 0
  1367                           
  1368                           ; 2 bytes @ 0x5D
  1369  0000BD                     	ds	2
  1370  0000BF                     menu_UpdateSystemDisplay@temp:
  1371                           	opt stack 0
  1372                           
  1373                           ; 2 bytes @ 0x5F
  1374  0000BF                     	ds	2
  1375  0000C1                     ??_menu_NewMenu:
  1376                           
  1377                           ; 1 bytes @ 0x61
  1378  0000C1                     	ds	6
  1379                           tblptru	equ	0xFF8
  1380                           tblptrh	equ	0xFF7
  1381                           tblptrl	equ	0xFF6
  1382                           tablat	equ	0xFF5
  1383                           postinc0	equ	0xFEE
  1384                           wreg	equ	0xFE8
  1385                           postdec1	equ	0xFE5
  1386                           fsr1h	equ	0xFE2
  1387                           fsr1l	equ	0xFE1
  1388                           
  1389                           	psect	cstackCOMRAM
  1390  000001                     __pcstackCOMRAM:
  1391                           	opt stack 0
  1392  000001                     ??_I2C2_Stop:
  1393  000001                     
  1394                           ; 2 bytes @ 0x0
  1395  000001                     	ds	2
  1396  000003                     I2C2_Stop@completion_code:
  1397                           	opt stack 0
  1398                           
  1399                           ; 1 bytes @ 0x2
  1400  000003                     	ds	1
  1401  000004                     ??_I2C2_ISR:
  1402                           
  1403                           ; 1 bytes @ 0x3
  1404  000004                     	ds	2
  1405  000006                     ??_INTERRUPT_InterruptManager:
  1406                           
  1407                           ; 1 bytes @ 0x5
  1408  000006                     	ds	14
  1409  000014                     ??_menu_clear:
  1410  000014                     ??_menu_putchar:
  1411  000014                     ??_WriteIns:
  1412  000014                     ??_WriteData:
  1413  000014                     ??_isdigit:
  1414  000014                     ??_menu_draw_cursor:
  1415  000014                     ?_GetSysTick:
  1416                           	opt stack 0
  1417  000014                     ?___wmul:
  1418                           	opt stack 0
  1419  000014                     ?___awmod:
  1420                           	opt stack 0
  1421  000014                     ?___lwdiv:
  1422                           	opt stack 0
  1423  000014                     ?___ftpack:
  1424                           	opt stack 0
  1425  000014                     ?___lldiv:
  1426                           	opt stack 0
  1427  000014                     ?___llmod:
  1428                           	opt stack 0
  1429  000014                     SPI1_Exchange8bit@data:
  1430                           	opt stack 0
  1431  000014                     menu_set_xy@new_line:
  1432                           	opt stack 0
  1433  000014                     pc_cmd_parse@returnCode:
  1434                           	opt stack 0
  1435  000014                     TMR2_SetInterruptHandler@InterruptHandler:
  1436                           	opt stack 0
  1437  000014                     I2C2_MasterTRBInsert@ptrb_list:
  1438                           	opt stack 0
  1439  000014                     I2C2_MasterReadTRBBuild@ptrb:
  1440                           	opt stack 0
  1441  000014                     I2C2_MasterWriteTRBBuild@ptrb:
  1442                           	opt stack 0
  1443  000014                     pull_current_status_for_display@pRemainingTime:
  1444                           	opt stack 0
  1445  000014                     initDebounce@pin:
  1446                           	opt stack 0
  1447  000014                     debounceInput@pin:
  1448                           	opt stack 0
  1449  000014                     ButtonPressed@pin:
  1450                           	opt stack 0
  1451  000014                     decode_byte@data_in:
  1452                           	opt stack 0
  1453  000014                     ___wmul@multiplier:
  1454                           	opt stack 0
  1455  000014                     ___awmod@dividend:
  1456                           	opt stack 0
  1457  000014                     ___lwdiv@dividend:
  1458                           	opt stack 0
  1459  000014                     strncpy@to:
  1460                           	opt stack 0
  1461  000014                     ___ftpack@arg:
  1462                           	opt stack 0
  1463  000014                     ___lldiv@dividend:
  1464                           	opt stack 0
  1465  000014                     ___llmod@dividend:
  1466                           	opt stack 0
  1467                           
  1468                           ; 4 bytes @ 0x13
  1469  000014                     	ds	1
  1470  000015                     menu_set_xy@new_column:
  1471                           	opt stack 0
  1472  000015                     WriteIns@ins:
  1473                           	opt stack 0
  1474  000015                     WriteData@data:
  1475                           	opt stack 0
  1476  000015                     _isdigit$3799:
  1477                           	opt stack 0
  1478  000015                     AD5930_write_def_control@reg:
  1479                           	opt stack 0
  1480  000015                     AD5930_shutdown@reg:
  1481                           	opt stack 0
  1482                           
  1483                           ; 2 bytes @ 0x14
  1484  000015                     	ds	1
  1485  000016                     ?_timePassed:
  1486                           	opt stack 0
  1487  000016                     menu_move_cursor@new_line:
  1488                           	opt stack 0
  1489  000016                     menu_putchar@x:
  1490                           	opt stack 0
  1491  000016                     menu_clear@y:
  1492                           	opt stack 0
  1493  000016                     SetPostion@pos:
  1494                           	opt stack 0
  1495  000016                     DisplayOnOff@data:
  1496                           	opt stack 0
  1497  000016                     SetContrast@contr:
  1498                           	opt stack 0
  1499  000016                     initDebounce@initalState:
  1500                           	opt stack 0
  1501  000016                     debounceInput@rawInput:
  1502                           	opt stack 0
  1503  000016                     isdigit@c:
  1504                           	opt stack 0
  1505  000016                     I2C2_MasterTRBInsert@pflag:
  1506                           	opt stack 0
  1507  000016                     I2C2_MasterReadTRBBuild@pdata:
  1508                           	opt stack 0
  1509  000016                     I2C2_MasterWriteTRBBuild@pdata:
  1510                           	opt stack 0
  1511  000016                     pull_current_status_for_display@pFreqIndex:
  1512                           	opt stack 0
  1513  000016                     WriteString@string:
  1514                           	opt stack 0
  1515  000016                     timePassed@timeOrig:
  1516                           	opt stack 0
  1517  000016                     decode_byte@data_out:
  1518                           	opt stack 0
  1519  000016                     ___wmul@multiplicand:
  1520                           	opt stack 0
  1521  000016                     ___awmod@divisor:
  1522                           	opt stack 0
  1523  000016                     ___lwdiv@divisor:
  1524                           	opt stack 0
  1525  000016                     strncpy@from:
  1526                           	opt stack 0
  1527                           
  1528                           ; 2 bytes @ 0x15
  1529  000016                     	ds	1
  1530  000017                     menu_move_cursor@show:
  1531                           	opt stack 0
  1532  000017                     menu_clear@x:
  1533                           	opt stack 0
  1534  000017                     ___ftpack@exp:
  1535                           	opt stack 0
  1536  000017                     menu_puts@s:
  1537                           	opt stack 0
  1538  000017                     DefineCharacter@data:
  1539                           	opt stack 0
  1540                           
  1541                           ; 2 bytes @ 0x16
  1542  000017                     	ds	1
  1543  000018                     ??_timePassed:
  1544  000018                     ??_menu_move_cursor:
  1545  000018                     I2C2_MasterReadTRBBuild@length:
  1546                           	opt stack 0
  1547  000018                     I2C2_MasterWriteTRBBuild@length:
  1548                           	opt stack 0
  1549  000018                     ___awmod@counter:
  1550                           	opt stack 0
  1551  000018                     ___ftpack@sign:
  1552                           	opt stack 0
  1553  000018                     ___lwdiv@counter:
  1554                           	opt stack 0
  1555  000018                     pull_current_status_for_display@_sysMode:
  1556                           	opt stack 0
  1557  000018                     ___wmul@product:
  1558                           	opt stack 0
  1559  000018                     strncpy@size:
  1560                           	opt stack 0
  1561  000018                     ___lldiv@divisor:
  1562                           	opt stack 0
  1563  000018                     ___llmod@divisor:
  1564                           	opt stack 0
  1565                           
  1566                           ; 4 bytes @ 0x17
  1567  000018                     	ds	1
  1568  000019                     ??_DefineCharacter:
  1569  000019                     ??___ftpack:
  1570  000019                     I2C2_MasterTRBInsert@count:
  1571                           	opt stack 0
  1572  000019                     menu_puts@i:
  1573                           	opt stack 0
  1574  000019                     decode_byte@return_val:
  1575                           	opt stack 0
  1576  000019                     ___awmod@sign:
  1577                           	opt stack 0
  1578  000019                     I2C2_MasterReadTRBBuild@address:
  1579                           	opt stack 0
  1580  000019                     I2C2_MasterWriteTRBBuild@address:
  1581                           	opt stack 0
  1582  000019                     ___lwdiv@quotient:
  1583                           	opt stack 0
  1584                           
  1585                           ; 2 bytes @ 0x18
  1586  000019                     	ds	1
  1587  00001A                     ??_strncpy:
  1588  00001A                     menu_move_cursor@new_column:
  1589                           	opt stack 0
  1590  00001A                     serial_GetFromBuffer@data:
  1591                           	opt stack 0
  1592  00001A                     timePassed@now:
  1593                           	opt stack 0
  1594                           
  1595                           ; 2 bytes @ 0x19
  1596  00001A                     	ds	1
  1597  00001B                     ??_I2C2_MasterWriteTRBBuild:
  1598  00001B                     ??_I2C2_MasterReadTRBBuild:
  1599  00001B                     ?___lwmod:
  1600                           	opt stack 0
  1601  00001B                     DefineCharacter@postion:
  1602                           	opt stack 0
  1603  00001B                     ___lwmod@dividend:
  1604                           	opt stack 0
  1605                           
  1606                           ; 2 bytes @ 0x1A
  1607  00001B                     	ds	1
  1608  00001C                     ?___lltoft:
  1609                           	opt stack 0
  1610  00001C                     serial_GetFromBuffer@byteCnt:
  1611                           	opt stack 0
  1612  00001C                     DefineCharacter@i:
  1613                           	opt stack 0
  1614  00001C                     ___llmod@counter:
  1615                           	opt stack 0
  1616  00001C                     strncpy@cp:
  1617                           	opt stack 0
  1618  00001C                     ___lldiv@quotient:
  1619                           	opt stack 0
  1620  00001C                     ___lltoft@c:
  1621                           	opt stack 0
  1622                           
  1623                           ; 4 bytes @ 0x1B
  1624  00001C                     	ds	1
  1625  00001D                     ??_initDispl:
  1626  00001D                     ??_serial_GetFromBuffer:
  1627  00001D                     hal_i2c_get_pkt@mem_addr:
  1628                           	opt stack 0
  1629  00001D                     ___lwmod@divisor:
  1630                           	opt stack 0
  1631                           
  1632                           ; 2 bytes @ 0x1C
  1633  00001D                     	ds	2
  1634  00001F                     ___lwmod@counter:
  1635                           	opt stack 0
  1636  00001F                     hal_i2c_get_pkt@packet:
  1637                           	opt stack 0
  1638                           
  1639                           ; 2 bytes @ 0x1E
  1640  00001F                     	ds	1
  1641  000020                     ??___lltoft:
  1642  000020                     ?_sprintf:
  1643                           	opt stack 0
  1644  000020                     serial_GetFromBuffer@retVal:
  1645                           	opt stack 0
  1646  000020                     ___lldiv@counter:
  1647                           	opt stack 0
  1648  000020                     sprintf@sp:
  1649                           	opt stack 0
  1650                           
  1651                           ; 2 bytes @ 0x1F
  1652  000020                     	ds	1
  1653  000021                     serial_GetFromBuffer@port:
  1654                           	opt stack 0
  1655  000021                     hal_i2c_get_pkt@numBytes:
  1656                           	opt stack 0
  1657                           
  1658                           ; 1 bytes @ 0x20
  1659  000021                     	ds	1
  1660  000022                     pc_cmd_handler@r_code:
  1661                           	opt stack 0
  1662  000022                     sprintf@f:
  1663                           	opt stack 0
  1664  000022                     hal_i2c_get_pkt@writeBuffer:
  1665                           	opt stack 0
  1666                           
  1667                           ; 3 bytes @ 0x21
  1668  000022                     	ds	1
  1669  000023                     pc_cmd_handler@c:
  1670                           	opt stack 0
  1671                           
  1672                           ; 1 bytes @ 0x22
  1673  000023                     	ds	1
  1674  000024                     ___lltoft@exp:
  1675                           	opt stack 0
  1676                           
  1677                           ; 1 bytes @ 0x23
  1678  000024                     	ds	1
  1679  000025                     ?___ftmul:
  1680                           	opt stack 0
  1681  000025                     hal_i2c_get_pkt@timeOut:
  1682                           	opt stack 0
  1683  000025                     ___ftmul@f1:
  1684                           	opt stack 0
  1685                           
  1686                           ; 3 bytes @ 0x24
  1687  000025                     	ds	2
  1688  000027                     hal_i2c_get_pkt@i2cAddr:
  1689                           	opt stack 0
  1690                           
  1691                           ; 1 bytes @ 0x26
  1692  000027                     	ds	1
  1693  000028                     ___ftmul@f2:
  1694                           	opt stack 0
  1695  000028                     hal_i2c_get_pkt@readTRB:
  1696                           	opt stack 0
  1697                           
  1698                           ; 10 bytes @ 0x27
  1699  000028                     	ds	2
  1700  00002A                     ??_sprintf:
  1701                           
  1702                           ; 1 bytes @ 0x29
  1703  00002A                     	ds	1
  1704  00002B                     ??___ftmul:
  1705                           
  1706                           ; 1 bytes @ 0x2A
  1707  00002B                     	ds	3
  1708  00002E                     sprintf@flag:
  1709                           	opt stack 0
  1710  00002E                     ___ftmul@exp:
  1711                           	opt stack 0
  1712                           
  1713                           ; 1 bytes @ 0x2D
  1714  00002E                     	ds	1
  1715  00002F                     sprintf@ap:
  1716                           	opt stack 0
  1717  00002F                     ___ftmul@f3_as_product:
  1718                           	opt stack 0
  1719                           
  1720                           ; 3 bytes @ 0x2E
  1721  00002F                     	ds	2
  1722  000031                     sprintf@val:
  1723                           	opt stack 0
  1724                           
  1725                           ; 2 bytes @ 0x30
  1726  000031                     	ds	1
  1727  000032                     hal_i2c_get_pkt@status:
  1728                           	opt stack 0
  1729  000032                     ___ftmul@cntr:
  1730                           	opt stack 0
  1731                           
  1732                           ; 1 bytes @ 0x31
  1733  000032                     	ds	1
  1734  000033                     ??_pull_data_for_display:
  1735  000033                     sprintf@prec:
  1736                           	opt stack 0
  1737  000033                     ___ftmul@sign:
  1738                           	opt stack 0
  1739  000033                     Data_is_Valid@_eeprom:
  1740                           	opt stack 0
  1741                           
  1742                           ; 2 bytes @ 0x32
  1743  000033                     	ds	1
  1744  000034                     ??___ftadd:
  1745  000034                     sprintf@width:
  1746                           	opt stack 0
  1747                           
  1748                           ; 2 bytes @ 0x33
  1749  000034                     	ds	1
  1750  000035                     ??_InitEEPROM:
  1751  000035                     
  1752                           ; 1 bytes @ 0x34
  1753  000035                     	ds	1
  1754  000036                     sprintf@c:
  1755                           	opt stack 0
  1756                           
  1757                           ; 1 bytes @ 0x35
  1758  000036                     	ds	1
  1759  000037                     menu_UpdateSystemDisplay@key:
  1760                           	opt stack 0
  1761                           
  1762                           ; 2 bytes @ 0x36
  1763  000037                     	ds	2
  1764  000039                     tblptru	equ	0xFF8
  1765                           tblptrh	equ	0xFF7
  1766                           tblptrl	equ	0xFF6
  1767                           tablat	equ	0xFF5
  1768                           postinc0	equ	0xFEE
  1769                           wreg	equ	0xFE8
  1770                           postdec1	equ	0xFE5
  1771                           fsr1h	equ	0xFE2
  1772                           fsr1l	equ	0xFE1
  1773                           
  1774                           ; 1 bytes @ 0x38
  1775 ;;
  1776 ;;Main: autosize = 0, tempsize = 1, incstack = 0, save=0
  1777 ;;
  1778 ;; *************** function _main *****************
  1779 ;; Defined at:
  1780 ;;		line 132 in file "main.c"
  1781 ;; Parameters:    Size  Location     Type
  1782 ;;		None
  1783 ;; Auto vars:     Size  Location     Type
  1784 ;;  i               1    4[BANK1 ] unsigned char 
  1785 ;; Return value:  Size  Location     Type
  1786 ;;                  2  538[None  ] int 
  1787 ;; Registers used:
  1788 ;;		wreg, fsr0l, fsr0h, fsr1l, fsr1h, fsr2l, fsr2h, status,2, status,0, tblptrl, tblptrh, tblptru, prodl, prodh, cstack
  1789 ;; Tracked objects:
  1790 ;;		On entry : 0/0
  1791 ;;		On exit  : 0/0
  1792 ;;		Unchanged: 0/0
  1793 ;; Data sizes:     COMRAM   BANK0   BANK1   BANK2   BANK3   BANK4   BANK5   BANK6   BANK7   BANK8   BANK9  BANK10  BANK1
      +1  BANK12  BANK13  BANK14  BANK15
  1794 ;;      Params:         0       0       0       0       0       0       0       0       0       0       0       0       
      +0       0       0       0       0
  1795 ;;      Locals:         0       0       1       0       0       0       0       0       0       0       0       0       
      +0       0       0       0       0
  1796 ;;      Temps:          0       0       1       0       0       0       0       0       0       0       0       0       
      +0       0       0       0       0
  1797 ;;      Totals:         0       0       2       0       0       0       0       0       0       0       0       0       
      +0       0       0       0       0
  1798 ;;Total ram usage:        2 bytes
  1799 ;; Hardware stack levels required when called:   10
  1800 ;; This function calls:
  1801 ;;		_AD5930_write_def_control
  1802 ;;		_GetSysTick
  1803 ;;		_INTERRUPT_Initialize
  1804 ;;		_InitEEPROM
  1805 ;;		_SetPostion
  1806 ;;		_WriteString
  1807 ;;		_get_user_input
  1808 ;;		_initDispl
  1809 ;;		_initSysTick
  1810 ;;		_init_hardware
  1811 ;;		_menu_Init
  1812 ;;		_pc_cmd_handler
  1813 ;;		_pc_cmd_parse
  1814 ;;		_run_test_mode
  1815 ;;		_task10mS
  1816 ;;		_timePassed
  1817 ;; This function is called by:
  1818 ;;		Startup code after reset
  1819 ;; This function uses a non-reentrant model
  1820 ;;
  1821                           
  1822                           	psect	text0
  1823  001186                     __ptext0:
  1824                           	opt stack 0
  1825  001186                     _main:
  1826                           	opt stack 21
  1827                           
  1828                           ;main.c: 134: uint8_t i = 0;
  1829                           
  1830                           ;incstack = 0
  1831  001186  0E00               	movlw	0
  1832  001188  0101               	movlb	1	; () banked
  1833  00118A  6FE5               	movwf	main@i& (0+255),b
  1834                           
  1835                           ; BSR set to: 1
  1836                           ;main.c: 136: init_hardware();
  1837  00118C  EC0C  F010         	call	_init_hardware	;wreg free
  1838                           
  1839                           ;main.c: 137: initSysTick();
  1840  001190  EC0E  F016         	call	_initSysTick	;wreg free
  1841                           
  1842                           ;main.c: 138: AD5930_write_def_control();
  1843  001194  EC56  F014         	call	_AD5930_write_def_control	;wreg free
  1844                           
  1845                           ;main.c: 139: INTERRUPT_Initialize();
  1846  001198  EC6F  F016         	call	_INTERRUPT_Initialize	;wreg free
  1847                           
  1848                           ;main.c: 140: (INTCONbits.PEIE = 1);
  1849  00119C  8CF2               	bsf	intcon,6,c	;volatile
  1850                           
  1851                           ;main.c: 141: (INTCONbits.GIE = 1);
  1852  00119E  8EF2               	bsf	intcon,7,c	;volatile
  1853                           
  1854                           ;main.c: 146: initDispl();
  1855  0011A0  EC7B  F00F         	call	_initDispl	;wreg free
  1856                           
  1857                           ;main.c: 148: menu_Init();
  1858  0011A4  ECCD  F014         	call	_menu_Init	;wreg free
  1859                           
  1860                           ;main.c: 149: InitEEPROM( &extMemory, 0x50, (128UL * 500UL) );
  1861  0011A8  0E7C               	movlw	low _extMemory
  1862  0011AA  0100               	movlb	0	; () banked
  1863  0011AC  6F70               	movwf	InitEEPROM@_eeprom& (0+255),b
  1864  0011AE  0E01               	movlw	high _extMemory
  1865  0011B0  0100               	movlb	0	; () banked
  1866  0011B2  6F71               	movwf	(InitEEPROM@_eeprom+1)& (0+255),b
  1867  0011B4  0E50               	movlw	80
  1868  0011B6  0100               	movlb	0	; () banked
  1869  0011B8  6F72               	movwf	InitEEPROM@SlaveAddr& (0+255),b
  1870  0011BA  0EFA               	movlw	250
  1871  0011BC  0100               	movlb	0	; () banked
  1872  0011BE  6F74               	movwf	(InitEEPROM@Max_Data_Len+1)& (0+255),b
  1873  0011C0  0E00               	movlw	0
  1874  0011C2  6F73               	movwf	InitEEPROM@Max_Data_Len& (0+255),b
  1875  0011C4  EC4F  F010         	call	_InitEEPROM	;wreg free
  1876                           
  1877                           ;main.c: 151: WriteString((char*)"RPGreen Elec");
  1878  0011C8  0E8F               	movlw	low STR_1
  1879  0011CA  6E16               	movwf	WriteString@string,c
  1880  0011CC  0EFF               	movlw	high STR_1
  1881  0011CE  6E17               	movwf	WriteString@string+1,c
  1882  0011D0  EC94  F012         	call	_WriteString	;wreg free
  1883                           
  1884                           ;main.c: 152: SetPostion(0+0x20);
  1885  0011D4  0E20               	movlw	32
  1886  0011D6  EC4D  F016         	call	_SetPostion
  1887                           
  1888                           ;main.c: 153: WriteString((char*)"LED Controller");
  1889  0011DA  0E56               	movlw	low STR_2
  1890  0011DC  6E16               	movwf	WriteString@string,c
  1891  0011DE  0EFF               	movlw	high STR_2
  1892  0011E0  6E17               	movwf	WriteString@string+1,c
  1893  0011E2  EC94  F012         	call	_WriteString	;wreg free
  1894                           
  1895                           ;main.c: 154: SetPostion(0+0x40);
  1896  0011E6  0E40               	movlw	64
  1897  0011E8  EC4D  F016         	call	_SetPostion
  1898                           
  1899                           ;main.c: 155: WriteString((char*)"Version 1.0");
  1900  0011EC  0E9C               	movlw	low STR_3
  1901  0011EE  6E16               	movwf	WriteString@string,c
  1902  0011F0  0EFF               	movlw	high STR_3
  1903  0011F2  6E17               	movwf	WriteString@string+1,c
  1904  0011F4  EC94  F012         	call	_WriteString	;wreg free
  1905                           
  1906                           ;main.c: 165: for(i = 0; i < 100; i++)
  1907  0011F8  0E00               	movlw	0
  1908  0011FA  0101               	movlb	1	; () banked
  1909  0011FC  6FE5               	movwf	main@i& (0+255),b
  1910  0011FE                     l8781:
  1911                           
  1912                           ; BSR set to: 1
  1913  0011FE  0E63               	movlw	99
  1914  001200  0101               	movlb	1	; () banked
  1915  001202  65E5               	cpfsgt	main@i& (0+255),b
  1916  001204  D001               	goto	l8785
  1917  001206  D00D               	goto	l8793
  1918  001208                     l8785:
  1919                           
  1920                           ; BSR set to: 1
  1921                           ;main.c: 166: {
  1922                           ;main.c: 167: _delay((unsigned long)((10)*(64000000/4000.0)));
  1923  001208  0ED0               	movlw	208
  1924  00120A  0101               	movlb	1	; () banked
  1925  00120C  6FE4               	movwf	??_main& (0+255),b
  1926  00120E  0ECA               	movlw	202
  1927  001210                     u9477:
  1928  001210  2EE8               	decfsz	wreg,f,c
  1929  001212  D7FE               	goto	u9477
  1930  001214  2FE4               	decfsz	??_main& (0+255),f,b
  1931  001216  D7FC               	goto	u9477
  1932                           
  1933                           ;main.c: 168: task10mS();
  1934  001218  EC93  F00E         	call	_task10mS	;wreg free
  1935  00121C  0101               	movlb	1	; () banked
  1936  00121E  2BE5               	incf	main@i& (0+255),f,b
  1937  001220  D7EE               	goto	l8781
  1938  001222                     l8793:
  1939                           
  1940                           ; BSR set to: 1
  1941                           ;main.c: 169: }
  1942                           ;main.c: 173: get_user_input();
  1943  001222  EC3E  F00E         	call	_get_user_input	;wreg free
  1944  001226                     l8795:
  1945                           
  1946                           ;main.c: 175: {
  1947                           ;main.c: 177: if( timePassed( task_10mS ) >= (10 * 1) )
  1948  001226  C0CE  F016         	movff	_task_10mS,timePassed@timeOrig
  1949  00122A  C0CF  F017         	movff	_task_10mS+1,timePassed@timeOrig+1
  1950  00122E  EC6A  F012         	call	_timePassed	;wreg free
  1951  001232  5017               	movf	?_timePassed+1,w,c
  1952  001234  E104               	bnz	u8650
  1953  001236  0E0A               	movlw	10
  1954  001238  5C16               	subwf	?_timePassed,w,c
  1955  00123A  A0D8               	btfss	status,0,c
  1956  00123C  D00B               	goto	l8801
  1957  00123E                     u8650:
  1958                           
  1959                           ;main.c: 178: {
  1960                           ;main.c: 179: task10mS();
  1961  00123E  EC93  F00E         	call	_task10mS	;wreg free
  1962                           
  1963                           ;main.c: 180: task_10mS = GetSysTick();
  1964  001242  EC59  F016         	call	_GetSysTick	;wreg free
  1965  001246  C014  F0CE         	movff	?_GetSysTick,_task_10mS
  1966  00124A  C015  F0CF         	movff	?_GetSysTick+1,_task_10mS+1
  1967  00124E  0100               	movlb	0	; () banked
  1968  001250  6BD0               	clrf	(_task_10mS+2)& (0+255),b
  1969  001252  6BD1               	clrf	(_task_10mS+3)& (0+255),b
  1970  001254                     l8801:
  1971                           
  1972                           ;main.c: 181: }
  1973                           ;main.c: 182: if( timePassed( task_500mS ) >= (500 * 1) )
  1974  001254  C135  F016         	movff	_task_500mS,timePassed@timeOrig
  1975  001258  C136  F017         	movff	_task_500mS+1,timePassed@timeOrig+1
  1976  00125C  EC6A  F012         	call	_timePassed	;wreg free
  1977  001260  0EF4               	movlw	244
  1978  001262  5C16               	subwf	?_timePassed,w,c
  1979  001264  0E01               	movlw	1
  1980  001266  5817               	subwfb	?_timePassed+1,w,c
  1981  001268  A0D8               	btfss	status,0,c
  1982  00126A  D00B               	goto	l8807
  1983                           
  1984                           ;main.c: 183: {
  1985                           ;main.c: 184: task_500mS = GetSysTick();
  1986  00126C  EC59  F016         	call	_GetSysTick	;wreg free
  1987  001270  C014  F135         	movff	?_GetSysTick,_task_500mS
  1988  001274  C015  F136         	movff	?_GetSysTick+1,_task_500mS+1
  1989  001278  0101               	movlb	1	; () banked
  1990  00127A  6B37               	clrf	(_task_500mS+2)& (0+255),b
  1991  00127C  6B38               	clrf	(_task_500mS+3)& (0+255),b
  1992                           
  1993                           ; BSR set to: 1
  1994                           ;main.c: 185: run_test_mode();
  1995  00127E  ECA7  F006         	call	_run_test_mode	;wreg free
  1996  001282                     l8807:
  1997                           
  1998                           ;main.c: 186: }
  1999                           ;main.c: 187: if( timePassed( task_1000mS ) >= (1000 * 1) )
  2000  001282  C12D  F016         	movff	_task_1000mS,timePassed@timeOrig
  2001  001286  C12E  F017         	movff	_task_1000mS+1,timePassed@timeOrig+1
  2002  00128A  EC6A  F012         	call	_timePassed	;wreg free
  2003  00128E  0EE8               	movlw	232
  2004  001290  5C16               	subwf	?_timePassed,w,c
  2005  001292  0E03               	movlw	3
  2006  001294  5817               	subwfb	?_timePassed+1,w,c
  2007  001296  A0D8               	btfss	status,0,c
  2008  001298  D01F               	goto	l8817
  2009                           
  2010                           ;main.c: 188: {
  2011                           ;main.c: 190: selected_grp_remaining_time_sec = ( selected_grp_remaining_time_sec > 0 ? 
      +                          selected_grp_remaining_time_sec - 1 : 0);
  2012  00129A  0100               	movlb	0	; () banked
  2013  00129C  51EE               	movf	_selected_grp_remaining_time_sec& (0+255),w,b
  2014  00129E  0100               	movlb	0	; () banked
  2015  0012A0  11EF               	iorwf	(_selected_grp_remaining_time_sec+1)& (0+255),w,b
  2016  0012A2  A4D8               	btfss	status,2,c
  2017  0012A4  D006               	goto	l8813
  2018                           
  2019                           ; BSR set to: 0
  2020  0012A6  0E00               	movlw	0
  2021  0012A8  0100               	movlb	0	; () banked
  2022  0012AA  6FEF               	movwf	(_selected_grp_remaining_time_sec+1)& (0+255),b
  2023  0012AC  0E00               	movlw	0
  2024  0012AE  6FEE               	movwf	_selected_grp_remaining_time_sec& (0+255),b
  2025  0012B0  D00A               	goto	l8815
  2026  0012B2                     l8813:
  2027                           
  2028                           ; BSR set to: 0
  2029  0012B2  0EFF               	movlw	255
  2030  0012B4  0100               	movlb	0	; () banked
  2031  0012B6  25EE               	addwf	_selected_grp_remaining_time_sec& (0+255),w,b
  2032  0012B8  0100               	movlb	0	; () banked
  2033  0012BA  6FEE               	movwf	_selected_grp_remaining_time_sec& (0+255),b
  2034  0012BC  0EFF               	movlw	255
  2035  0012BE  0100               	movlb	0	; () banked
  2036  0012C0  21EF               	addwfc	(_selected_grp_remaining_time_sec+1)& (0+255),w,b
  2037  0012C2  0100               	movlb	0	; () banked
  2038  0012C4  6FEF               	movwf	(_selected_grp_remaining_time_sec+1)& (0+255),b
  2039  0012C6                     l8815:
  2040                           
  2041                           ; BSR set to: 0
  2042                           ;main.c: 191: task_1000mS = GetSysTick();
  2043  0012C6  EC59  F016         	call	_GetSysTick	;wreg free
  2044  0012CA  C014  F12D         	movff	?_GetSysTick,_task_1000mS
  2045  0012CE  C015  F12E         	movff	?_GetSysTick+1,_task_1000mS+1
  2046  0012D2  0101               	movlb	1	; () banked
  2047  0012D4  6B2F               	clrf	(_task_1000mS+2)& (0+255),b
  2048  0012D6  6B30               	clrf	(_task_1000mS+3)& (0+255),b
  2049  0012D8                     l8817:
  2050                           
  2051                           ;main.c: 192: }
  2052                           ;main.c: 195: pc_cmd_handler();
  2053  0012D8  ECC6  F00F         	call	_pc_cmd_handler	;wreg free
  2054                           
  2055                           ;main.c: 196: if( serialMessageRdy )
  2056  0012DC  0100               	movlb	0	; () banked
  2057  0012DE  51F7               	movf	_serialMessageRdy& (0+255),w,b
  2058  0012E0  B4D8               	btfsc	status,2,c
  2059  0012E2  D7A1               	goto	l8795
  2060                           
  2061                           ; BSR set to: 0
  2062                           ;main.c: 197: {
  2063                           ;main.c: 198: if( pc_cmd_parse() == PC_MSG_HANDLED)
  2064  0012E4  EC49  F011         	call	_pc_cmd_parse	;wreg free
  2065  0012E8  0A05               	xorlw	5
  2066  0012EA  A4D8               	btfss	status,2,c
  2067  0012EC  D79C               	goto	l8795
  2068                           
  2069                           ;main.c: 199: serialMessageRdy = 0;
  2070  0012EE  0E00               	movlw	0
  2071  0012F0  0100               	movlb	0	; () banked
  2072  0012F2  6FF7               	movwf	_serialMessageRdy& (0+255),b
  2073                           
  2074                           ; BSR set to: 0
  2075                           
  2076                           ; BSR set to: 0
  2077                           
  2078                           ; BSR set to: 0
  2079  0012F4  D798               	goto	l8795
  2080  0012F6                     __end_of_main:
  2081                           	opt stack 0
  2082                           tblptru	equ	0xFF8
  2083                           tblptrh	equ	0xFF7
  2084                           tblptrl	equ	0xFF6
  2085                           tablat	equ	0xFF5
  2086                           intcon	equ	0xFF2
  2087                           postinc0	equ	0xFEE
  2088                           wreg	equ	0xFE8
  2089                           postdec1	equ	0xFE5
  2090                           fsr1h	equ	0xFE2
  2091                           fsr1l	equ	0xFE1
  2092                           status	equ	0xFD8
  2093                           
  2094 ;; *************** function _timePassed *****************
  2095 ;; Defined at:
  2096 ;;		line 117 in file "Source/system_Tick.c"
  2097 ;; Parameters:    Size  Location     Type
  2098 ;;  timeOrig        2   21[COMRAM] unsigned int 
  2099 ;; Auto vars:     Size  Location     Type
  2100 ;;  now             2   25[COMRAM] unsigned int 
  2101 ;; Return value:  Size  Location     Type
  2102 ;;                  2   21[COMRAM] unsigned int 
  2103 ;; Registers used:
  2104 ;;		wreg, status,2, status,0, cstack
  2105 ;; Tracked objects:
  2106 ;;		On entry : 0/0
  2107 ;;		On exit  : 0/0
  2108 ;;		Unchanged: 0/0
  2109 ;; Data sizes:     COMRAM   BANK0   BANK1   BANK2   BANK3   BANK4   BANK5   BANK6   BANK7   BANK8   BANK9  BANK10  BANK1
      +1  BANK12  BANK13  BANK14  BANK15
  2110 ;;      Params:         2       0       0       0       0       0       0       0       0       0       0       0       
      +0       0       0       0       0
  2111 ;;      Locals:         2       0       0       0       0       0       0       0       0       0       0       0       
      +0       0       0       0       0
  2112 ;;      Temps:          2       0       0       0       0       0       0       0       0       0       0       0       
      +0       0       0       0       0
  2113 ;;      Totals:         6       0       0       0       0       0       0       0       0       0       0       0       
      +0       0       0       0       0
  2114 ;;Total ram usage:        6 bytes
  2115 ;; Hardware stack levels used:    1
  2116 ;; Hardware stack levels required when called:    5
  2117 ;; This function calls:
  2118 ;;		_GetSysTick
  2119 ;; This function is called by:
  2120 ;;		_main
  2121 ;; This function uses a non-reentrant model
  2122 ;;
  2123                           
  2124                           	psect	text1
  2125  0024D4                     __ptext1:
  2126                           	opt stack 0
  2127  0024D4                     _timePassed:
  2128                           	opt stack 25
  2129                           
  2130                           ;system_Tick.c: 119: uint16_t now = GetSysTick();
  2131                           
  2132                           ; BSR set to: 0
  2133                           ;incstack = 0
  2134  0024D4  EC59  F016         	call	_GetSysTick	;wreg free
  2135  0024D8  C014  F01A         	movff	?_GetSysTick,timePassed@now
  2136  0024DC  C015  F01B         	movff	?_GetSysTick+1,timePassed@now+1
  2137                           
  2138                           ;system_Tick.c: 121: if( now >= timeOrig)
  2139  0024E0  5016               	movf	timePassed@timeOrig,w,c
  2140  0024E2  5C1A               	subwf	timePassed@now,w,c
  2141  0024E4  5017               	movf	timePassed@timeOrig+1,w,c
  2142  0024E6  581B               	subwfb	timePassed@now+1,w,c
  2143  0024E8  A0D8               	btfss	status,0,c
  2144  0024EA  D00F               	goto	l8527
  2145                           
  2146                           ;system_Tick.c: 122: {
  2147                           ;system_Tick.c: 123: return (now - timeOrig);
  2148  0024EC  C016  F018         	movff	timePassed@timeOrig,??_timePassed
  2149  0024F0  C017  F019         	movff	timePassed@timeOrig+1,??_timePassed+1
  2150  0024F4  1E18               	comf	??_timePassed,f,c
  2151  0024F6  1E19               	comf	??_timePassed+1,f,c
  2152  0024F8  4A18               	infsnz	??_timePassed,f,c
  2153  0024FA  2A19               	incf	??_timePassed+1,f,c
  2154  0024FC  501A               	movf	timePassed@now,w,c
  2155  0024FE  2418               	addwf	??_timePassed,w,c
  2156  002500  6E16               	movwf	?_timePassed,c
  2157  002502  501B               	movf	timePassed@now+1,w,c
  2158  002504  2019               	addwfc	??_timePassed+1,w,c
  2159  002506  6E17               	movwf	?_timePassed+1,c
  2160  002508  0012               	return	
  2161  00250A                     l8527:
  2162                           
  2163                           ;system_Tick.c: 124: }
  2164                           ;system_Tick.c: 126: return( now + (1 + (65535U) - timeOrig));
  2165  00250A  C016  F018         	movff	timePassed@timeOrig,??_timePassed
  2166  00250E  C017  F019         	movff	timePassed@timeOrig+1,??_timePassed+1
  2167  002512  1E18               	comf	??_timePassed,f,c
  2168  002514  1E19               	comf	??_timePassed+1,f,c
  2169  002516  4A18               	infsnz	??_timePassed,f,c
  2170  002518  2A19               	incf	??_timePassed+1,f,c
  2171  00251A  501A               	movf	timePassed@now,w,c
  2172  00251C  2418               	addwf	??_timePassed,w,c
  2173  00251E  6E16               	movwf	?_timePassed,c
  2174  002520  501B               	movf	timePassed@now+1,w,c
  2175  002522  2019               	addwfc	??_timePassed+1,w,c
  2176  002524  6E17               	movwf	?_timePassed+1,c
  2177  002526  0012               	return	
  2178  002528                     __end_of_timePassed:
  2179                           	opt stack 0
  2180                           tblptru	equ	0xFF8
  2181                           tblptrh	equ	0xFF7
  2182                           tblptrl	equ	0xFF6
  2183                           tablat	equ	0xFF5
  2184                           intcon	equ	0xFF2
  2185                           postinc0	equ	0xFEE
  2186                           wreg	equ	0xFE8
  2187                           postdec1	equ	0xFE5
  2188                           fsr1h	equ	0xFE2
  2189                           fsr1l	equ	0xFE1
  2190                           status	equ	0xFD8
  2191                           
  2192 ;; *************** function _GetSysTick *****************
  2193 ;; Defined at:
  2194 ;;		line 69 in file "Source/system_Tick.c"
  2195 ;; Parameters:    Size  Location     Type
  2196 ;;		None
  2197 ;; Auto vars:     Size  Location     Type
  2198 ;;		None
  2199 ;; Return value:  Size  Location     Type
  2200 ;;                  2   19[COMRAM] unsigned int 
  2201 ;; Registers used:
  2202 ;;		None
  2203 ;; Tracked objects:
  2204 ;;		On entry : 0/0
  2205 ;;		On exit  : 0/0
  2206 ;;		Unchanged: 0/0
  2207 ;; Data sizes:     COMRAM   BANK0   BANK1   BANK2   BANK3   BANK4   BANK5   BANK6   BANK7   BANK8   BANK9  BANK10  BANK1
      +1  BANK12  BANK13  BANK14  BANK15
  2208 ;;      Params:         2       0       0       0       0       0       0       0       0       0       0       0       
      +0       0       0       0       0
  2209 ;;      Locals:         0       0       0       0       0       0       0       0       0       0       0       0       
      +0       0       0       0       0
  2210 ;;      Temps:          0       0       0       0       0       0       0       0       0       0       0       0       
      +0       0       0       0       0
  2211 ;;      Totals:         2       0       0       0       0       0       0       0       0       0       0       0       
      +0       0       0       0       0
  2212 ;;Total ram usage:        2 bytes
  2213 ;; Hardware stack levels used:    1
  2214 ;; Hardware stack levels required when called:    4
  2215 ;; This function calls:
  2216 ;;		Nothing
  2217 ;; This function is called by:
  2218 ;;		_main
  2219 ;;		_timePassed
  2220 ;; This function uses a non-reentrant model
  2221 ;;
  2222                           
  2223                           	psect	text2
  2224  002CB2                     __ptext2:
  2225                           	opt stack 0
  2226  002CB2                     _GetSysTick:
  2227                           	opt stack 25
  2228                           
  2229                           ;system_Tick.c: 71: return SysTick;
  2230                           
  2231                           ;incstack = 0
  2232  002CB2  C039  F014         	movff	_SysTick,?_GetSysTick	;volatile
  2233  002CB6  C03A  F015         	movff	_SysTick+1,?_GetSysTick+1	;volatile
  2234  002CBA  0012               	return		;funcret
  2235  002CBC                     __end_of_GetSysTick:
  2236                           	opt stack 0
  2237                           tblptru	equ	0xFF8
  2238                           tblptrh	equ	0xFF7
  2239                           tblptrl	equ	0xFF6
  2240                           tablat	equ	0xFF5
  2241                           intcon	equ	0xFF2
  2242                           postinc0	equ	0xFEE
  2243                           wreg	equ	0xFE8
  2244                           postdec1	equ	0xFE5
  2245                           fsr1h	equ	0xFE2
  2246                           fsr1l	equ	0xFE1
  2247                           status	equ	0xFD8
  2248                           
  2249 ;; *************** function _task10mS *****************
  2250 ;; Defined at:
  2251 ;;		line 286 in file "main.c"
  2252 ;; Parameters:    Size  Location     Type
  2253 ;;		None
  2254 ;; Auto vars:     Size  Location     Type
  2255 ;;		None
  2256 ;; Return value:  Size  Location     Type
  2257 ;;                  1    wreg      void 
  2258 ;; Registers used:
  2259 ;;		wreg, fsr1l, fsr1h, fsr2l, fsr2h, status,2, status,0, cstack
  2260 ;; Tracked objects:
  2261 ;;		On entry : 0/0
  2262 ;;		On exit  : 0/0
  2263 ;;		Unchanged: 0/0
  2264 ;; Data sizes:     COMRAM   BANK0   BANK1   BANK2   BANK3   BANK4   BANK5   BANK6   BANK7   BANK8   BANK9  BANK10  BANK1
      +1  BANK12  BANK13  BANK14  BANK15
  2265 ;;      Params:         0       0       0       0       0       0       0       0       0       0       0       0       
      +0       0       0       0       0
  2266 ;;      Locals:         0       0       0       0       0       0       0       0       0       0       0       0       
      +0       0       0       0       0
  2267 ;;      Temps:          0       0       0       0       0       0       0       0       0       0       0       0       
      +0       0       0       0       0
  2268 ;;      Totals:         0       0       0       0       0       0       0       0       0       0       0       0       
      +0       0       0       0       0
  2269 ;;Total ram usage:        0 bytes
  2270 ;; Hardware stack levels used:    1
  2271 ;; Hardware stack levels required when called:    5
  2272 ;; This function calls:
  2273 ;;		_debounceInput
  2274 ;; This function is called by:
  2275 ;;		_main
  2276 ;; This function uses a non-reentrant model
  2277 ;;
  2278                           
  2279                           	psect	text3
  2280  001D26                     __ptext3:
  2281                           	opt stack 0
  2282  001D26                     _task10mS:
  2283                           	opt stack 25
  2284                           
  2285                           ;main.c: 288: debounceInput( &key_up, PORTEbits.RE0);
  2286                           
  2287                           ;incstack = 0
  2288  001D26  0EBC               	movlw	low _key_up
  2289  001D28  6E14               	movwf	debounceInput@pin,c
  2290  001D2A  0E01               	movlw	high _key_up
  2291  001D2C  6E15               	movwf	debounceInput@pin+1,c
  2292  001D2E  0E00               	movlw	0
  2293  001D30  B084               	btfsc	3972,0,c	;volatile
  2294  001D32  0E01               	movlw	1
  2295  001D34  6E16               	movwf	debounceInput@rawInput,c
  2296  001D36  EC22  F00D         	call	_debounceInput	;wreg free
  2297                           
  2298                           ;main.c: 289: debounceInput( &key_down, PORTDbits.RD5);
  2299  001D3A  0E99               	movlw	low _key_down
  2300  001D3C  6E14               	movwf	debounceInput@pin,c
  2301  001D3E  0E01               	movlw	high _key_down
  2302  001D40  6E15               	movwf	debounceInput@pin+1,c
  2303  001D42  0E00               	movlw	0
  2304  001D44  BA83               	btfsc	3971,5,c	;volatile
  2305  001D46  0E01               	movlw	1
  2306  001D48  6E16               	movwf	debounceInput@rawInput,c
  2307  001D4A  EC22  F00D         	call	_debounceInput	;wreg free
  2308                           
  2309                           ;main.c: 290: debounceInput( &key_left, PORTDbits.RD7);
  2310  001D4E  0E9E               	movlw	low _key_left
  2311  001D50  6E14               	movwf	debounceInput@pin,c
  2312  001D52  0E01               	movlw	high _key_left
  2313  001D54  6E15               	movwf	debounceInput@pin+1,c
  2314  001D56  0E00               	movlw	0
  2315  001D58  BE83               	btfsc	3971,7,c	;volatile
  2316  001D5A  0E01               	movlw	1
  2317  001D5C  6E16               	movwf	debounceInput@rawInput,c
  2318  001D5E  EC22  F00D         	call	_debounceInput	;wreg free
  2319                           
  2320                           ;main.c: 291: debounceInput( &key_right, PORTDbits.RD6);
  2321  001D62  0EAD               	movlw	low _key_right
  2322  001D64  6E14               	movwf	debounceInput@pin,c
  2323  001D66  0E01               	movlw	high _key_right
  2324  001D68  6E15               	movwf	debounceInput@pin+1,c
  2325  001D6A  0E00               	movlw	0
  2326  001D6C  BC83               	btfsc	3971,6,c	;volatile
  2327  001D6E  0E01               	movlw	1
  2328  001D70  6E16               	movwf	debounceInput@rawInput,c
  2329  001D72  EC22  F00D         	call	_debounceInput	;wreg free
  2330                           
  2331                           ;main.c: 292: debounceInput( &key_sel, PORTBbits.RB5);
  2332  001D76  0EB2               	movlw	low _key_sel
  2333  001D78  6E14               	movwf	debounceInput@pin,c
  2334  001D7A  0E01               	movlw	high _key_sel
  2335  001D7C  6E15               	movwf	debounceInput@pin+1,c
  2336  001D7E  0E00               	movlw	0
  2337  001D80  BA81               	btfsc	3969,5,c	;volatile
  2338  001D82  0E01               	movlw	1
  2339  001D84  6E16               	movwf	debounceInput@rawInput,c
  2340  001D86  EC22  F00D         	call	_debounceInput	;wreg free
  2341                           
  2342                           ;main.c: 293: debounceInput( &key_pause, PORTBbits.RB4);
  2343  001D8A  0EA3               	movlw	low _key_pause
  2344  001D8C  6E14               	movwf	debounceInput@pin,c
  2345  001D8E  0E01               	movlw	high _key_pause
  2346  001D90  6E15               	movwf	debounceInput@pin+1,c
  2347  001D92  0E00               	movlw	0
  2348  001D94  B881               	btfsc	3969,4,c	;volatile
  2349  001D96  0E01               	movlw	1
  2350  001D98  6E16               	movwf	debounceInput@rawInput,c
  2351  001D9A  EC22  F00D         	call	_debounceInput	;wreg free
  2352                           
  2353                           ;main.c: 294: debounceInput( &key_stop, PORTBbits.RB3);
  2354  001D9E  0EB7               	movlw	low _key_stop
  2355  001DA0  6E14               	movwf	debounceInput@pin,c
  2356  001DA2  0E01               	movlw	high _key_stop
  2357  001DA4  6E15               	movwf	debounceInput@pin+1,c
  2358  001DA6  0E00               	movlw	0
  2359  001DA8  B681               	btfsc	3969,3,c	;volatile
  2360  001DAA  0E01               	movlw	1
  2361  001DAC  6E16               	movwf	debounceInput@rawInput,c
  2362  001DAE  EC22  F00D         	call	_debounceInput	;wreg free
  2363                           
  2364                           ;main.c: 295: debounceInput( &key_power, PORTEbits.RE1);
  2365  001DB2  0EA8               	movlw	low _key_power
  2366  001DB4  6E14               	movwf	debounceInput@pin,c
  2367  001DB6  0E01               	movlw	high _key_power
  2368  001DB8  6E15               	movwf	debounceInput@pin+1,c
  2369  001DBA  0E00               	movlw	0
  2370  001DBC  B284               	btfsc	3972,1,c	;volatile
  2371  001DBE  0E01               	movlw	1
  2372  001DC0  6E16               	movwf	debounceInput@rawInput,c
  2373  001DC2  EC22  F00D         	call	_debounceInput	;wreg free
  2374  001DC6  0012               	return		;funcret
  2375  001DC8                     __end_of_task10mS:
  2376                           	opt stack 0
  2377                           tblptru	equ	0xFF8
  2378                           tblptrh	equ	0xFF7
  2379                           tblptrl	equ	0xFF6
  2380                           tablat	equ	0xFF5
  2381                           intcon	equ	0xFF2
  2382                           postinc0	equ	0xFEE
  2383                           wreg	equ	0xFE8
  2384                           postdec1	equ	0xFE5
  2385                           fsr1h	equ	0xFE2
  2386                           fsr1l	equ	0xFE1
  2387                           status	equ	0xFD8
  2388                           
  2389 ;; *************** function _debounceInput *****************
  2390 ;; Defined at:
  2391 ;;		line 79 in file "Source/user_debounce.c"
  2392 ;; Parameters:    Size  Location     Type
  2393 ;;  pin             2   19[COMRAM] PTR struct .
  2394 ;;		 -> key_power(5), key_stop(5), key_pause(5), key_sel(5), 
  2395 ;;		 -> key_right(5), key_left(5), key_down(5), key_up(5), 
  2396 ;;  rawInput        1   21[COMRAM] unsigned char 
  2397 ;; Auto vars:     Size  Location     Type
  2398 ;;		None
  2399 ;; Return value:  Size  Location     Type
  2400 ;;                  1    wreg      void 
  2401 ;; Registers used:
  2402 ;;		wreg, fsr1l, fsr1h, fsr2l, fsr2h, status,2, status,0
  2403 ;; Tracked objects:
  2404 ;;		On entry : 0/0
  2405 ;;		On exit  : 0/0
  2406 ;;		Unchanged: 0/0
  2407 ;; Data sizes:     COMRAM   BANK0   BANK1   BANK2   BANK3   BANK4   BANK5   BANK6   BANK7   BANK8   BANK9  BANK10  BANK1
      +1  BANK12  BANK13  BANK14  BANK15
  2408 ;;      Params:         3       0       0       0       0       0       0       0       0       0       0       0       
      +0       0       0       0       0
  2409 ;;      Locals:         0       0       0       0       0       0       0       0       0       0       0       0       
      +0       0       0       0       0
  2410 ;;      Temps:          2       0       0       0       0       0       0       0       0       0       0       0       
      +0       0       0       0       0
  2411 ;;      Totals:         5       0       0       0       0       0       0       0       0       0       0       0       
      +0       0       0       0       0
  2412 ;;Total ram usage:        5 bytes
  2413 ;; Hardware stack levels used:    1
  2414 ;; Hardware stack levels required when called:    4
  2415 ;; This function calls:
  2416 ;;		Nothing
  2417 ;; This function is called by:
  2418 ;;		_task10mS
  2419 ;; This function uses a non-reentrant model
  2420 ;;
  2421                           
  2422                           	psect	text4
  2423  001A44                     __ptext4:
  2424                           	opt stack 0
  2425  001A44                     _debounceInput:
  2426                           	opt stack 25
  2427                           
  2428                           ;user_debounce.c: 81: pin->prevDebouncedState = pin->debouncedState;
  2429                           
  2430                           ;incstack = 0
  2431  001A44  EE20 F001          	lfsr	2,1
  2432  001A48  5014               	movf	debounceInput@pin,w,c
  2433  001A4A  26D9               	addwf	fsr2l,f,c
  2434  001A4C  5015               	movf	debounceInput@pin+1,w,c
  2435  001A4E  22DA               	addwfc	fsr2h,f,c
  2436  001A50  EE10 F002          	lfsr	1,2
  2437  001A54  5014               	movf	debounceInput@pin,w,c
  2438  001A56  26E1               	addwf	fsr1l,f,c
  2439  001A58  5015               	movf	debounceInput@pin+1,w,c
  2440  001A5A  22E2               	addwfc	fsr1h,f,c
  2441  001A5C  CFDF FFE7          	movff	indf2,indf1
  2442                           
  2443                           ;user_debounce.c: 82: if(rawInput)
  2444  001A60  5016               	movf	debounceInput@rawInput,w,c
  2445  001A62  B4D8               	btfsc	status,2,c
  2446  001A64  D006               	goto	l8085
  2447                           
  2448                           ;user_debounce.c: 83: {
  2449                           ;user_debounce.c: 84: pin->counter++;
  2450  001A66  C014  FFD9         	movff	debounceInput@pin,fsr2l
  2451  001A6A  C015  FFDA         	movff	debounceInput@pin+1,fsr2h
  2452  001A6E  2ADF               	incf	indf2,f,c
  2453                           
  2454                           ;user_debounce.c: 85: }
  2455  001A70  D005               	goto	l8087
  2456  001A72                     l8085:
  2457                           
  2458                           ;user_debounce.c: 86: else
  2459                           ;user_debounce.c: 87: {
  2460                           ;user_debounce.c: 88: pin->counter--;
  2461  001A72  C014  FFD9         	movff	debounceInput@pin,fsr2l
  2462  001A76  C015  FFDA         	movff	debounceInput@pin+1,fsr2h
  2463  001A7A  06DF               	decf	indf2,f,c
  2464  001A7C                     l8087:
  2465                           
  2466                           ;user_debounce.c: 89: }
  2467                           ;user_debounce.c: 91: if( pin->counter > ( 5 + 5))
  2468  001A7C  C014  FFD9         	movff	debounceInput@pin,fsr2l
  2469  001A80  C015  FFDA         	movff	debounceInput@pin+1,fsr2h
  2470  001A84  0E0A               	movlw	10
  2471  001A86  64DF               	cpfsgt	indf2,c
  2472  001A88  D00E               	goto	l8093
  2473                           
  2474                           ;user_debounce.c: 92: {
  2475                           ;user_debounce.c: 93: pin->counter = ( 5 + 5);
  2476  001A8A  C014  FFD9         	movff	debounceInput@pin,fsr2l
  2477  001A8E  C015  FFDA         	movff	debounceInput@pin+1,fsr2h
  2478  001A92  0E0A               	movlw	10
  2479  001A94  6EDF               	movwf	indf2,c
  2480                           
  2481                           ;user_debounce.c: 94: pin->debouncedState = 1;
  2482  001A96  EE20 F001          	lfsr	2,1
  2483  001A9A  5014               	movf	debounceInput@pin,w,c
  2484  001A9C  26D9               	addwf	fsr2l,f,c
  2485  001A9E  5015               	movf	debounceInput@pin+1,w,c
  2486  001AA0  22DA               	addwfc	fsr2h,f,c
  2487  001AA2  0E01               	movlw	1
  2488  001AA4  D014               	goto	L1
  2489  001AA6                     l8093:
  2490                           
  2491                           ;user_debounce.c: 96: else if( pin->counter < 5)
  2492  001AA6  C014  FFD9         	movff	debounceInput@pin,fsr2l
  2493  001AAA  C015  FFDA         	movff	debounceInput@pin+1,fsr2h
  2494  001AAE  0E05               	movlw	5
  2495  001AB0  60DF               	cpfslt	indf2,c
  2496  001AB2  D00E               	goto	l8099
  2497                           
  2498                           ;user_debounce.c: 97: {
  2499                           ;user_debounce.c: 98: pin->counter = 5;
  2500  001AB4  C014  FFD9         	movff	debounceInput@pin,fsr2l
  2501  001AB8  C015  FFDA         	movff	debounceInput@pin+1,fsr2h
  2502  001ABC  0E05               	movlw	5
  2503  001ABE  6EDF               	movwf	indf2,c
  2504                           
  2505                           ;user_debounce.c: 99: pin->debouncedState = 0;
  2506  001AC0  EE20 F001          	lfsr	2,1
  2507  001AC4  5014               	movf	debounceInput@pin,w,c
  2508  001AC6  26D9               	addwf	fsr2l,f,c
  2509  001AC8  5015               	movf	debounceInput@pin+1,w,c
  2510  001ACA  22DA               	addwfc	fsr2h,f,c
  2511  001ACC  0E00               	movlw	0
  2512  001ACE                     L1:
  2513  001ACE  6EDF               	movwf	indf2,c
  2514  001AD0                     l8099:
  2515                           
  2516                           ;user_debounce.c: 100: }
  2517                           ;user_debounce.c: 102: if( pin->prevDebouncedState != pin->debouncedState)
  2518  001AD0  EE20 F001          	lfsr	2,1
  2519  001AD4  5014               	movf	debounceInput@pin,w,c
  2520  001AD6  26D9               	addwf	fsr2l,f,c
  2521  001AD8  5015               	movf	debounceInput@pin+1,w,c
  2522  001ADA  22DA               	addwfc	fsr2h,f,c
  2523  001ADC  EE10 F002          	lfsr	1,2
  2524  001AE0  5014               	movf	debounceInput@pin,w,c
  2525  001AE2  26E1               	addwf	fsr1l,f,c
  2526  001AE4  5015               	movf	debounceInput@pin+1,w,c
  2527  001AE6  22E2               	addwfc	fsr1h,f,c
  2528  001AE8  50DE               	movf	postinc2,w,c
  2529  001AEA  18E6               	xorwf	postinc1,w,c
  2530  001AEC  B4D8               	btfsc	status,2,c
  2531  001AEE  D009               	goto	l8103
  2532                           
  2533                           ;user_debounce.c: 103: pin->changed = 1;
  2534  001AF0  EE20 F003          	lfsr	2,3
  2535  001AF4  5014               	movf	debounceInput@pin,w,c
  2536  001AF6  26D9               	addwf	fsr2l,f,c
  2537  001AF8  5015               	movf	debounceInput@pin+1,w,c
  2538  001AFA  22DA               	addwfc	fsr2h,f,c
  2539  001AFC  0E01               	movlw	1
  2540  001AFE  6EDF               	movwf	indf2,c
  2541  001B00  0012               	return	
  2542  001B02                     l8103:
  2543                           
  2544                           ;user_debounce.c: 104: else
  2545                           ;user_debounce.c: 105: pin->changed = 0;
  2546  001B02  EE20 F003          	lfsr	2,3
  2547  001B06  5014               	movf	debounceInput@pin,w,c
  2548  001B08  26D9               	addwf	fsr2l,f,c
  2549  001B0A  5015               	movf	debounceInput@pin+1,w,c
  2550  001B0C  22DA               	addwfc	fsr2h,f,c
  2551  001B0E  0E00               	movlw	0
  2552  001B10  6EDF               	movwf	indf2,c
  2553  001B12  0012               	return	
  2554  001B14                     __end_of_debounceInput:
  2555                           	opt stack 0
  2556                           tblptru	equ	0xFF8
  2557                           tblptrh	equ	0xFF7
  2558                           tblptrl	equ	0xFF6
  2559                           tablat	equ	0xFF5
  2560                           intcon	equ	0xFF2
  2561                           postinc0	equ	0xFEE
  2562                           wreg	equ	0xFE8
  2563                           indf1	equ	0xFE7
  2564                           postinc1	equ	0xFE6
  2565                           postdec1	equ	0xFE5
  2566                           fsr1h	equ	0xFE2
  2567                           fsr1l	equ	0xFE1
  2568                           indf2	equ	0xFDF
  2569                           postinc2	equ	0xFDE
  2570                           fsr2h	equ	0xFDA
  2571                           fsr2l	equ	0xFD9
  2572                           status	equ	0xFD8
  2573                           
  2574 ;; *************** function _run_test_mode *****************
  2575 ;; Defined at:
  2576 ;;		line 657 in file "main.c"
  2577 ;; Parameters:    Size  Location     Type
  2578 ;;		None
  2579 ;; Auto vars:     Size  Location     Type
  2580 ;;  disp_buff      21   40[BANK0 ] unsigned char [21]
  2581 ;;  temp2           2   69[BANK0 ] unsigned int 
  2582 ;;  temp            2   61[BANK0 ] unsigned int 
  2583 ;; Return value:  Size  Location     Type
  2584 ;;                  1    wreg      void 
  2585 ;; Registers used:
  2586 ;;		wreg, fsr0l, fsr0h, fsr1l, fsr1h, fsr2l, fsr2h, status,2, status,0, tblptrl, tblptrh, tblptru, prodl, prodh, cstack
  2587 ;; Tracked objects:
  2588 ;;		On entry : 0/0
  2589 ;;		On exit  : 0/0
  2590 ;;		Unchanged: 0/0
  2591 ;; Data sizes:     COMRAM   BANK0   BANK1   BANK2   BANK3   BANK4   BANK5   BANK6   BANK7   BANK8   BANK9  BANK10  BANK1
      +1  BANK12  BANK13  BANK14  BANK15
  2592 ;;      Params:         0       0       0       0       0       0       0       0       0       0       0       0       
      +0       0       0       0       0
  2593 ;;      Locals:         0      31       0       0       0       0       0       0       0       0       0       0       
      +0       0       0       0       0
  2594 ;;      Temps:          0       0       0       0       0       0       0       0       0       0       0       0       
      +0       0       0       0       0
  2595 ;;      Totals:         0      31       0       0       0       0       0       0       0       0       0       0       
      +0       0       0       0       0
  2596 ;;Total ram usage:       31 bytes
  2597 ;; Hardware stack levels used:    1
  2598 ;; Hardware stack levels required when called:    8
  2599 ;; This function calls:
  2600 ;;		_AD5930_shutdown
  2601 ;;		_AD5930_write_freq
  2602 ;;		_ClrDisplay
  2603 ;;		_WriteString
  2604 ;;		___lldiv
  2605 ;;		___llmod
  2606 ;;		___lwdiv
  2607 ;;		_get_user_input
  2608 ;;		_sprintf
  2609 ;; This function is called by:
  2610 ;;		_main
  2611 ;; This function uses a non-reentrant model
  2612 ;;
  2613                           
  2614                           	psect	text5
  2615  000D4E                     __ptext5:
  2616                           	opt stack 0
  2617  000D4E                     _run_test_mode:
  2618                           	opt stack 22
  2619                           
  2620                           ;main.c: 659: char disp_buff[21];
  2621                           ;main.c: 660: uint16_t temp = 0;
  2622                           
  2623                           ;incstack = 0
  2624  000D4E  0E00               	movlw	0
  2625  000D50  0100               	movlb	0	; () banked
  2626  000D52  6F9E               	movwf	(run_test_mode@temp+1)& (0+255),b
  2627  000D54  0E00               	movlw	0
  2628  000D56  6F9D               	movwf	run_test_mode@temp& (0+255),b
  2629                           
  2630                           ;main.c: 661: uint16_t temp2 = 0;
  2631  000D58  0E00               	movlw	0
  2632  000D5A  0100               	movlb	0	; () banked
  2633  000D5C  6FA6               	movwf	(run_test_mode@temp2+1)& (0+255),b
  2634  000D5E  0E00               	movlw	0
  2635  000D60  6FA5               	movwf	run_test_mode@temp2& (0+255),b
  2636                           
  2637                           ;main.c: 663: switch( get_user_input() )
  2638  000D62  D04A               	goto	l8559
  2639  000D64                     l8533:
  2640                           
  2641                           ;main.c: 666: test_mode_index = ( (test_mode_index < (8 - 1)) ? (test_mode_index + 1) : 
      +                          0);
  2642  000D64  0E06               	movlw	6
  2643  000D66  0100               	movlb	0	; () banked
  2644  000D68  65F9               	cpfsgt	_test_mode_index& (0+255),b
  2645  000D6A  D006               	goto	l8537
  2646                           
  2647                           ; BSR set to: 0
  2648  000D6C  0E00               	movlw	0
  2649  000D6E  0100               	movlb	0	; () banked
  2650  000D70  6FA0               	movwf	(_run_test_mode$2387+1)& (0+255),b
  2651  000D72  0E00               	movlw	0
  2652  000D74  6F9F               	movwf	_run_test_mode$2387& (0+255),b
  2653  000D76  D009               	goto	l8539
  2654  000D78                     l8537:
  2655                           
  2656                           ; BSR set to: 0
  2657  000D78  0E01               	movlw	1
  2658  000D7A  0100               	movlb	0	; () banked
  2659  000D7C  25F9               	addwf	_test_mode_index& (0+255),w,b
  2660  000D7E  0100               	movlb	0	; () banked
  2661  000D80  6F9F               	movwf	_run_test_mode$2387& (0+255),b
  2662  000D82  0100               	movlb	0	; () banked
  2663  000D84  6BA0               	clrf	(_run_test_mode$2387+1)& (0+255),b
  2664  000D86  0E00               	movlw	0
  2665  000D88  23A0               	addwfc	(_run_test_mode$2387+1)& (0+255),f,b
  2666  000D8A                     l8539:
  2667                           
  2668                           ; BSR set to: 0
  2669  000D8A  C09F  F0F9         	movff	_run_test_mode$2387,_test_mode_index
  2670  000D8E  D016               	goto	l8551
  2671  000D90                     l8543:
  2672                           
  2673                           ;main.c: 670: test_mode_index = ( (test_mode_index > 0) ? (test_mode_index - 1) : (8 - 1
      +                          ));
  2674  000D90  0100               	movlb	0	; () banked
  2675  000D92  51F9               	movf	_test_mode_index& (0+255),w,b
  2676  000D94  0100               	movlb	0	; () banked
  2677  000D96  A4D8               	btfss	status,2,c
  2678  000D98  D006               	goto	l8547
  2679                           
  2680                           ; BSR set to: 0
  2681  000D9A  0E00               	movlw	0
  2682  000D9C  0100               	movlb	0	; () banked
  2683  000D9E  6FA2               	movwf	(_run_test_mode$2388+1)& (0+255),b
  2684  000DA0  0E07               	movlw	7
  2685  000DA2  6FA1               	movwf	_run_test_mode$2388& (0+255),b
  2686  000DA4  D009               	goto	l8549
  2687  000DA6                     l8547:
  2688                           
  2689                           ; BSR set to: 0
  2690  000DA6  0EFF               	movlw	255
  2691  000DA8  0100               	movlb	0	; () banked
  2692  000DAA  25F9               	addwf	_test_mode_index& (0+255),w,b
  2693  000DAC  0100               	movlb	0	; () banked
  2694  000DAE  6FA1               	movwf	_run_test_mode$2388& (0+255),b
  2695  000DB0  0100               	movlb	0	; () banked
  2696  000DB2  6BA2               	clrf	(_run_test_mode$2388+1)& (0+255),b
  2697  000DB4  0EFF               	movlw	255
  2698  000DB6  23A2               	addwfc	(_run_test_mode$2388+1)& (0+255),f,b
  2699  000DB8                     l8549:
  2700                           
  2701                           ; BSR set to: 0
  2702  000DB8  C0A1  F0F9         	movff	_run_test_mode$2388,_test_mode_index
  2703  000DBC                     l8551:
  2704                           
  2705                           ; BSR set to: 0
  2706                           ;main.c: 671: sysMode = mSTOP;
  2707  000DBC  0E00               	movlw	0
  2708  000DBE  6E49               	movwf	_sysMode,c
  2709                           
  2710                           ;main.c: 672: break;
  2711  000DC0  D026               	goto	l8561
  2712  000DC2                     l8553:
  2713                           
  2714                           ;main.c: 674: selected_grp_remaining_time_sec = 180;
  2715  000DC2  0E00               	movlw	0
  2716  000DC4  0100               	movlb	0	; () banked
  2717  000DC6  6FEF               	movwf	(_selected_grp_remaining_time_sec+1)& (0+255),b
  2718  000DC8  0EB4               	movlw	180
  2719  000DCA  6FEE               	movwf	_selected_grp_remaining_time_sec& (0+255),b
  2720                           
  2721                           ;main.c: 675: sysMode = mPLAY;
  2722  000DCC  0E02               	movlw	2
  2723  000DCE  6E49               	movwf	_sysMode,c
  2724                           
  2725                           ; BSR set to: 0
  2726                           ;main.c: 676: AD5930_write_freq( test_mode_freq_list[ test_mode_index ] );
  2727  000DD0  0100               	movlb	0	; () banked
  2728  000DD2  51F9               	movf	_test_mode_index& (0+255),w,b
  2729  000DD4  0D04               	mullw	4
  2730  000DD6  0EC1               	movlw	low _test_mode_freq_list
  2731  000DD8  24F3               	addwf	prodl,w,c
  2732  000DDA  6ED9               	movwf	fsr2l,c
  2733  000DDC  0E01               	movlw	high _test_mode_freq_list
  2734  000DDE  20F4               	addwfc	prodh,w,c
  2735  000DE0  6EDA               	movwf	fsr2h,c
  2736  000DE2  CFDE F078          	movff	postinc2,AD5930_write_freq@freq
  2737  000DE6  CFDE F079          	movff	postinc2,AD5930_write_freq@freq+1
  2738  000DEA  CFDE F07A          	movff	postinc2,AD5930_write_freq@freq+2
  2739  000DEE  CFDE F07B          	movff	postinc2,AD5930_write_freq@freq+3
  2740  000DF2  EC7B  F009         	call	_AD5930_write_freq	;wreg free
  2741                           
  2742                           ;main.c: 678: }
  2743                           
  2744                           ;main.c: 677: break;
  2745  000DF6  D00B               	goto	l8561
  2746  000DF8                     l8559:
  2747  000DF8  EC3E  F00E         	call	_get_user_input	;wreg free
  2748                           
  2749                           ; Switch size 1, requested type "space"
  2750                           ; Number of cases is 3, Range of values is 3 to 5
  2751                           ; switch strategies available:
  2752                           ; Name         Instructions Cycles
  2753                           ; simple_byte           10     6 (average)
  2754                           ;	Chosen strategy is simple_byte
  2755  000DFC  0A03               	xorlw	3	; case 3
  2756  000DFE  B4D8               	btfsc	status,2,c
  2757  000E00  D7B1               	goto	l8533
  2758  000E02  0A07               	xorlw	7	; case 4
  2759  000E04  B4D8               	btfsc	status,2,c
  2760  000E06  D7C4               	goto	l8543
  2761  000E08  0A01               	xorlw	1	; case 5
  2762  000E0A  B4D8               	btfsc	status,2,c
  2763  000E0C  D7DA               	goto	l8553
  2764  000E0E                     l8561:
  2765                           
  2766                           ;main.c: 679: temp = test_mode_freq_list[ test_mode_index ] / 100;
  2767  000E0E  0100               	movlb	0	; () banked
  2768  000E10  51F9               	movf	_test_mode_index& (0+255),w,b
  2769  000E12  0D04               	mullw	4
  2770  000E14  0EC1               	movlw	low _test_mode_freq_list
  2771  000E16  24F3               	addwf	prodl,w,c
  2772  000E18  6ED9               	movwf	fsr2l,c
  2773  000E1A  0E01               	movlw	high _test_mode_freq_list
  2774  000E1C  20F4               	addwfc	prodh,w,c
  2775  000E1E  6EDA               	movwf	fsr2h,c
  2776  000E20  CFDE F014          	movff	postinc2,___lldiv@dividend
  2777  000E24  CFDE F015          	movff	postinc2,___lldiv@dividend+1
  2778  000E28  CFDE F016          	movff	postinc2,___lldiv@dividend+2
  2779  000E2C  CFDE F017          	movff	postinc2,___lldiv@dividend+3
  2780  000E30  0E64               	movlw	100
  2781  000E32  6E18               	movwf	___lldiv@divisor,c
  2782  000E34  0E00               	movlw	0
  2783  000E36  6E19               	movwf	___lldiv@divisor+1,c
  2784  000E38  0E00               	movlw	0
  2785  000E3A  6E1A               	movwf	___lldiv@divisor+2,c
  2786  000E3C  0E00               	movlw	0
  2787  000E3E  6E1B               	movwf	___lldiv@divisor+3,c
  2788  000E40  EC91  F010         	call	___lldiv	;wreg free
  2789  000E44  C014  F09D         	movff	?___lldiv,run_test_mode@temp
  2790  000E48  C015  F09E         	movff	?___lldiv+1,run_test_mode@temp+1
  2791                           
  2792                           ;main.c: 680: temp2 = test_mode_freq_list[ test_mode_index ] % 100;
  2793  000E4C  0100               	movlb	0	; () banked
  2794  000E4E  51F9               	movf	_test_mode_index& (0+255),w,b
  2795  000E50  0D04               	mullw	4
  2796  000E52  0EC1               	movlw	low _test_mode_freq_list
  2797  000E54  24F3               	addwf	prodl,w,c
  2798  000E56  6ED9               	movwf	fsr2l,c
  2799  000E58  0E01               	movlw	high _test_mode_freq_list
  2800  000E5A  20F4               	addwfc	prodh,w,c
  2801  000E5C  6EDA               	movwf	fsr2h,c
  2802  000E5E  CFDE F014          	movff	postinc2,___llmod@dividend
  2803  000E62  CFDE F015          	movff	postinc2,___llmod@dividend+1
  2804  000E66  CFDE F016          	movff	postinc2,___llmod@dividend+2
  2805  000E6A  CFDE F017          	movff	postinc2,___llmod@dividend+3
  2806  000E6E  0E64               	movlw	100
  2807  000E70  6E18               	movwf	___llmod@divisor,c
  2808  000E72  0E00               	movlw	0
  2809  000E74  6E19               	movwf	___llmod@divisor+1,c
  2810  000E76  0E00               	movlw	0
  2811  000E78  6E1A               	movwf	___llmod@divisor+2,c
  2812  000E7A  0E00               	movlw	0
  2813  000E7C  6E1B               	movwf	___llmod@divisor+3,c
  2814  000E7E  ECB3  F011         	call	___llmod	;wreg free
  2815  000E82  C014  F0A5         	movff	?___llmod,run_test_mode@temp2
  2816  000E86  C015  F0A6         	movff	?___llmod+1,run_test_mode@temp2+1
  2817                           
  2818                           ;main.c: 681: while (temp2 > 9)
  2819  000E8A  D00E               	goto	l8565
  2820  000E8C                     l8563:
  2821                           
  2822                           ;main.c: 682: {
  2823                           ;main.c: 683: temp2 /= 10;
  2824  000E8C  C0A5  F014         	movff	run_test_mode@temp2,___lwdiv@dividend
  2825  000E90  C0A6  F015         	movff	run_test_mode@temp2+1,___lwdiv@dividend+1
  2826  000E94  0E00               	movlw	0
  2827  000E96  6E17               	movwf	___lwdiv@divisor+1,c
  2828  000E98  0E0A               	movlw	10
  2829  000E9A  6E16               	movwf	___lwdiv@divisor,c
  2830  000E9C  ECBE  F012         	call	___lwdiv	;wreg free
  2831  000EA0  C014  F0A5         	movff	?___lwdiv,run_test_mode@temp2
  2832  000EA4  C015  F0A6         	movff	?___lwdiv+1,run_test_mode@temp2+1
  2833  000EA8                     l8565:
  2834  000EA8  0100               	movlb	0	; () banked
  2835  000EAA  51A6               	movf	(run_test_mode@temp2+1)& (0+255),w,b
  2836  000EAC  E1EF               	bnz	l8563
  2837  000EAE  0E0A               	movlw	10
  2838  000EB0  0100               	movlb	0	; () banked
  2839  000EB2  5DA5               	subwf	run_test_mode@temp2& (0+255),w,b
  2840  000EB4  B0D8               	btfsc	status,0,c
  2841  000EB6  D7EA               	goto	l8563
  2842                           
  2843                           ; BSR set to: 0
  2844                           ;main.c: 684: }
  2845                           ;main.c: 685: sprintf(disp_buff, "#:%6u   F:%4u.%1u", selected_grp_remaining_time_sec, t
      +                          emp, temp2);
  2846                           
  2847                           ; BSR set to: 0
  2848  000EB8  0E88               	movlw	low run_test_mode@disp_buff
  2849  000EBA  6E20               	movwf	sprintf@sp,c
  2850  000EBC  0E00               	movlw	high run_test_mode@disp_buff
  2851  000EBE  6E21               	movwf	sprintf@sp+1,c
  2852  000EC0  0E33               	movlw	low STR_13
  2853  000EC2  6E22               	movwf	sprintf@f,c
  2854  000EC4  0EFF               	movlw	high STR_13
  2855  000EC6  6E23               	movwf	sprintf@f+1,c
  2856  000EC8  C0EE  F024         	movff	_selected_grp_remaining_time_sec,?_sprintf+4
  2857  000ECC  C0EF  F025         	movff	_selected_grp_remaining_time_sec+1,?_sprintf+5
  2858  000ED0  C09D  F026         	movff	run_test_mode@temp,?_sprintf+6
  2859  000ED4  C09E  F027         	movff	run_test_mode@temp+1,?_sprintf+7
  2860  000ED8  C0A5  F028         	movff	run_test_mode@temp2,?_sprintf+8
  2861  000EDC  C0A6  F029         	movff	run_test_mode@temp2+1,?_sprintf+9
  2862  000EE0  ECBF  F007         	call	_sprintf	;wreg free
  2863                           
  2864                           ;main.c: 686: ClrDisplay();
  2865  000EE4  EC40  F016         	call	_ClrDisplay	;wreg free
  2866                           
  2867                           ;main.c: 687: WriteString( disp_buff);
  2868  000EE8  0E88               	movlw	low run_test_mode@disp_buff
  2869  000EEA  6E16               	movwf	WriteString@string,c
  2870  000EEC  0E00               	movlw	high run_test_mode@disp_buff
  2871  000EEE  6E17               	movwf	WriteString@string+1,c
  2872  000EF0  EC94  F012         	call	_WriteString	;wreg free
  2873                           
  2874                           ;main.c: 688: if (sysMode == mPLAY)
  2875  000EF4  0E02               	movlw	2
  2876  000EF6  1849               	xorwf	_sysMode,w,c
  2877  000EF8  A4D8               	btfss	status,2,c
  2878  000EFA  D035               	goto	l8589
  2879                           
  2880                           ;main.c: 689: {
  2881                           ;main.c: 690: do { LATAbits.LATA2 = 1; } while(0);
  2882  000EFC  8489               	bsf	3977,2,c	;volatile
  2883                           
  2884                           ;main.c: 695: if(selected_grp_remaining_time_sec == 0)
  2885  000EFE  0100               	movlb	0	; () banked
  2886  000F00  51EE               	movf	_selected_grp_remaining_time_sec& (0+255),w,b
  2887  000F02  0100               	movlb	0	; () banked
  2888  000F04  11EF               	iorwf	(_selected_grp_remaining_time_sec+1)& (0+255),w,b
  2889  000F06  A4D8               	btfss	status,2,c
  2890  000F08  0012               	return	
  2891                           
  2892                           ; BSR set to: 0
  2893                           ;main.c: 696: {
  2894                           ;main.c: 697: test_mode_index = ( test_mode_index < 8 ? test_mode_index + 1 : 0);
  2895  000F0A  0E07               	movlw	7
  2896  000F0C  0100               	movlb	0	; () banked
  2897  000F0E  65F9               	cpfsgt	_test_mode_index& (0+255),b
  2898  000F10  D006               	goto	l8581
  2899                           
  2900                           ; BSR set to: 0
  2901  000F12  0E00               	movlw	0
  2902  000F14  0100               	movlb	0	; () banked
  2903  000F16  6FA4               	movwf	(_run_test_mode$2390+1)& (0+255),b
  2904  000F18  0E00               	movlw	0
  2905  000F1A  6FA3               	movwf	_run_test_mode$2390& (0+255),b
  2906  000F1C  D009               	goto	l8583
  2907  000F1E                     l8581:
  2908                           
  2909                           ; BSR set to: 0
  2910  000F1E  0E01               	movlw	1
  2911  000F20  0100               	movlb	0	; () banked
  2912  000F22  25F9               	addwf	_test_mode_index& (0+255),w,b
  2913  000F24  0100               	movlb	0	; () banked
  2914  000F26  6FA3               	movwf	_run_test_mode$2390& (0+255),b
  2915  000F28  0100               	movlb	0	; () banked
  2916  000F2A  6BA4               	clrf	(_run_test_mode$2390+1)& (0+255),b
  2917  000F2C  0E00               	movlw	0
  2918  000F2E  23A4               	addwfc	(_run_test_mode$2390+1)& (0+255),f,b
  2919  000F30                     l8583:
  2920                           
  2921                           ; BSR set to: 0
  2922  000F30  C0A3  F0F9         	movff	_run_test_mode$2390,_test_mode_index
  2923                           
  2924                           ; BSR set to: 0
  2925                           ;main.c: 698: selected_grp_remaining_time_sec = 180;
  2926  000F34  0E00               	movlw	0
  2927  000F36  0100               	movlb	0	; () banked
  2928  000F38  6FEF               	movwf	(_selected_grp_remaining_time_sec+1)& (0+255),b
  2929  000F3A  0EB4               	movlw	180
  2930  000F3C  6FEE               	movwf	_selected_grp_remaining_time_sec& (0+255),b
  2931                           
  2932                           ; BSR set to: 0
  2933                           ;main.c: 699: AD5930_write_freq( test_mode_freq_list[ test_mode_index ] );
  2934  000F3E  0100               	movlb	0	; () banked
  2935  000F40  51F9               	movf	_test_mode_index& (0+255),w,b
  2936  000F42  0D04               	mullw	4
  2937  000F44  0EC1               	movlw	low _test_mode_freq_list
  2938  000F46  24F3               	addwf	prodl,w,c
  2939  000F48  6ED9               	movwf	fsr2l,c
  2940  000F4A  0E01               	movlw	high _test_mode_freq_list
  2941  000F4C  20F4               	addwfc	prodh,w,c
  2942  000F4E  6EDA               	movwf	fsr2h,c
  2943  000F50  CFDE F078          	movff	postinc2,AD5930_write_freq@freq
  2944  000F54  CFDE F079          	movff	postinc2,AD5930_write_freq@freq+1
  2945  000F58  CFDE F07A          	movff	postinc2,AD5930_write_freq@freq+2
  2946  000F5C  CFDE F07B          	movff	postinc2,AD5930_write_freq@freq+3
  2947  000F60  EC7B  F009         	call	_AD5930_write_freq	;wreg free
  2948                           
  2949                           ;main.c: 700: }
  2950                           ;main.c: 701: }
  2951  000F64  0012               	return	
  2952  000F66                     l8589:
  2953                           
  2954                           ;main.c: 702: else if (sysMode == mSTOP)
  2955  000F66  5049               	movf	_sysMode,w,c
  2956  000F68  A4D8               	btfss	status,2,c
  2957  000F6A  0012               	return	
  2958                           
  2959                           ;main.c: 703: {
  2960                           ;main.c: 704: selected_grp_remaining_time_sec = 0;
  2961  000F6C  0E00               	movlw	0
  2962  000F6E  0100               	movlb	0	; () banked
  2963  000F70  6FEF               	movwf	(_selected_grp_remaining_time_sec+1)& (0+255),b
  2964  000F72  0E00               	movlw	0
  2965  000F74  6FEE               	movwf	_selected_grp_remaining_time_sec& (0+255),b
  2966                           
  2967                           ; BSR set to: 0
  2968                           ;main.c: 705: AD5930_shutdown();
  2969  000F76  EC74  F014         	call	_AD5930_shutdown	;wreg free
  2970                           
  2971                           ;main.c: 706: do { LATAbits.LATA2 = 0; } while(0);
  2972  000F7A  9489               	bcf	3977,2,c	;volatile
  2973  000F7C  0012               	return	
  2974  000F7E                     __end_of_run_test_mode:
  2975                           	opt stack 0
  2976                           tblptru	equ	0xFF8
  2977                           tblptrh	equ	0xFF7
  2978                           tblptrl	equ	0xFF6
  2979                           tablat	equ	0xFF5
  2980                           prodh	equ	0xFF4
  2981                           prodl	equ	0xFF3
  2982                           intcon	equ	0xFF2
  2983                           postinc0	equ	0xFEE
  2984                           wreg	equ	0xFE8
  2985                           indf1	equ	0xFE7
  2986                           postinc1	equ	0xFE6
  2987                           postdec1	equ	0xFE5
  2988                           fsr1h	equ	0xFE2
  2989                           fsr1l	equ	0xFE1
  2990                           indf2	equ	0xFDF
  2991                           postinc2	equ	0xFDE
  2992                           fsr2h	equ	0xFDA
  2993                           fsr2l	equ	0xFD9
  2994                           status	equ	0xFD8
  2995                           
  2996 ;; *************** function _get_user_input *****************
  2997 ;; Defined at:
  2998 ;;		line 417 in file "main.c"
  2999 ;; Parameters:    Size  Location     Type
  3000 ;;		None
  3001 ;; Auto vars:     Size  Location     Type
  3002 ;;		None
  3003 ;; Return value:  Size  Location     Type
  3004 ;;                  1    wreg      enum E8170
  3005 ;; Registers used:
  3006 ;;		wreg, fsr1l, fsr1h, fsr2l, fsr2h, status,2, status,0, cstack
  3007 ;; Tracked objects:
  3008 ;;		On entry : 0/0
  3009 ;;		On exit  : 0/0
  3010 ;;		Unchanged: 0/0
  3011 ;; Data sizes:     COMRAM   BANK0   BANK1   BANK2   BANK3   BANK4   BANK5   BANK6   BANK7   BANK8   BANK9  BANK10  BANK1
      +1  BANK12  BANK13  BANK14  BANK15
  3012 ;;      Params:         0       0       0       0       0       0       0       0       0       0       0       0       
      +0       0       0       0       0
  3013 ;;      Locals:         0       0       0       0       0       0       0       0       0       0       0       0       
      +0       0       0       0       0
  3014 ;;      Temps:          0       0       0       0       0       0       0       0       0       0       0       0       
      +0       0       0       0       0
  3015 ;;      Totals:         0       0       0       0       0       0       0       0       0       0       0       0       
      +0       0       0       0       0
  3016 ;;Total ram usage:        0 bytes
  3017 ;; Hardware stack levels used:    1
  3018 ;; Hardware stack levels required when called:    5
  3019 ;; This function calls:
  3020 ;;		_ButtonPressed
  3021 ;; This function is called by:
  3022 ;;		_main
  3023 ;;		_run_test_mode
  3024 ;; This function uses a non-reentrant model
  3025 ;;
  3026                           
  3027                           	psect	text6
  3028  001C7C                     __ptext6:
  3029                           	opt stack 0
  3030  001C7C                     _get_user_input:
  3031                           	opt stack 24
  3032                           
  3033                           ;main.c: 419: if( ButtonPressed( &key_stop))
  3034                           
  3035                           ;incstack = 0
  3036  001C7C  0EB7               	movlw	low _key_stop
  3037  001C7E  6E14               	movwf	ButtonPressed@pin,c
  3038  001C80  0E01               	movlw	high _key_stop
  3039  001C82  6E15               	movwf	ButtonPressed@pin+1,c
  3040  001C84  EC5D  F015         	call	_ButtonPressed	;wreg free
  3041  001C88  0900               	iorlw	0
  3042  001C8A  B4D8               	btfsc	status,2,c
  3043  001C8C  D002               	goto	l8017
  3044                           
  3045                           ;main.c: 420: {
  3046                           ;main.c: 421: sysMode = mSTOP;
  3047  001C8E  0E00               	movlw	0
  3048  001C90  6E49               	movwf	_sysMode,c
  3049  001C92                     l8017:
  3050                           
  3051                           ;main.c: 422: }
  3052                           ;main.c: 423: if( ButtonPressed( &key_pause))
  3053  001C92  0EA3               	movlw	low _key_pause
  3054  001C94  6E14               	movwf	ButtonPressed@pin,c
  3055  001C96  0E01               	movlw	high _key_pause
  3056  001C98  6E15               	movwf	ButtonPressed@pin+1,c
  3057  001C9A  EC5D  F015         	call	_ButtonPressed	;wreg free
  3058  001C9E  0900               	iorlw	0
  3059  001CA0  B4D8               	btfsc	status,2,c
  3060  001CA2  D008               	goto	l8025
  3061                           
  3062                           ;main.c: 424: {
  3063                           ;main.c: 425: if( sysMode == mPLAY)
  3064  001CA4  0E02               	movlw	2
  3065  001CA6  1849               	xorwf	_sysMode,w,c
  3066  001CA8  A4D8               	btfss	status,2,c
  3067  001CAA  D002               	goto	l8023
  3068                           
  3069                           ;main.c: 426: sysMode = mPAUSE;
  3070  001CAC  0E01               	movlw	1
  3071  001CAE  D001               	goto	L2
  3072  001CB0                     l8023:
  3073                           
  3074                           ;main.c: 427: else
  3075                           ;main.c: 428: sysMode = mPLAY;
  3076  001CB0  0E02               	movlw	2
  3077  001CB2                     L2:
  3078  001CB2  6E49               	movwf	_sysMode,c
  3079  001CB4                     l8025:
  3080                           
  3081                           ;main.c: 429: }
  3082                           ;main.c: 431: if( ButtonPressed( &key_up ) )
  3083  001CB4  0EBC               	movlw	low _key_up
  3084  001CB6  6E14               	movwf	ButtonPressed@pin,c
  3085  001CB8  0E01               	movlw	high _key_up
  3086  001CBA  6E15               	movwf	ButtonPressed@pin+1,c
  3087  001CBC  EC5D  F015         	call	_ButtonPressed	;wreg free
  3088  001CC0  0900               	iorlw	0
  3089  001CC2  B4D8               	btfsc	status,2,c
  3090  001CC4  D002               	goto	l8033
  3091                           
  3092                           ;main.c: 432: {
  3093                           ;main.c: 433: return eKEY_UP;
  3094  001CC6  0E01               	movlw	1
  3095  001CC8  0012               	return	
  3096  001CCA                     l8033:
  3097                           
  3098                           ;main.c: 435: else if( ButtonPressed( &key_down ) )
  3099  001CCA  0E99               	movlw	low _key_down
  3100  001CCC  6E14               	movwf	ButtonPressed@pin,c
  3101  001CCE  0E01               	movlw	high _key_down
  3102  001CD0  6E15               	movwf	ButtonPressed@pin+1,c
  3103  001CD2  EC5D  F015         	call	_ButtonPressed	;wreg free
  3104  001CD6  0900               	iorlw	0
  3105  001CD8  B4D8               	btfsc	status,2,c
  3106  001CDA  D002               	goto	l8041
  3107                           
  3108                           ;main.c: 436: {
  3109                           ;main.c: 437: return eKEY_DOWN;
  3110  001CDC  0E02               	movlw	2
  3111  001CDE  0012               	return	
  3112  001CE0                     l8041:
  3113                           
  3114                           ;main.c: 439: else if( ButtonPressed( &key_left ) )
  3115  001CE0  0E9E               	movlw	low _key_left
  3116  001CE2  6E14               	movwf	ButtonPressed@pin,c
  3117  001CE4  0E01               	movlw	high _key_left
  3118  001CE6  6E15               	movwf	ButtonPressed@pin+1,c
  3119  001CE8  EC5D  F015         	call	_ButtonPressed	;wreg free
  3120  001CEC  0900               	iorlw	0
  3121  001CEE  B4D8               	btfsc	status,2,c
  3122  001CF0  D002               	goto	l8049
  3123                           
  3124                           ;main.c: 440: {
  3125                           ;main.c: 441: return eKEY_LEFT;
  3126  001CF2  0E04               	movlw	4
  3127  001CF4  0012               	return	
  3128  001CF6                     l8049:
  3129                           
  3130                           ;main.c: 443: else if( ButtonPressed( &key_right ) )
  3131  001CF6  0EAD               	movlw	low _key_right
  3132  001CF8  6E14               	movwf	ButtonPressed@pin,c
  3133  001CFA  0E01               	movlw	high _key_right
  3134  001CFC  6E15               	movwf	ButtonPressed@pin+1,c
  3135  001CFE  EC5D  F015         	call	_ButtonPressed	;wreg free
  3136  001D02  0900               	iorlw	0
  3137  001D04  B4D8               	btfsc	status,2,c
  3138  001D06  D002               	goto	l8057
  3139                           
  3140                           ;main.c: 444: {
  3141                           ;main.c: 445: return eKEY_RIGHT;
  3142  001D08  0E03               	movlw	3
  3143  001D0A  0012               	return	
  3144  001D0C                     l8057:
  3145                           
  3146                           ;main.c: 447: else if( ButtonPressed( &key_sel ) )
  3147  001D0C  0EB2               	movlw	low _key_sel
  3148  001D0E  6E14               	movwf	ButtonPressed@pin,c
  3149  001D10  0E01               	movlw	high _key_sel
  3150  001D12  6E15               	movwf	ButtonPressed@pin+1,c
  3151  001D14  EC5D  F015         	call	_ButtonPressed	;wreg free
  3152  001D18  0900               	iorlw	0
  3153  001D1A  B4D8               	btfsc	status,2,c
  3154  001D1C  D002               	goto	l8063
  3155                           
  3156                           ;main.c: 448: {
  3157                           ;main.c: 449: return eKEY_SELECT;
  3158  001D1E  0E05               	movlw	5
  3159  001D20  0012               	return	
  3160  001D22                     l8063:
  3161                           
  3162                           ;main.c: 450: }
  3163                           ;main.c: 451: return eKEY_NONE;
  3164  001D22  0E00               	movlw	0
  3165  001D24  0012               	return	
  3166  001D26                     __end_of_get_user_input:
  3167                           	opt stack 0
  3168                           tblptru	equ	0xFF8
  3169                           tblptrh	equ	0xFF7
  3170                           tblptrl	equ	0xFF6
  3171                           tablat	equ	0xFF5
  3172                           prodh	equ	0xFF4
  3173                           prodl	equ	0xFF3
  3174                           intcon	equ	0xFF2
  3175                           postinc0	equ	0xFEE
  3176                           wreg	equ	0xFE8
  3177                           indf1	equ	0xFE7
  3178                           postinc1	equ	0xFE6
  3179                           postdec1	equ	0xFE5
  3180                           fsr1h	equ	0xFE2
  3181                           fsr1l	equ	0xFE1
  3182                           indf2	equ	0xFDF
  3183                           postinc2	equ	0xFDE
  3184                           fsr2h	equ	0xFDA
  3185                           fsr2l	equ	0xFD9
  3186                           status	equ	0xFD8
  3187                           
  3188 ;; *************** function _ButtonPressed *****************
  3189 ;; Defined at:
  3190 ;;		line 117 in file "Source/user_debounce.c"
  3191 ;; Parameters:    Size  Location     Type
  3192 ;;  pin             2   19[COMRAM] PTR struct .
  3193 ;;		 -> key_stop(5), key_pause(5), key_sel(5), key_right(5), 
  3194 ;;		 -> key_left(5), key_down(5), key_up(5), 
  3195 ;; Auto vars:     Size  Location     Type
  3196 ;;		None
  3197 ;; Return value:  Size  Location     Type
  3198 ;;                  1    wreg      unsigned char 
  3199 ;; Registers used:
  3200 ;;		wreg, fsr1l, fsr1h, fsr2l, fsr2h, status,2, status,0
  3201 ;; Tracked objects:
  3202 ;;		On entry : 0/0
  3203 ;;		On exit  : 0/0
  3204 ;;		Unchanged: 0/0
  3205 ;; Data sizes:     COMRAM   BANK0   BANK1   BANK2   BANK3   BANK4   BANK5   BANK6   BANK7   BANK8   BANK9  BANK10  BANK1
      +1  BANK12  BANK13  BANK14  BANK15
  3206 ;;      Params:         2       0       0       0       0       0       0       0       0       0       0       0       
      +0       0       0       0       0
  3207 ;;      Locals:         0       0       0       0       0       0       0       0       0       0       0       0       
      +0       0       0       0       0
  3208 ;;      Temps:          2       0       0       0       0       0       0       0       0       0       0       0       
      +0       0       0       0       0
  3209 ;;      Totals:         4       0       0       0       0       0       0       0       0       0       0       0       
      +0       0       0       0       0
  3210 ;;Total ram usage:        4 bytes
  3211 ;; Hardware stack levels used:    1
  3212 ;; Hardware stack levels required when called:    4
  3213 ;; This function calls:
  3214 ;;		Nothing
  3215 ;; This function is called by:
  3216 ;;		_get_user_input
  3217 ;; This function uses a non-reentrant model
  3218 ;;
  3219                           
  3220                           	psect	text7
  3221  002ABA                     __ptext7:
  3222                           	opt stack 0
  3223  002ABA                     _ButtonPressed:
  3224                           	opt stack 24
  3225                           
  3226                           ;user_debounce.c: 119: return( !(pin->debouncedState == pin->inActiveState));
  3227                           
  3228                           ;incstack = 0
  3229  002ABA  EE20 F004          	lfsr	2,4
  3230  002ABE  5014               	movf	ButtonPressed@pin,w,c
  3231  002AC0  26D9               	addwf	fsr2l,f,c
  3232  002AC2  5015               	movf	ButtonPressed@pin+1,w,c
  3233  002AC4  22DA               	addwfc	fsr2h,f,c
  3234  002AC6  EE10 F001          	lfsr	1,1
  3235  002ACA  5014               	movf	ButtonPressed@pin,w,c
  3236  002ACC  26E1               	addwf	fsr1l,f,c
  3237  002ACE  5015               	movf	ButtonPressed@pin+1,w,c
  3238  002AD0  22E2               	addwfc	fsr1h,f,c
  3239  002AD2  50DE               	movf	postinc2,w,c
  3240  002AD4  18E6               	xorwf	postinc1,w,c
  3241  002AD6  B4D8               	btfsc	status,2,c
  3242  002AD8  D002               	goto	u7070
  3243  002ADA  0E01               	movlw	1
  3244  002ADC  0012               	return	
  3245  002ADE                     u7070:
  3246  002ADE  0E00               	movlw	0
  3247  002AE0  0012               	return	
  3248  002AE2                     __end_of_ButtonPressed:
  3249                           	opt stack 0
  3250                           tblptru	equ	0xFF8
  3251                           tblptrh	equ	0xFF7
  3252                           tblptrl	equ	0xFF6
  3253                           tablat	equ	0xFF5
  3254                           prodh	equ	0xFF4
  3255                           prodl	equ	0xFF3
  3256                           intcon	equ	0xFF2
  3257                           postinc0	equ	0xFEE
  3258                           wreg	equ	0xFE8
  3259                           indf1	equ	0xFE7
  3260                           postinc1	equ	0xFE6
  3261                           postdec1	equ	0xFE5
  3262                           fsr1h	equ	0xFE2
  3263                           fsr1l	equ	0xFE1
  3264                           indf2	equ	0xFDF
  3265                           postinc2	equ	0xFDE
  3266                           fsr2h	equ	0xFDA
  3267                           fsr2l	equ	0xFD9
  3268                           status	equ	0xFD8
  3269                           
  3270 ;; *************** function _WriteString *****************
  3271 ;; Defined at:
  3272 ;;		line 129 in file "Source/lcd_8bit.c"
  3273 ;; Parameters:    Size  Location     Type
  3274 ;;  string          2   21[COMRAM] PTR unsigned char 
  3275 ;;		 -> run_test_mode@disp_buff(21), STR_3(12), STR_2(15), STR_1(13), 
  3276 ;; Auto vars:     Size  Location     Type
  3277 ;;		None
  3278 ;; Return value:  Size  Location     Type
  3279 ;;                  1    wreg      void 
  3280 ;; Registers used:
  3281 ;;		wreg, fsr0l, fsr0h, status,2, status,0, tblptrl, tblptrh, tblptru, cstack
  3282 ;; Tracked objects:
  3283 ;;		On entry : 0/0
  3284 ;;		On exit  : 0/0
  3285 ;;		Unchanged: 0/0
  3286 ;; Data sizes:     COMRAM   BANK0   BANK1   BANK2   BANK3   BANK4   BANK5   BANK6   BANK7   BANK8   BANK9  BANK10  BANK1
      +1  BANK12  BANK13  BANK14  BANK15
  3287 ;;      Params:         2       0       0       0       0       0       0       0       0       0       0       0       
      +0       0       0       0       0
  3288 ;;      Locals:         0       0       0       0       0       0       0       0       0       0       0       0       
      +0       0       0       0       0
  3289 ;;      Temps:          0       0       0       0       0       0       0       0       0       0       0       0       
      +0       0       0       0       0
  3290 ;;      Totals:         2       0       0       0       0       0       0       0       0       0       0       0       
      +0       0       0       0       0
  3291 ;;Total ram usage:        2 bytes
  3292 ;; Hardware stack levels used:    1
  3293 ;; Hardware stack levels required when called:    6
  3294 ;; This function calls:
  3295 ;;		_WriteData
  3296 ;; This function is called by:
  3297 ;;		_main
  3298 ;;		_run_test_mode
  3299 ;; This function uses a non-reentrant model
  3300 ;;
  3301                           
  3302                           	psect	text8
  3303  002528                     __ptext8:
  3304                           	opt stack 0
  3305  002528                     _WriteString:
  3306                           	opt stack 23
  3307  002528                     
  3308                           ;lcd_8bit.c: 132: {
  3309                           ;lcd_8bit.c: 133: WriteData((uint8_t)*string++);
  3310  002528  C016  FFF6         	movff	WriteString@string,tblptrl
  3311  00252C  C017  FFF7         	movff	WriteString@string+1,tblptrh
  3312  002530  0E00               	movlw	low (__mediumconst shr (0+16))
  3313  002532  6EF8               	movwf	tblptru,c
  3314  002534  0E0F               	movlw	(high __ramtop+-1)
  3315  002536  64F7               	cpfsgt	tblptrh,c
  3316  002538  D003               	bra	u7737
  3317  00253A  0008               	tblrd		*
  3318  00253C  50F5               	movf	tablat,w,c
  3319  00253E  D005               	bra	u7730
  3320  002540                     u7737:
  3321  002540  CFF6 FFE9          	movff	tblptrl,fsr0l
  3322  002544  CFF7 FFEA          	movff	tblptrh,fsr0h
  3323  002548  50EF               	movf	indf0,w,c
  3324  00254A                     u7730:
  3325  00254A  ECD3  F00B         	call	_WriteData
  3326  00254E  4A16               	infsnz	WriteString@string,f,c
  3327  002550  2A17               	incf	WriteString@string+1,f,c
  3328                           
  3329                           ;lcd_8bit.c: 134: }
  3330                           ;lcd_8bit.c: 135: while(*string);
  3331  002552  C016  FFF6         	movff	WriteString@string,tblptrl
  3332  002556  C017  FFF7         	movff	WriteString@string+1,tblptrh
  3333  00255A  0E00               	movlw	low (__mediumconst shr (0+16))
  3334  00255C  6EF8               	movwf	tblptru,c
  3335  00255E  0E0F               	movlw	(high __ramtop+-1)
  3336  002560  64F7               	cpfsgt	tblptrh,c
  3337  002562  D003               	bra	u7747
  3338  002564  0008               	tblrd		*
  3339  002566  50F5               	movf	tablat,w,c
  3340  002568  D005               	bra	u7740
  3341  00256A                     u7747:
  3342  00256A  CFF6 FFE9          	movff	tblptrl,fsr0l
  3343  00256E  CFF7 FFEA          	movff	tblptrh,fsr0h
  3344  002572  50EF               	movf	indf0,w,c
  3345  002574                     u7740:
  3346  002574  0900               	iorlw	0
  3347  002576  B4D8               	btfsc	status,2,c
  3348  002578  0012               	return	
  3349  00257A  D7D6               	goto	l8007
  3350  00257C                     __end_of_WriteString:
  3351                           	opt stack 0
  3352                           tblptru	equ	0xFF8
  3353                           tblptrh	equ	0xFF7
  3354                           tblptrl	equ	0xFF6
  3355                           tablat	equ	0xFF5
  3356                           prodh	equ	0xFF4
  3357                           prodl	equ	0xFF3
  3358                           intcon	equ	0xFF2
  3359                           indf0	equ	0xFEF
  3360                           postinc0	equ	0xFEE
  3361                           fsr0h	equ	0xFEA
  3362                           fsr0l	equ	0xFE9
  3363                           wreg	equ	0xFE8
  3364                           indf1	equ	0xFE7
  3365                           postinc1	equ	0xFE6
  3366                           postdec1	equ	0xFE5
  3367                           fsr1h	equ	0xFE2
  3368                           fsr1l	equ	0xFE1
  3369                           indf2	equ	0xFDF
  3370                           postinc2	equ	0xFDE
  3371                           fsr2h	equ	0xFDA
  3372                           fsr2l	equ	0xFD9
  3373                           status	equ	0xFD8
  3374                           
  3375 ;; *************** function _AD5930_write_freq *****************
  3376 ;; Defined at:
  3377 ;;		line 126 in file "Source/AD5930.c"
  3378 ;; Parameters:    Size  Location     Type
  3379 ;;  freq            4   24[BANK0 ] unsigned long 
  3380 ;; Auto vars:     Size  Location     Type
  3381 ;;  data            4   34[BANK0 ] unsigned long 
  3382 ;;  reg             2   38[BANK0 ] struct .
  3383 ;; Return value:  Size  Location     Type
  3384 ;;                  1    wreg      void 
  3385 ;; Registers used:
  3386 ;;		wreg, status,2, status,0, cstack
  3387 ;; Tracked objects:
  3388 ;;		On entry : 0/0
  3389 ;;		On exit  : 0/0
  3390 ;;		Unchanged: 0/0
  3391 ;; Data sizes:     COMRAM   BANK0   BANK1   BANK2   BANK3   BANK4   BANK5   BANK6   BANK7   BANK8   BANK9  BANK10  BANK1
      +1  BANK12  BANK13  BANK14  BANK15
  3392 ;;      Params:         0       4       0       0       0       0       0       0       0       0       0       0       
      +0       0       0       0       0
  3393 ;;      Locals:         0       6       0       0       0       0       0       0       0       0       0       0       
      +0       0       0       0       0
  3394 ;;      Temps:          0       6       0       0       0       0       0       0       0       0       0       0       
      +0       0       0       0       0
  3395 ;;      Totals:         0      16       0       0       0       0       0       0       0       0       0       0       
      +0       0       0       0       0
  3396 ;;Total ram usage:       16 bytes
  3397 ;; Hardware stack levels used:    1
  3398 ;; Hardware stack levels required when called:    6
  3399 ;; This function calls:
  3400 ;;		_AD5930_write_def_control
  3401 ;;		_SPI1_Exchange8bit
  3402 ;;		___ftadd
  3403 ;;		___ftmul
  3404 ;;		___fttol
  3405 ;;		___lltoft
  3406 ;; This function is called by:
  3407 ;;		_run_test_mode
  3408 ;; This function uses a non-reentrant model
  3409 ;;
  3410                           
  3411                           	psect	text9
  3412  0012F6                     __ptext9:
  3413                           	opt stack 0
  3414  0012F6                     _AD5930_write_freq:
  3415                           	opt stack 23
  3416                           
  3417                           ;AD5930.c: 128: AD5930_Reg_t reg = {0};
  3418                           
  3419                           ;incstack = 0
  3420  0012F6  C0D6  F086         	movff	AD5930_write_freq@F7981,AD5930_write_freq@reg
  3421  0012FA  C0D7  F087         	movff	AD5930_write_freq@F7981+1,AD5930_write_freq@reg+1
  3422                           
  3423                           ;AD5930.c: 129: uint32_t data = 0;
  3424  0012FE  0E00               	movlw	0
  3425  001300  0100               	movlb	0	; () banked
  3426  001302  6F82               	movwf	AD5930_write_freq@data& (0+255),b
  3427  001304  0E00               	movlw	0
  3428  001306  6F83               	movwf	(AD5930_write_freq@data+1)& (0+255),b
  3429  001308  0E00               	movlw	0
  3430  00130A  6F84               	movwf	(AD5930_write_freq@data+2)& (0+255),b
  3431  00130C  0E00               	movlw	0
  3432  00130E  6F85               	movwf	(AD5930_write_freq@data+3)& (0+255),b
  3433                           
  3434                           ; BSR set to: 0
  3435                           ;AD5930.c: 131: AD5930_write_def_control();
  3436  001310  EC56  F014         	call	_AD5930_write_def_control	;wreg free
  3437                           
  3438                           ;AD5930.c: 138: data = (( 0.3353 *(float)freq) - 0.1818);
  3439  001314  0E2A               	movlw	42
  3440  001316  0100               	movlb	0	; () banked
  3441  001318  6F63               	movwf	___ftadd@f2& (0+255),b
  3442  00131A  0E3A               	movlw	58
  3443  00131C  0100               	movlb	0	; () banked
  3444  00131E  6F64               	movwf	(___ftadd@f2+1)& (0+255),b
  3445  001320  0EBE               	movlw	190
  3446  001322  0100               	movlb	0	; () banked
  3447  001324  6F65               	movwf	(___ftadd@f2+2)& (0+255),b
  3448  001326  0EAC               	movlw	172
  3449  001328  6E28               	movwf	___ftmul@f2,c
  3450  00132A  0EAB               	movlw	171
  3451  00132C  6E29               	movwf	___ftmul@f2+1,c
  3452  00132E  0E3E               	movlw	62
  3453  001330  6E2A               	movwf	___ftmul@f2+2,c
  3454  001332  C078  F01C         	movff	AD5930_write_freq@freq,___lltoft@c
  3455  001336  C079  F01D         	movff	AD5930_write_freq@freq+1,___lltoft@c+1
  3456  00133A  C07A  F01E         	movff	AD5930_write_freq@freq+2,___lltoft@c+2
  3457  00133E  C07B  F01F         	movff	AD5930_write_freq@freq+3,___lltoft@c+3
  3458  001342  ECE6  F011         	call	___lltoft	;wreg free
  3459  001346  C01C  F025         	movff	?___lltoft,___ftmul@f1
  3460  00134A  C01D  F026         	movff	?___lltoft+1,___ftmul@f1+1
  3461  00134E  C01E  F027         	movff	?___lltoft+2,___ftmul@f1+2
  3462  001352  EC59  F00B         	call	___ftmul	;wreg free
  3463  001356  C025  F060         	movff	?___ftmul,___ftadd@f1
  3464  00135A  C026  F061         	movff	?___ftmul+1,___ftadd@f1+1
  3465  00135E  C027  F062         	movff	?___ftmul+2,___ftadd@f1+2
  3466  001362  EC7F  F005         	call	___ftadd	;wreg free
  3467  001366  C060  F069         	movff	?___ftadd,___fttol@f1
  3468  00136A  C061  F06A         	movff	?___ftadd+1,___fttol@f1+1
  3469  00136E  C062  F06B         	movff	?___ftadd+2,___fttol@f1+2
  3470  001372  EC26  F00A         	call	___fttol	;wreg free
  3471  001376  C069  F082         	movff	?___fttol,AD5930_write_freq@data
  3472  00137A  C06A  F083         	movff	?___fttol+1,AD5930_write_freq@data+1
  3473  00137E  C06B  F084         	movff	?___fttol+2,AD5930_write_freq@data+2
  3474  001382  C06C  F085         	movff	?___fttol+3,AD5930_write_freq@data+3
  3475                           
  3476                           ;AD5930.c: 142: do { LATCbits.LATC2 = 0; } while(0);
  3477  001386  948B               	bcf	3979,2,c	;volatile
  3478                           
  3479                           ;AD5930.c: 143: reg.word = 12UL << 12UL;
  3480  001388  0EC0               	movlw	192
  3481  00138A  0100               	movlb	0	; () banked
  3482  00138C  6F87               	movwf	(AD5930_write_freq@reg+1)& (0+255),b
  3483  00138E  0E00               	movlw	0
  3484  001390  6F86               	movwf	AD5930_write_freq@reg& (0+255),b
  3485                           
  3486                           ; BSR set to: 0
  3487                           ;AD5930.c: 144: reg.word |= (data & 0xFFF);
  3488  001392  0EFF               	movlw	255
  3489  001394  0100               	movlb	0	; () banked
  3490  001396  6F7C               	movwf	??_AD5930_write_freq& (0+255),b
  3491  001398  0E0F               	movlw	15
  3492  00139A  0100               	movlb	0	; () banked
  3493  00139C  6F7D               	movwf	(??_AD5930_write_freq+1)& (0+255),b
  3494  00139E  C082  F07E         	movff	AD5930_write_freq@data,??_AD5930_write_freq+2
  3495  0013A2  C083  F07F         	movff	AD5930_write_freq@data+1,??_AD5930_write_freq+3
  3496  0013A6  0100               	movlb	0	; () banked
  3497  0013A8  517C               	movf	??_AD5930_write_freq& (0+255),w,b
  3498  0013AA  0100               	movlb	0	; () banked
  3499  0013AC  177E               	andwf	(??_AD5930_write_freq+2)& (0+255),f,b
  3500  0013AE  0100               	movlb	0	; () banked
  3501  0013B0  517D               	movf	(??_AD5930_write_freq+1)& (0+255),w,b
  3502  0013B2  0100               	movlb	0	; () banked
  3503  0013B4  177F               	andwf	(??_AD5930_write_freq+3)& (0+255),f,b
  3504  0013B6  0100               	movlb	0	; () banked
  3505  0013B8  517E               	movf	(??_AD5930_write_freq+2)& (0+255),w,b
  3506  0013BA  0100               	movlb	0	; () banked
  3507  0013BC  1386               	iorwf	AD5930_write_freq@reg& (0+255),f,b
  3508  0013BE  0100               	movlb	0	; () banked
  3509  0013C0  517F               	movf	(??_AD5930_write_freq+3)& (0+255),w,b
  3510  0013C2  0100               	movlb	0	; () banked
  3511  0013C4  1387               	iorwf	(AD5930_write_freq@reg+1)& (0+255),f,b
  3512                           
  3513                           ; BSR set to: 0
  3514                           
  3515                           ; BSR set to: 0
  3516                           
  3517                           ;AD5930.c: 147: do { LATCbits.LATC0 = 0; } while(0);
  3518  0013C6  908B               	bcf	3979,0,c	;volatile
  3519                           
  3520                           ; BSR set to: 0
  3521                           ;AD5930.c: 148: SPI1_Exchange8bit(reg.register_bytes[1]);
  3522                           
  3523                           ; BSR set to: 0
  3524  0013C8  0100               	movlb	0	; () banked
  3525  0013CA  5187               	movf	(AD5930_write_freq@reg+1)& (0+255),w,b
  3526  0013CC  EC31  F016         	call	_SPI1_Exchange8bit
  3527                           
  3528                           ;AD5930.c: 149: SPI1_Exchange8bit(reg.register_bytes[0]);
  3529  0013D0  0100               	movlb	0	; () banked
  3530  0013D2  5186               	movf	AD5930_write_freq@reg& (0+255),w,b
  3531  0013D4  EC31  F016         	call	_SPI1_Exchange8bit
  3532                           
  3533                           ;AD5930.c: 150: do { LATCbits.LATC0 = 1; } while(0);
  3534  0013D8  808B               	bsf	3979,0,c	;volatile
  3535                           
  3536                           ;AD5930.c: 151: reg.word = 13UL << 12UL;
  3537  0013DA  0ED0               	movlw	208
  3538  0013DC  0100               	movlb	0	; () banked
  3539  0013DE  6F87               	movwf	(AD5930_write_freq@reg+1)& (0+255),b
  3540  0013E0  0E00               	movlw	0
  3541  0013E2  6F86               	movwf	AD5930_write_freq@reg& (0+255),b
  3542                           
  3543                           ; BSR set to: 0
  3544                           ;AD5930.c: 152: reg.word |= ((data >> 12) & 0xFFF);
  3545  0013E4  0EFF               	movlw	255
  3546  0013E6  0100               	movlb	0	; () banked
  3547  0013E8  6F7C               	movwf	??_AD5930_write_freq& (0+255),b
  3548  0013EA  0E0F               	movlw	15
  3549  0013EC  0100               	movlb	0	; () banked
  3550  0013EE  6F7D               	movwf	(??_AD5930_write_freq+1)& (0+255),b
  3551  0013F0  C082  F07E         	movff	AD5930_write_freq@data,??_AD5930_write_freq+2
  3552  0013F4  C083  F07F         	movff	AD5930_write_freq@data+1,??_AD5930_write_freq+3
  3553  0013F8  C084  F080         	movff	AD5930_write_freq@data+2,??_AD5930_write_freq+4
  3554  0013FC  C085  F081         	movff	AD5930_write_freq@data+3,??_AD5930_write_freq+5
  3555  001400  0E0D               	movlw	13
  3556  001402  D006               	goto	u7880
  3557  001404                     u7885:
  3558  001404  0100               	movlb	0	; () banked
  3559  001406  90D8               	bcf	status,0,c
  3560  001408  3381               	rrcf	(??_AD5930_write_freq+5)& (0+255),f,b
  3561  00140A  3380               	rrcf	(??_AD5930_write_freq+4)& (0+255),f,b
  3562  00140C  337F               	rrcf	(??_AD5930_write_freq+3)& (0+255),f,b
  3563  00140E  337E               	rrcf	(??_AD5930_write_freq+2)& (0+255),f,b
  3564  001410                     u7880:
  3565  001410  2EE8               	decfsz	wreg,f,c
  3566  001412  D7F8               	goto	u7885
  3567  001414  0100               	movlb	0	; () banked
  3568  001416  517C               	movf	??_AD5930_write_freq& (0+255),w,b
  3569  001418  0100               	movlb	0	; () banked
  3570  00141A  177E               	andwf	(??_AD5930_write_freq+2)& (0+255),f,b
  3571  00141C  0100               	movlb	0	; () banked
  3572  00141E  517D               	movf	(??_AD5930_write_freq+1)& (0+255),w,b
  3573  001420  0100               	movlb	0	; () banked
  3574  001422  177F               	andwf	(??_AD5930_write_freq+3)& (0+255),f,b
  3575  001424  0100               	movlb	0	; () banked
  3576  001426  517E               	movf	(??_AD5930_write_freq+2)& (0+255),w,b
  3577  001428  0100               	movlb	0	; () banked
  3578  00142A  1386               	iorwf	AD5930_write_freq@reg& (0+255),f,b
  3579  00142C  0100               	movlb	0	; () banked
  3580  00142E  517F               	movf	(??_AD5930_write_freq+3)& (0+255),w,b
  3581  001430  0100               	movlb	0	; () banked
  3582  001432  1387               	iorwf	(AD5930_write_freq@reg+1)& (0+255),f,b
  3583                           
  3584                           ; BSR set to: 0
  3585                           
  3586                           ; BSR set to: 0
  3587                           
  3588                           ;AD5930.c: 153: do { LATCbits.LATC0 = 0; } while(0);
  3589  001434  908B               	bcf	3979,0,c	;volatile
  3590                           
  3591                           ; BSR set to: 0
  3592                           ;AD5930.c: 154: SPI1_Exchange8bit(reg.register_bytes[1]);
  3593                           
  3594                           ; BSR set to: 0
  3595  001436  0100               	movlb	0	; () banked
  3596  001438  5187               	movf	(AD5930_write_freq@reg+1)& (0+255),w,b
  3597  00143A  EC31  F016         	call	_SPI1_Exchange8bit
  3598                           
  3599                           ;AD5930.c: 155: SPI1_Exchange8bit(reg.register_bytes[0]);
  3600  00143E  0100               	movlb	0	; () banked
  3601  001440  5186               	movf	AD5930_write_freq@reg& (0+255),w,b
  3602  001442  EC31  F016         	call	_SPI1_Exchange8bit
  3603                           
  3604                           ;AD5930.c: 156: do { LATCbits.LATC0 = 1; } while(0);;
  3605  001446  808B               	bsf	3979,0,c	;volatile
  3606                           
  3607                           ;AD5930.c: 157: do { LATCbits.LATC2 = 1; } while(0) ;
  3608  001448  848B               	bsf	3979,2,c	;volatile
  3609  00144A  0012               	return	
  3610  00144C                     __end_of_AD5930_write_freq:
  3611                           	opt stack 0
  3612                           tblptru	equ	0xFF8
  3613                           tblptrh	equ	0xFF7
  3614                           tblptrl	equ	0xFF6
  3615                           tablat	equ	0xFF5
  3616                           prodh	equ	0xFF4
  3617                           prodl	equ	0xFF3
  3618                           intcon	equ	0xFF2
  3619                           indf0	equ	0xFEF
  3620                           postinc0	equ	0xFEE
  3621                           fsr0h	equ	0xFEA
  3622                           fsr0l	equ	0xFE9
  3623                           wreg	equ	0xFE8
  3624                           indf1	equ	0xFE7
  3625                           postinc1	equ	0xFE6
  3626                           postdec1	equ	0xFE5
  3627                           fsr1h	equ	0xFE2
  3628                           fsr1l	equ	0xFE1
  3629                           indf2	equ	0xFDF
  3630                           postinc2	equ	0xFDE
  3631                           fsr2h	equ	0xFDA
  3632                           fsr2l	equ	0xFD9
  3633                           status	equ	0xFD8
  3634                           
  3635 ;; *************** function ___lltoft *****************
  3636 ;; Defined at:
  3637 ;;		line 35 in file "C:\Program Files (x86)\Microchip\xc8\v1.38\sources\common\lltoft.c"
  3638 ;; Parameters:    Size  Location     Type
  3639 ;;  c               4   27[COMRAM] unsigned long 
  3640 ;; Auto vars:     Size  Location     Type
  3641 ;;  exp             1   35[COMRAM] unsigned char 
  3642 ;; Return value:  Size  Location     Type
  3643 ;;                  3   27[COMRAM] float 
  3644 ;; Registers used:
  3645 ;;		wreg, status,2, status,0, cstack
  3646 ;; Tracked objects:
  3647 ;;		On entry : 0/0
  3648 ;;		On exit  : 0/0
  3649 ;;		Unchanged: 0/0
  3650 ;; Data sizes:     COMRAM   BANK0   BANK1   BANK2   BANK3   BANK4   BANK5   BANK6   BANK7   BANK8   BANK9  BANK10  BANK1
      +1  BANK12  BANK13  BANK14  BANK15
  3651 ;;      Params:         4       0       0       0       0       0       0       0       0       0       0       0       
      +0       0       0       0       0
  3652 ;;      Locals:         1       0       0       0       0       0       0       0       0       0       0       0       
      +0       0       0       0       0
  3653 ;;      Temps:          4       0       0       0       0       0       0       0       0       0       0       0       
      +0       0       0       0       0
  3654 ;;      Totals:         9       0       0       0       0       0       0       0       0       0       0       0       
      +0       0       0       0       0
  3655 ;;Total ram usage:        9 bytes
  3656 ;; Hardware stack levels used:    1
  3657 ;; Hardware stack levels required when called:    5
  3658 ;; This function calls:
  3659 ;;		___ftpack
  3660 ;; This function is called by:
  3661 ;;		_AD5930_write_freq
  3662 ;; This function uses a non-reentrant model
  3663 ;;
  3664                           
  3665                           	psect	text10
  3666  0023CC                     __ptext10:
  3667                           	opt stack 0
  3668  0023CC                     ___lltoft:
  3669                           	opt stack 23
  3670                           
  3671                           ;incstack = 0
  3672  0023CC  0E8E               	movlw	142
  3673  0023CE  6E24               	movwf	___lltoft@exp,c
  3674  0023D0  D006               	goto	l7971
  3675  0023D2                     l7969:
  3676  0023D2  90D8               	bcf	status,0,c
  3677  0023D4  321F               	rrcf	___lltoft@c+3,f,c
  3678  0023D6  321E               	rrcf	___lltoft@c+2,f,c
  3679  0023D8  321D               	rrcf	___lltoft@c+1,f,c
  3680  0023DA  321C               	rrcf	___lltoft@c,f,c
  3681  0023DC  2A24               	incf	___lltoft@exp,f,c
  3682  0023DE                     l7971:
  3683  0023DE  0E00               	movlw	0
  3684  0023E0  141C               	andwf	___lltoft@c,w,c
  3685  0023E2  6E20               	movwf	??___lltoft& (0+255),c
  3686  0023E4  0E00               	movlw	0
  3687  0023E6  141D               	andwf	___lltoft@c+1,w,c
  3688  0023E8  6E21               	movwf	(??___lltoft+1)& (0+255),c
  3689  0023EA  0E00               	movlw	0
  3690  0023EC  141E               	andwf	___lltoft@c+2,w,c
  3691  0023EE  6E22               	movwf	(??___lltoft+2)& (0+255),c
  3692  0023F0  0EFF               	movlw	255
  3693  0023F2  141F               	andwf	___lltoft@c+3,w,c
  3694  0023F4  6E23               	movwf	(??___lltoft+3)& (0+255),c
  3695  0023F6  5020               	movf	??___lltoft,w,c
  3696  0023F8  1021               	iorwf	??___lltoft+1,w,c
  3697  0023FA  1022               	iorwf	??___lltoft+2,w,c
  3698  0023FC  1023               	iorwf	??___lltoft+3,w,c
  3699  0023FE  A4D8               	btfss	status,2,c
  3700  002400  D7E8               	goto	l7969
  3701  002402  C01C  F014         	movff	___lltoft@c,___ftpack@arg
  3702  002406  C01D  F015         	movff	___lltoft@c+1,___ftpack@arg+1
  3703  00240A  C01E  F016         	movff	___lltoft@c+2,___ftpack@arg+2
  3704  00240E  C024  F017         	movff	___lltoft@exp,___ftpack@exp
  3705  002412  0E00               	movlw	0
  3706  002414  6E18               	movwf	___ftpack@sign,c
  3707  002416  ECE7  F00D         	call	___ftpack	;wreg free
  3708  00241A  C014  F01C         	movff	?___ftpack,?___lltoft
  3709  00241E  C015  F01D         	movff	?___ftpack+1,?___lltoft+1
  3710  002422  C016  F01E         	movff	?___ftpack+2,?___lltoft+2
  3711  002426  0012               	return	
  3712  002428                     __end_of___lltoft:
  3713                           	opt stack 0
  3714                           tblptru	equ	0xFF8
  3715                           tblptrh	equ	0xFF7
  3716                           tblptrl	equ	0xFF6
  3717                           tablat	equ	0xFF5
  3718                           prodh	equ	0xFF4
  3719                           prodl	equ	0xFF3
  3720                           intcon	equ	0xFF2
  3721                           indf0	equ	0xFEF
  3722                           postinc0	equ	0xFEE
  3723                           fsr0h	equ	0xFEA
  3724                           fsr0l	equ	0xFE9
  3725                           wreg	equ	0xFE8
  3726                           indf1	equ	0xFE7
  3727                           postinc1	equ	0xFE6
  3728                           postdec1	equ	0xFE5
  3729                           fsr1h	equ	0xFE2
  3730                           fsr1l	equ	0xFE1
  3731                           indf2	equ	0xFDF
  3732                           postinc2	equ	0xFDE
  3733                           fsr2h	equ	0xFDA
  3734                           fsr2l	equ	0xFD9
  3735                           status	equ	0xFD8
  3736                           
  3737 ;; *************** function ___fttol *****************
  3738 ;; Defined at:
  3739 ;;		line 44 in file "C:\Program Files (x86)\Microchip\xc8\v1.38\sources\common\fttol.c"
  3740 ;; Parameters:    Size  Location     Type
  3741 ;;  f1              3    9[BANK0 ] float 
  3742 ;; Auto vars:     Size  Location     Type
  3743 ;;  lval            4   19[BANK0 ] unsigned long 
  3744 ;;  exp1            1   23[BANK0 ] unsigned char 
  3745 ;;  sign1           1   18[BANK0 ] unsigned char 
  3746 ;; Return value:  Size  Location     Type
  3747 ;;                  4    9[BANK0 ] long 
  3748 ;; Registers used:
  3749 ;;		wreg, status,2, status,0
  3750 ;; Tracked objects:
  3751 ;;		On entry : 0/0
  3752 ;;		On exit  : 0/0
  3753 ;;		Unchanged: 0/0
  3754 ;; Data sizes:     COMRAM   BANK0   BANK1   BANK2   BANK3   BANK4   BANK5   BANK6   BANK7   BANK8   BANK9  BANK10  BANK1
      +1  BANK12  BANK13  BANK14  BANK15
  3755 ;;      Params:         0       4       0       0       0       0       0       0       0       0       0       0       
      +0       0       0       0       0
  3756 ;;      Locals:         0       6       0       0       0       0       0       0       0       0       0       0       
      +0       0       0       0       0
  3757 ;;      Temps:          0       5       0       0       0       0       0       0       0       0       0       0       
      +0       0       0       0       0
  3758 ;;      Totals:         0      15       0       0       0       0       0       0       0       0       0       0       
      +0       0       0       0       0
  3759 ;;Total ram usage:       15 bytes
  3760 ;; Hardware stack levels used:    1
  3761 ;; Hardware stack levels required when called:    4
  3762 ;; This function calls:
  3763 ;;		Nothing
  3764 ;; This function is called by:
  3765 ;;		_AD5930_write_freq
  3766 ;; This function uses a non-reentrant model
  3767 ;;
  3768                           
  3769                           	psect	text11
  3770  00144C                     __ptext11:
  3771                           	opt stack 0
  3772  00144C                     ___fttol:
  3773                           	opt stack 24
  3774                           
  3775                           ;incstack = 0
  3776  00144C  C06B  F06D         	movff	___fttol@f1+2,??___fttol
  3777  001450  0100               	movlb	0	; () banked
