

Microchip Technology PIC PRO Macro Assembler V1.38 build -256452561 
                                                                                               Thu Jan 05 19:34:10 2017

Microchip Technology Omniscient Code Generator v1.38 (PRO mode) build 201607010351
     1                           	processor	16F1575
     2                           	opt	pw 120
     3                           	opt	pm
     4                           	psect	idataBANK0,global,class=CODE,delta=2
     5                           	psect	cinit,global,class=CODE,merge=1,delta=2
     6                           	psect	bssCOMMON,global,class=COMMON,space=1,delta=1
     7                           	psect	bssBANK0,global,class=BANK0,space=1,delta=1
     8                           	psect	dataBANK0,global,class=BANK0,space=1,delta=1
     9                           	psect	clrtext,global,class=CODE,delta=2
    10                           	psect	cstackCOMMON,global,class=COMMON,space=1,delta=1
    11                           	psect	cstackBANK0,global,class=BANK0,space=1,delta=1
    12                           	psect	intentry,global,class=CODE,delta=2
    13                           	psect	text20,local,class=CODE,merge=1,delta=2
    14                           	psect	text22,local,class=CODE,merge=1,delta=2
    15                           	psect	text23,local,class=CODE,merge=1,delta=2
    16                           	psect	pa_nodes,global,class=CODE,delta=2
    17                           	dabs	1,0x7E,2
    18  0000                     	;# 
    19  0001                     	;# 
    20  0002                     	;# 
    21  0003                     	;# 
    22  0004                     	;# 
    23  0005                     	;# 
    24  0006                     	;# 
    25  0007                     	;# 
    26  0008                     	;# 
    27  0009                     	;# 
    28  000A                     	;# 
    29  000B                     	;# 
    30  000C                     	;# 
    31  000E                     	;# 
    32  0011                     	;# 
    33  0012                     	;# 
    34  0013                     	;# 
    35  0015                     	;# 
    36  0016                     	;# 
    37  0016                     	;# 
    38  0017                     	;# 
    39  0018                     	;# 
    40  0019                     	;# 
    41  001A                     	;# 
    42  001B                     	;# 
    43  001C                     	;# 
    44  008C                     	;# 
    45  008E                     	;# 
    46  0091                     	;# 
    47  0092                     	;# 
    48  0093                     	;# 
    49  0095                     	;# 
    50  0096                     	;# 
    51  0097                     	;# 
    52  0098                     	;# 
    53  0099                     	;# 
    54  009A                     	;# 
    55  009B                     	;# 
    56  009B                     	;# 
    57  009C                     	;# 
    58  009D                     	;# 
    59  009E                     	;# 
    60  009F                     	;# 
    61  010C                     	;# 
    62  010E                     	;# 
    63  0111                     	;# 
    64  0112                     	;# 
    65  0113                     	;# 
    66  0114                     	;# 
    67  0115                     	;# 
    68  0116                     	;# 
    69  0117                     	;# 
    70  0118                     	;# 
    71  0119                     	;# 
    72  018C                     	;# 
    73  018E                     	;# 
    74  0191                     	;# 
    75  0191                     	;# 
    76  0192                     	;# 
    77  0193                     	;# 
    78  0193                     	;# 
    79  0194                     	;# 
    80  0195                     	;# 
    81  0196                     	;# 
    82  0197                     	;# 
    83  0199                     	;# 
    84  019A                     	;# 
    85  019B                     	;# 
    86  019B                     	;# 
    87  019C                     	;# 
    88  019D                     	;# 
    89  019E                     	;# 
    90  019F                     	;# 
    91  020C                     	;# 
    92  020E                     	;# 
    93  028C                     	;# 
    94  028E                     	;# 
    95  030C                     	;# 
    96  030E                     	;# 
    97  038C                     	;# 
    98  038E                     	;# 
    99  0391                     	;# 
   100  0392                     	;# 
   101  0393                     	;# 
   102  0397                     	;# 
   103  0398                     	;# 
   104  0399                     	;# 
   105  0691                     	;# 
   106  0692                     	;# 
   107  0693                     	;# 
   108  0694                     	;# 
   109  0695                     	;# 
   110  0D8E                     	;# 
   111  0D8F                     	;# 
   112  0D90                     	;# 
   113  0D91                     	;# 
   114  0D91                     	;# 
   115  0D92                     	;# 
   116  0D93                     	;# 
   117  0D93                     	;# 
   118  0D94                     	;# 
   119  0D95                     	;# 
   120  0D95                     	;# 
   121  0D96                     	;# 
   122  0D97                     	;# 
   123  0D97                     	;# 
   124  0D98                     	;# 
   125  0D99                     	;# 
   126  0D99                     	;# 
   127  0D9A                     	;# 
   128  0D9B                     	;# 
   129  0D9C                     	;# 
   130  0D9C                     	;# 
   131  0D9D                     	;# 
   132  0D9D                     	;# 
   133  0D9E                     	;# 
   134  0D9F                     	;# 
   135  0DA0                     	;# 
   136  0DA1                     	;# 
   137  0DA1                     	;# 
   138  0DA2                     	;# 
   139  0DA3                     	;# 
   140  0DA3                     	;# 
   141  0DA4                     	;# 
   142  0DA5                     	;# 
   143  0DA5                     	;# 
   144  0DA6                     	;# 
   145  0DA7                     	;# 
   146  0DA7                     	;# 
   147  0DA8                     	;# 
   148  0DA9                     	;# 
   149  0DA9                     	;# 
   150  0DAA                     	;# 
   151  0DAB                     	;# 
   152  0DAC                     	;# 
   153  0DAC                     	;# 
   154  0DAD                     	;# 
   155  0DAD                     	;# 
   156  0DAE                     	;# 
   157  0DAF                     	;# 
   158  0DB0                     	;# 
   159  0DB1                     	;# 
   160  0DB1                     	;# 
   161  0DB2                     	;# 
   162  0DB3                     	;# 
   163  0DB3                     	;# 
   164  0DB4                     	;# 
   165  0DB5                     	;# 
   166  0DB5                     	;# 
   167  0DB6                     	;# 
   168  0DB7                     	;# 
   169  0DB7                     	;# 
   170  0DB8                     	;# 
   171  0DB9                     	;# 
   172  0DB9                     	;# 
   173  0DBA                     	;# 
   174  0DBB                     	;# 
   175  0DBC                     	;# 
   176  0DBC                     	;# 
   177  0DBD                     	;# 
   178  0DBD                     	;# 
   179  0DBE                     	;# 
   180  0DBF                     	;# 
   181  0DC0                     	;# 
   182  0DC1                     	;# 
   183  0DC1                     	;# 
   184  0DC2                     	;# 
   185  0DC3                     	;# 
   186  0DC3                     	;# 
   187  0DC4                     	;# 
   188  0DC5                     	;# 
   189  0DC5                     	;# 
   190  0DC6                     	;# 
   191  0DC7                     	;# 
   192  0DC7                     	;# 
   193  0DC8                     	;# 
   194  0DC9                     	;# 
   195  0DC9                     	;# 
   196  0DCA                     	;# 
   197  0DCB                     	;# 
   198  0DCC                     	;# 
   199  0DCC                     	;# 
   200  0DCD                     	;# 
   201  0DCD                     	;# 
   202  0DCE                     	;# 
   203  0DCF                     	;# 
   204  0DD0                     	;# 
   205  0E0F                     	;# 
   206  0E10                     	;# 
   207  0E11                     	;# 
   208  0E12                     	;# 
   209  0E13                     	;# 
   210  0E14                     	;# 
   211  0E15                     	;# 
   212  0E16                     	;# 
   213  0E17                     	;# 
   214  0E90                     	;# 
   215  0E91                     	;# 
   216  0E92                     	;# 
   217  0E94                     	;# 
   218  0E95                     	;# 
   219  0EA0                     	;# 
   220  0EA1                     	;# 
   221  0EA2                     	;# 
   222  0EA3                     	;# 
   223  0EA4                     	;# 
   224  0EA5                     	;# 
   225  0FE4                     	;# 
   226  0FE5                     	;# 
   227  0FE6                     	;# 
   228  0FE7                     	;# 
   229  0FE8                     	;# 
   230  0FE8                     	;# 
   231  0FE9                     	;# 
   232  0FEA                     	;# 
   233  0FEA                     	;# 
   234  0FEB                     	;# 
   235  0FED                     	;# 
   236  0FEE                     	;# 
   237  0FEE                     	;# 
   238  0FEF                     	;# 
   239  0000                     	;# 
   240  0001                     	;# 
   241  0002                     	;# 
   242  0003                     	;# 
   243  0004                     	;# 
   244  0005                     	;# 
   245  0006                     	;# 
   246  0007                     	;# 
   247  0008                     	;# 
   248  0009                     	;# 
   249  000A                     	;# 
   250  000B                     	;# 
   251  000C                     	;# 
   252  000E                     	;# 
   253  0011                     	;# 
   254  0012                     	;# 
   255  0013                     	;# 
   256  0015                     	;# 
   257  0016                     	;# 
   258  0016                     	;# 
   259  0017                     	;# 
   260  0018                     	;# 
   261  0019                     	;# 
   262  001A                     	;# 
   263  001B                     	;# 
   264  001C                     	;# 
   265  008C                     	;# 
   266  008E                     	;# 
   267  0091                     	;# 
   268  0092                     	;# 
   269  0093                     	;# 
   270  0095                     	;# 
   271  0096                     	;# 
   272  0097                     	;# 
   273  0098                     	;# 
   274  0099                     	;# 
   275  009A                     	;# 
   276  009B                     	;# 
   277  009B                     	;# 
   278  009C                     	;# 
   279  009D                     	;# 
   280  009E                     	;# 
   281  009F                     	;# 
   282  010C                     	;# 
   283  010E                     	;# 
   284  0111                     	;# 
   285  0112                     	;# 
   286  0113                     	;# 
   287  0114                     	;# 
   288  0115                     	;# 
   289  0116                     	;# 
   290  0117                     	;# 
   291  0118                     	;# 
   292  0119                     	;# 
   293  018C                     	;# 
   294  018E                     	;# 
   295  0191                     	;# 
   296  0191                     	;# 
   297  0192                     	;# 
   298  0193                     	;# 
   299  0193                     	;# 
   300  0194                     	;# 
   301  0195                     	;# 
   302  0196                     	;# 
   303  0197                     	;# 
   304  0199                     	;# 
   305  019A                     	;# 
   306  019B                     	;# 
   307  019B                     	;# 
   308  019C                     	;# 
   309  019D                     	;# 
   310  019E                     	;# 
   311  019F                     	;# 
   312  020C                     	;# 
   313  020E                     	;# 
   314  028C                     	;# 
   315  028E                     	;# 
   316  030C                     	;# 
   317  030E                     	;# 
   318  038C                     	;# 
   319  038E                     	;# 
   320  0391                     	;# 
   321  0392                     	;# 
   322  0393                     	;# 
   323  0397                     	;# 
   324  0398                     	;# 
   325  0399                     	;# 
   326  0691                     	;# 
   327  0692                     	;# 
   328  0693                     	;# 
   329  0694                     	;# 
   330  0695                     	;# 
   331  0D8E                     	;# 
   332  0D8F                     	;# 
   333  0D90                     	;# 
   334  0D91                     	;# 
   335  0D91                     	;# 
   336  0D92                     	;# 
   337  0D93                     	;# 
   338  0D93                     	;# 
   339  0D94                     	;# 
   340  0D95                     	;# 
   341  0D95                     	;# 
   342  0D96                     	;# 
   343  0D97                     	;# 
   344  0D97                     	;# 
   345  0D98                     	;# 
   346  0D99                     	;# 
   347  0D99                     	;# 
   348  0D9A                     	;# 
   349  0D9B                     	;# 
   350  0D9C                     	;# 
   351  0D9C                     	;# 
   352  0D9D                     	;# 
   353  0D9D                     	;# 
   354  0D9E                     	;# 
   355  0D9F                     	;# 
   356  0DA0                     	;# 
   357  0DA1                     	;# 
   358  0DA1                     	;# 
   359  0DA2                     	;# 
   360  0DA3                     	;# 
   361  0DA3                     	;# 
   362  0DA4                     	;# 
   363  0DA5                     	;# 
   364  0DA5                     	;# 
   365  0DA6                     	;# 
   366  0DA7                     	;# 
   367  0DA7                     	;# 
   368  0DA8                     	;# 
   369  0DA9                     	;# 
   370  0DA9                     	;# 
   371  0DAA                     	;# 
   372  0DAB                     	;# 
   373  0DAC                     	;# 
   374  0DAC                     	;# 
   375  0DAD                     	;# 
   376  0DAD                     	;# 
   377  0DAE                     	;# 
   378  0DAF                     	;# 
   379  0DB0                     	;# 
   380  0DB1                     	;# 
   381  0DB1                     	;# 
   382  0DB2                     	;# 
   383  0DB3                     	;# 
   384  0DB3                     	;# 
   385  0DB4                     	;# 
   386  0DB5                     	;# 
   387  0DB5                     	;# 
   388  0DB6                     	;# 
   389  0DB7                     	;# 
   390  0DB7                     	;# 
   391  0DB8                     	;# 
   392  0DB9                     	;# 
   393  0DB9                     	;# 
   394  0DBA                     	;# 
   395  0DBB                     	;# 
   396  0DBC                     	;# 
   397  0DBC                     	;# 
   398  0DBD                     	;# 
   399  0DBD                     	;# 
   400  0DBE                     	;# 
   401  0DBF                     	;# 
   402  0DC0                     	;# 
   403  0DC1                     	;# 
   404  0DC1                     	;# 
   405  0DC2                     	;# 
   406  0DC3                     	;# 
   407  0DC3                     	;# 
   408  0DC4                     	;# 
   409  0DC5                     	;# 
   410  0DC5                     	;# 
   411  0DC6                     	;# 
   412  0DC7                     	;# 
   413  0DC7                     	;# 
   414  0DC8                     	;# 
   415  0DC9                     	;# 
   416  0DC9                     	;# 
   417  0DCA                     	;# 
   418  0DCB                     	;# 
   419  0DCC                     	;# 
   420  0DCC                     	;# 
   421  0DCD                     	;# 
   422  0DCD                     	;# 
   423  0DCE                     	;# 
   424  0DCF                     	;# 
   425  0DD0                     	;# 
   426  0E0F                     	;# 
   427  0E10                     	;# 
   428  0E11                     	;# 
   429  0E12                     	;# 
   430  0E13                     	;# 
   431  0E14                     	;# 
   432  0E15                     	;# 
   433  0E16                     	;# 
   434  0E17                     	;# 
   435  0E90                     	;# 
   436  0E91                     	;# 
   437  0E92                     	;# 
   438  0E94                     	;# 
   439  0E95                     	;# 
   440  0EA0                     	;# 
   441  0EA1                     	;# 
   442  0EA2                     	;# 
   443  0EA3                     	;# 
   444  0EA4                     	;# 
   445  0EA5                     	;# 
   446  0FE4                     	;# 
   447  0FE5                     	;# 
   448  0FE6                     	;# 
   449  0FE7                     	;# 
   450  0FE8                     	;# 
   451  0FE8                     	;# 
   452  0FE9                     	;# 
   453  0FEA                     	;# 
   454  0FEA                     	;# 
   455  0FEB                     	;# 
   456  0FED                     	;# 
   457  0FEE                     	;# 
   458  0FEE                     	;# 
   459  0FEF                     	;# 
   460  0000                     	;# 
   461  0001                     	;# 
   462  0002                     	;# 
   463  0003                     	;# 
   464  0004                     	;# 
   465  0005                     	;# 
   466  0006                     	;# 
   467  0007                     	;# 
   468  0008                     	;# 
   469  0009                     	;# 
   470  000A                     	;# 
   471  000B                     	;# 
   472  000C                     	;# 
   473  000E                     	;# 
   474  0011                     	;# 
   475  0012                     	;# 
   476  0013                     	;# 
   477  0015                     	;# 
   478  0016                     	;# 
   479  0016                     	;# 
   480  0017                     	;# 
   481  0018                     	;# 
   482  0019                     	;# 
   483  001A                     	;# 
   484  001B                     	;# 
   485  001C                     	;# 
   486  008C                     	;# 
   487  008E                     	;# 
   488  0091                     	;# 
   489  0092                     	;# 
   490  0093                     	;# 
   491  0095                     	;# 
   492  0096                     	;# 
   493  0097                     	;# 
   494  0098                     	;# 
   495  0099                     	;# 
   496  009A                     	;# 
   497  009B                     	;# 
   498  009B                     	;# 
   499  009C                     	;# 
   500  009D                     	;# 
   501  009E                     	;# 
   502  009F                     	;# 
   503  010C                     	;# 
   504  010E                     	;# 
   505  0111                     	;# 
   506  0112                     	;# 
   507  0113                     	;# 
   508  0114                     	;# 
   509  0115                     	;# 
   510  0116                     	;# 
   511  0117                     	;# 
   512  0118                     	;# 
   513  0119                     	;# 
   514  018C                     	;# 
   515  018E                     	;# 
   516  0191                     	;# 
   517  0191                     	;# 
   518  0192                     	;# 
   519  0193                     	;# 
   520  0193                     	;# 
   521  0194                     	;# 
   522  0195                     	;# 
   523  0196                     	;# 
   524  0197                     	;# 
   525  0199                     	;# 
   526  019A                     	;# 
   527  019B                     	;# 
   528  019B                     	;# 
   529  019C                     	;# 
   530  019D                     	;# 
   531  019E                     	;# 
   532  019F                     	;# 
   533  020C                     	;# 
   534  020E                     	;# 
   535  028C                     	;# 
   536  028E                     	;# 
   537  030C                     	;# 
   538  030E                     	;# 
   539  038C                     	;# 
   540  038E                     	;# 
   541  0391                     	;# 
   542  0392                     	;# 
   543  0393                     	;# 
   544  0397                     	;# 
   545  0398                     	;# 
   546  0399                     	;# 
   547  0691                     	;# 
   548  0692                     	;# 
   549  0693                     	;# 
   550  0694                     	;# 
   551  0695                     	;# 
   552  0D8E                     	;# 
   553  0D8F                     	;# 
   554  0D90                     	;# 
   555  0D91                     	;# 
   556  0D91                     	;# 
   557  0D92                     	;# 
   558  0D93                     	;# 
   559  0D93                     	;# 
   560  0D94                     	;# 
   561  0D95                     	;# 
   562  0D95                     	;# 
   563  0D96                     	;# 
   564  0D97                     	;# 
   565  0D97                     	;# 
   566  0D98                     	;# 
   567  0D99                     	;# 
   568  0D99                     	;# 
   569  0D9A                     	;# 
   570  0D9B                     	;# 
   571  0D9C                     	;# 
   572  0D9C                     	;# 
   573  0D9D                     	;# 
   574  0D9D                     	;# 
   575  0D9E                     	;# 
   576  0D9F                     	;# 
   577  0DA0                     	;# 
   578  0DA1                     	;# 
   579  0DA1                     	;# 
   580  0DA2                     	;# 
   581  0DA3                     	;# 
   582  0DA3                     	;# 
   583  0DA4                     	;# 
   584  0DA5                     	;# 
   585  0DA5                     	;# 
   586  0DA6                     	;# 
   587  0DA7                     	;# 
   588  0DA7                     	;# 
   589  0DA8                     	;# 
   590  0DA9                     	;# 
   591  0DA9                     	;# 
   592  0DAA                     	;# 
   593  0DAB                     	;# 
   594  0DAC                     	;# 
   595  0DAC                     	;# 
   596  0DAD                     	;# 
   597  0DAD                     	;# 
   598  0DAE                     	;# 
   599  0DAF                     	;# 
   600  0DB0                     	;# 
   601  0DB1                     	;# 
   602  0DB1                     	;# 
   603  0DB2                     	;# 
   604  0DB3                     	;# 
   605  0DB3                     	;# 
   606  0DB4                     	;# 
   607  0DB5                     	;# 
   608  0DB5                     	;# 
   609  0DB6                     	;# 
   610  0DB7                     	;# 
   611  0DB7                     	;# 
   612  0DB8                     	;# 
   613  0DB9                     	;# 
   614  0DB9                     	;# 
   615  0DBA                     	;# 
   616  0DBB                     	;# 
   617  0DBC                     	;# 
   618  0DBC                     	;# 
   619  0DBD                     	;# 
   620  0DBD                     	;# 
   621  0DBE                     	;# 
   622  0DBF                     	;# 
   623  0DC0                     	;# 
   624  0DC1                     	;# 
   625  0DC1                     	;# 
   626  0DC2                     	;# 
   627  0DC3                     	;# 
   628  0DC3                     	;# 
   629  0DC4                     	;# 
   630  0DC5                     	;# 
   631  0DC5                     	;# 
   632  0DC6                     	;# 
   633  0DC7                     	;# 
   634  0DC7                     	;# 
   635  0DC8                     	;# 
   636  0DC9                     	;# 
   637  0DC9                     	;# 
   638  0DCA                     	;# 
   639  0DCB                     	;# 
   640  0DCC                     	;# 
   641  0DCC                     	;# 
   642  0DCD                     	;# 
   643  0DCD                     	;# 
   644  0DCE                     	;# 
   645  0DCF                     	;# 
   646  0DD0                     	;# 
   647  0E0F                     	;# 
   648  0E10                     	;# 
   649  0E11                     	;# 
   650  0E12                     	;# 
   651  0E13                     	;# 
   652  0E14                     	;# 
   653  0E15                     	;# 
   654  0E16                     	;# 
   655  0E17                     	;# 
   656  0E90                     	;# 
   657  0E91                     	;# 
   658  0E92                     	;# 
   659  0E94                     	;# 
   660  0E95                     	;# 
   661  0EA0                     	;# 
   662  0EA1                     	;# 
   663  0EA2                     	;# 
   664  0EA3                     	;# 
   665  0EA4                     	;# 
   666  0EA5                     	;# 
   667  0FE4                     	;# 
   668  0FE5                     	;# 
   669  0FE6                     	;# 
   670  0FE7                     	;# 
   671  0FE8                     	;# 
   672  0FE8                     	;# 
   673  0FE9                     	;# 
   674  0FEA                     	;# 
   675  0FEA                     	;# 
   676  0FEB                     	;# 
   677  0FED                     	;# 
   678  0FEE                     	;# 
   679  0FEE                     	;# 
   680  0FEF                     	;# 
   681  0000                     	;# 
   682  0001                     	;# 
   683  0002                     	;# 
   684  0003                     	;# 
   685  0004                     	;# 
   686  0005                     	;# 
   687  0006                     	;# 
   688  0007                     	;# 
   689  0008                     	;# 
   690  0009                     	;# 
   691  000A                     	;# 
   692  000B                     	;# 
   693  000C                     	;# 
   694  000E                     	;# 
   695  0011                     	;# 
   696  0012                     	;# 
   697  0013                     	;# 
   698  0015                     	;# 
   699  0016                     	;# 
   700  0016                     	;# 
   701  0017                     	;# 
   702  0018                     	;# 
   703  0019                     	;# 
   704  001A                     	;# 
   705  001B                     	;# 
   706  001C                     	;# 
   707  008C                     	;# 
   708  008E                     	;# 
   709  0091                     	;# 
   710  0092                     	;# 
   711  0093                     	;# 
   712  0095                     	;# 
   713  0096                     	;# 
   714  0097                     	;# 
   715  0098                     	;# 
   716  0099                     	;# 
   717  009A                     	;# 
   718  009B                     	;# 
   719  009B                     	;# 
   720  009C                     	;# 
   721  009D                     	;# 
   722  009E                     	;# 
   723  009F                     	;# 
   724  010C                     	;# 
   725  010E                     	;# 
   726  0111                     	;# 
   727  0112                     	;# 
   728  0113                     	;# 
   729  0114                     	;# 
   730  0115                     	;# 
   731  0116                     	;# 
   732  0117                     	;# 
   733  0118                     	;# 
   734  0119                     	;# 
   735  018C                     	;# 
   736  018E                     	;# 
   737  0191                     	;# 
   738  0191                     	;# 
   739  0192                     	;# 
   740  0193                     	;# 
   741  0193                     	;# 
   742  0194                     	;# 
   743  0195                     	;# 
   744  0196                     	;# 
   745  0197                     	;# 
   746  0199                     	;# 
   747  019A                     	;# 
   748  019B                     	;# 
   749  019B                     	;# 
   750  019C                     	;# 
   751  019D                     	;# 
   752  019E                     	;# 
   753  019F                     	;# 
   754  020C                     	;# 
   755  020E                     	;# 
   756  028C                     	;# 
   757  028E                     	;# 
   758  030C                     	;# 
   759  030E                     	;# 
   760  038C                     	;# 
   761  038E                     	;# 
   762  0391                     	;# 
   763  0392                     	;# 
   764  0393                     	;# 
   765  0397                     	;# 
   766  0398                     	;# 
   767  0399                     	;# 
   768  0691                     	;# 
   769  0692                     	;# 
   770  0693                     	;# 
   771  0694                     	;# 
   772  0695                     	;# 
   773  0D8E                     	;# 
   774  0D8F                     	;# 
   775  0D90                     	;# 
   776  0D91                     	;# 
   777  0D91                     	;# 
   778  0D92                     	;# 
   779  0D93                     	;# 
   780  0D93                     	;# 
   781  0D94                     	;# 
   782  0D95                     	;# 
   783  0D95                     	;# 
   784  0D96                     	;# 
   785  0D97                     	;# 
   786  0D97                     	;# 
   787  0D98                     	;# 
   788  0D99                     	;# 
   789  0D99                     	;# 
   790  0D9A                     	;# 
   791  0D9B                     	;# 
   792  0D9C                     	;# 
   793  0D9C                     	;# 
   794  0D9D                     	;# 
   795  0D9D                     	;# 
   796  0D9E                     	;# 
   797  0D9F                     	;# 
   798  0DA0                     	;# 
   799  0DA1                     	;# 
   800  0DA1                     	;# 
   801  0DA2                     	;# 
   802  0DA3                     	;# 
   803  0DA3                     	;# 
   804  0DA4                     	;# 
   805  0DA5                     	;# 
   806  0DA5                     	;# 
   807  0DA6                     	;# 
   808  0DA7                     	;# 
   809  0DA7                     	;# 
   810  0DA8                     	;# 
   811  0DA9                     	;# 
   812  0DA9                     	;# 
   813  0DAA                     	;# 
   814  0DAB                     	;# 
   815  0DAC                     	;# 
   816  0DAC                     	;# 
   817  0DAD                     	;# 
   818  0DAD                     	;# 
   819  0DAE                     	;# 
   820  0DAF                     	;# 
   821  0DB0                     	;# 
   822  0DB1                     	;# 
   823  0DB1                     	;# 
   824  0DB2                     	;# 
   825  0DB3                     	;# 
   826  0DB3                     	;# 
   827  0DB4                     	;# 
   828  0DB5                     	;# 
   829  0DB5                     	;# 
   830  0DB6                     	;# 
   831  0DB7                     	;# 
   832  0DB7                     	;# 
   833  0DB8                     	;# 
   834  0DB9                     	;# 
   835  0DB9                     	;# 
   836  0DBA                     	;# 
   837  0DBB                     	;# 
   838  0DBC                     	;# 
   839  0DBC                     	;# 
   840  0DBD                     	;# 
   841  0DBD                     	;# 
   842  0DBE                     	;# 
   843  0DBF                     	;# 
   844  0DC0                     	;# 
   845  0DC1                     	;# 
   846  0DC1                     	;# 
   847  0DC2                     	;# 
   848  0DC3                     	;# 
   849  0DC3                     	;# 
   850  0DC4                     	;# 
   851  0DC5                     	;# 
   852  0DC5                     	;# 
   853  0DC6                     	;# 
   854  0DC7                     	;# 
   855  0DC7                     	;# 
   856  0DC8                     	;# 
   857  0DC9                     	;# 
   858  0DC9                     	;# 
   859  0DCA                     	;# 
   860  0DCB                     	;# 
   861  0DCC                     	;# 
   862  0DCC                     	;# 
   863  0DCD                     	;# 
   864  0DCD                     	;# 
   865  0DCE                     	;# 
   866  0DCF                     	;# 
   867  0DD0                     	;# 
   868  0E0F                     	;# 
   869  0E10                     	;# 
   870  0E11                     	;# 
   871  0E12                     	;# 
   872  0E13                     	;# 
   873  0E14                     	;# 
   874  0E15                     	;# 
   875  0E16                     	;# 
   876  0E17                     	;# 
   877  0E90                     	;# 
   878  0E91                     	;# 
   879  0E92                     	;# 
   880  0E94                     	;# 
   881  0E95                     	;# 
   882  0EA0                     	;# 
   883  0EA1                     	;# 
   884  0EA2                     	;# 
   885  0EA3                     	;# 
   886  0EA4                     	;# 
   887  0EA5                     	;# 
   888  0FE4                     	;# 
   889  0FE5                     	;# 
   890  0FE6                     	;# 
   891  0FE7                     	;# 
   892  0FE8                     	;# 
   893  0FE8                     	;# 
   894  0FE9                     	;# 
   895  0FEA                     	;# 
   896  0FEA                     	;# 
   897  0FEB                     	;# 
   898  0FED                     	;# 
   899  0FEE                     	;# 
   900  0FEE                     	;# 
   901  0FEF                     	;# 
   902  0000                     	;# 
   903  0001                     	;# 
   904  0002                     	;# 
   905  0003                     	;# 
   906  0004                     	;# 
   907  0005                     	;# 
   908  0006                     	;# 
   909  0007                     	;# 
   910  0008                     	;# 
   911  0009                     	;# 
   912  000A                     	;# 
   913  000B                     	;# 
   914  000C                     	;# 
   915  000E                     	;# 
   916  0011                     	;# 
   917  0012                     	;# 
   918  0013                     	;# 
   919  0015                     	;# 
   920  0016                     	;# 
   921  0016                     	;# 
   922  0017                     	;# 
   923  0018                     	;# 
   924  0019                     	;# 
   925  001A                     	;# 
   926  001B                     	;# 
   927  001C                     	;# 
   928  008C                     	;# 
   929  008E                     	;# 
   930  0091                     	;# 
   931  0092                     	;# 
   932  0093                     	;# 
   933  0095                     	;# 
   934  0096                     	;# 
   935  0097                     	;# 
   936  0098                     	;# 
   937  0099                     	;# 
   938  009A                     	;# 
   939  009B                     	;# 
   940  009B                     	;# 
   941  009C                     	;# 
   942  009D                     	;# 
   943  009E                     	;# 
   944  009F                     	;# 
   945  010C                     	;# 
   946  010E                     	;# 
   947  0111                     	;# 
   948  0112                     	;# 
   949  0113                     	;# 
   950  0114                     	;# 
   951  0115                     	;# 
   952  0116                     	;# 
   953  0117                     	;# 
   954  0118                     	;# 
   955  0119                     	;# 
   956  018C                     	;# 
   957  018E                     	;# 
   958  0191                     	;# 
   959  0191                     	;# 
   960  0192                     	;# 
   961  0193                     	;# 
   962  0193                     	;# 
   963  0194                     	;# 
   964  0195                     	;# 
   965  0196                     	;# 
   966  0197                     	;# 
   967  0199                     	;# 
   968  019A                     	;# 
   969  019B                     	;# 
   970  019B                     	;# 
   971  019C                     	;# 
   972  019D                     	;# 
   973  019E                     	;# 
   974  019F                     	;# 
   975  020C                     	;# 
   976  020E                     	;# 
   977  028C                     	;# 
   978  028E                     	;# 
   979  030C                     	;# 
   980  030E                     	;# 
   981  038C                     	;# 
   982  038E                     	;# 
   983  0391                     	;# 
   984  0392                     	;# 
   985  0393                     	;# 
   986  0397                     	;# 
   987  0398                     	;# 
   988  0399                     	;# 
   989  0691                     	;# 
   990  0692                     	;# 
   991  0693                     	;# 
   992  0694                     	;# 
   993  0695                     	;# 
   994  0D8E                     	;# 
   995  0D8F                     	;# 
   996  0D90                     	;# 
   997  0D91                     	;# 
   998  0D91                     	;# 
   999  0D92                     	;# 
  1000  0D93                     	;# 
  1001  0D93                     	;# 
  1002  0D94                     	;# 
  1003  0D95                     	;# 
  1004  0D95                     	;# 
  1005  0D96                     	;# 
  1006  0D97                     	;# 
  1007  0D97                     	;# 
  1008  0D98                     	;# 
  1009  0D99                     	;# 
  1010  0D99                     	;# 
  1011  0D9A                     	;# 
  1012  0D9B                     	;# 
  1013  0D9C                     	;# 
  1014  0D9C                     	;# 
  1015  0D9D                     	;# 
  1016  0D9D                     	;# 
  1017  0D9E                     	;# 
  1018  0D9F                     	;# 
  1019  0DA0                     	;# 
  1020  0DA1                     	;# 
  1021  0DA1                     	;# 
  1022  0DA2                     	;# 
  1023  0DA3                     	;# 
  1024  0DA3                     	;# 
  1025  0DA4                     	;# 
  1026  0DA5                     	;# 
  1027  0DA5                     	;# 
  1028  0DA6                     	;# 
  1029  0DA7                     	;# 
  1030  0DA7                     	;# 
  1031  0DA8                     	;# 
  1032  0DA9                     	;# 
  1033  0DA9                     	;# 
  1034  0DAA                     	;# 
  1035  0DAB                     	;# 
  1036  0DAC                     	;# 
  1037  0DAC                     	;# 
  1038  0DAD                     	;# 
  1039  0DAD                     	;# 
  1040  0DAE                     	;# 
  1041  0DAF                     	;# 
  1042  0DB0                     	;# 
  1043  0DB1                     	;# 
  1044  0DB1                     	;# 
  1045  0DB2                     	;# 
  1046  0DB3                     	;# 
  1047  0DB3                     	;# 
  1048  0DB4                     	;# 
  1049  0DB5                     	;# 
  1050  0DB5                     	;# 
  1051  0DB6                     	;# 
  1052  0DB7                     	;# 
  1053  0DB7                     	;# 
  1054  0DB8                     	;# 
  1055  0DB9                     	;# 
  1056  0DB9                     	;# 
  1057  0DBA                     	;# 
  1058  0DBB                     	;# 
  1059  0DBC                     	;# 
  1060  0DBC                     	;# 
  1061  0DBD                     	;# 
  1062  0DBD                     	;# 
  1063  0DBE                     	;# 
  1064  0DBF                     	;# 
  1065  0DC0                     	;# 
  1066  0DC1                     	;# 
  1067  0DC1                     	;# 
  1068  0DC2                     	;# 
  1069  0DC3                     	;# 
  1070  0DC3                     	;# 
  1071  0DC4                     	;# 
  1072  0DC5                     	;# 
  1073  0DC5                     	;# 
  1074  0DC6                     	;# 
  1075  0DC7                     	;# 
  1076  0DC7                     	;# 
  1077  0DC8                     	;# 
  1078  0DC9                     	;# 
  1079  0DC9                     	;# 
  1080  0DCA                     	;# 
  1081  0DCB                     	;# 
  1082  0DCC                     	;# 
  1083  0DCC                     	;# 
  1084  0DCD                     	;# 
  1085  0DCD                     	;# 
  1086  0DCE                     	;# 
  1087  0DCF                     	;# 
  1088  0DD0                     	;# 
  1089  0E0F                     	;# 
  1090  0E10                     	;# 
  1091  0E11                     	;# 
  1092  0E12                     	;# 
  1093  0E13                     	;# 
  1094  0E14                     	;# 
  1095  0E15                     	;# 
  1096  0E16                     	;# 
  1097  0E17                     	;# 
  1098  0E90                     	;# 
  1099  0E91                     	;# 
  1100  0E92                     	;# 
  1101  0E94                     	;# 
  1102  0E95                     	;# 
  1103  0EA0                     	;# 
  1104  0EA1                     	;# 
  1105  0EA2                     	;# 
  1106  0EA3                     	;# 
  1107  0EA4                     	;# 
  1108  0EA5                     	;# 
  1109  0FE4                     	;# 
  1110  0FE5                     	;# 
  1111  0FE6                     	;# 
  1112  0FE7                     	;# 
  1113  0FE8                     	;# 
  1114  0FE8                     	;# 
  1115  0FE9                     	;# 
  1116  0FEA                     	;# 
  1117  0FEA                     	;# 
  1118  0FEB                     	;# 
  1119  0FED                     	;# 
  1120  0FEE                     	;# 
  1121  0FEE                     	;# 
  1122  0FEF                     	;# 
  1123  0000                     	;# 
  1124  0001                     	;# 
  1125  0002                     	;# 
  1126  0003                     	;# 
  1127  0004                     	;# 
  1128  0005                     	;# 
  1129  0006                     	;# 
  1130  0007                     	;# 
  1131  0008                     	;# 
  1132  0009                     	;# 
  1133  000A                     	;# 
  1134  000B                     	;# 
  1135  000C                     	;# 
  1136  000E                     	;# 
  1137  0011                     	;# 
  1138  0012                     	;# 
  1139  0013                     	;# 
  1140  0015                     	;# 
  1141  0016                     	;# 
  1142  0016                     	;# 
  1143  0017                     	;# 
  1144  0018                     	;# 
  1145  0019                     	;# 
  1146  001A                     	;# 
  1147  001B                     	;# 
  1148  001C                     	;# 
  1149  008C                     	;# 
  1150  008E                     	;# 
  1151  0091                     	;# 
  1152  0092                     	;# 
  1153  0093                     	;# 
  1154  0095                     	;# 
  1155  0096                     	;# 
  1156  0097                     	;# 
  1157  0098                     	;# 
  1158  0099                     	;# 
  1159  009A                     	;# 
  1160  009B                     	;# 
  1161  009B                     	;# 
  1162  009C                     	;# 
  1163  009D                     	;# 
  1164  009E                     	;# 
  1165  009F                     	;# 
  1166  010C                     	;# 
  1167  010E                     	;# 
  1168  0111                     	;# 
  1169  0112                     	;# 
  1170  0113                     	;# 
  1171  0114                     	;# 
  1172  0115                     	;# 
  1173  0116                     	;# 
  1174  0117                     	;# 
  1175  0118                     	;# 
  1176  0119                     	;# 
  1177  018C                     	;# 
  1178  018E                     	;# 
  1179  0191                     	;# 
  1180  0191                     	;# 
  1181  0192                     	;# 
  1182  0193                     	;# 
  1183  0193                     	;# 
  1184  0194                     	;# 
  1185  0195                     	;# 
  1186  0196                     	;# 
  1187  0197                     	;# 
  1188  0199                     	;# 
  1189  019A                     	;# 
  1190  019B                     	;# 
  1191  019B                     	;# 
  1192  019C                     	;# 
  1193  019D                     	;# 
  1194  019E                     	;# 
  1195  019F                     	;# 
  1196  020C                     	;# 
  1197  020E                     	;# 
  1198  028C                     	;# 
  1199  028E                     	;# 
  1200  030C                     	;# 
  1201  030E                     	;# 
  1202  038C                     	;# 
  1203  038E                     	;# 
  1204  0391                     	;# 
  1205  0392                     	;# 
  1206  0393                     	;# 
  1207  0397                     	;# 
  1208  0398                     	;# 
  1209  0399                     	;# 
  1210  0691                     	;# 
  1211  0692                     	;# 
  1212  0693                     	;# 
  1213  0694                     	;# 
  1214  0695                     	;# 
  1215  0D8E                     	;# 
  1216  0D8F                     	;# 
  1217  0D90                     	;# 
  1218  0D91                     	;# 
  1219  0D91                     	;# 
  1220  0D92                     	;# 
  1221  0D93                     	;# 
  1222  0D93                     	;# 
  1223  0D94                     	;# 
  1224  0D95                     	;# 
  1225  0D95                     	;# 
  1226  0D96                     	;# 
  1227  0D97                     	;# 
  1228  0D97                     	;# 
  1229  0D98                     	;# 
  1230  0D99                     	;# 
  1231  0D99                     	;# 
  1232  0D9A                     	;# 
  1233  0D9B                     	;# 
  1234  0D9C                     	;# 
  1235  0D9C                     	;# 
  1236  0D9D                     	;# 
  1237  0D9D                     	;# 
  1238  0D9E                     	;# 
  1239  0D9F                     	;# 
  1240  0DA0                     	;# 
  1241  0DA1                     	;# 
  1242  0DA1                     	;# 
  1243  0DA2                     	;# 
  1244  0DA3                     	;# 
  1245  0DA3                     	;# 
  1246  0DA4                     	;# 
  1247  0DA5                     	;# 
  1248  0DA5                     	;# 
  1249  0DA6                     	;# 
  1250  0DA7                     	;# 
  1251  0DA7                     	;# 
  1252  0DA8                     	;# 
  1253  0DA9                     	;# 
  1254  0DA9                     	;# 
  1255  0DAA                     	;# 
  1256  0DAB                     	;# 
  1257  0DAC                     	;# 
  1258  0DAC                     	;# 
  1259  0DAD                     	;# 
  1260  0DAD                     	;# 
  1261  0DAE                     	;# 
  1262  0DAF                     	;# 
  1263  0DB0                     	;# 
  1264  0DB1                     	;# 
  1265  0DB1                     	;# 
  1266  0DB2                     	;# 
  1267  0DB3                     	;# 
  1268  0DB3                     	;# 
  1269  0DB4                     	;# 
  1270  0DB5                     	;# 
  1271  0DB5                     	;# 
  1272  0DB6                     	;# 
  1273  0DB7                     	;# 
  1274  0DB7                     	;# 
  1275  0DB8                     	;# 
  1276  0DB9                     	;# 
  1277  0DB9                     	;# 
  1278  0DBA                     	;# 
  1279  0DBB                     	;# 
  1280  0DBC                     	;# 
  1281  0DBC                     	;# 
  1282  0DBD                     	;# 
  1283  0DBD                     	;# 
  1284  0DBE                     	;# 
  1285  0DBF                     	;# 
  1286  0DC0                     	;# 
  1287  0DC1                     	;# 
  1288  0DC1                     	;# 
  1289  0DC2                     	;# 
  1290  0DC3                     	;# 
  1291  0DC3                     	;# 
  1292  0DC4                     	;# 
  1293  0DC5                     	;# 
  1294  0DC5                     	;# 
  1295  0DC6                     	;# 
  1296  0DC7                     	;# 
  1297  0DC7                     	;# 
  1298  0DC8                     	;# 
  1299  0DC9                     	;# 
  1300  0DC9                     	;# 
  1301  0DCA                     	;# 
  1302  0DCB                     	;# 
  1303  0DCC                     	;# 
  1304  0DCC                     	;# 
  1305  0DCD                     	;# 
  1306  0DCD                     	;# 
  1307  0DCE                     	;# 
  1308  0DCF                     	;# 
  1309  0DD0                     	;# 
  1310  0E0F                     	;# 
  1311  0E10                     	;# 
  1312  0E11                     	;# 
  1313  0E12                     	;# 
  1314  0E13                     	;# 
  1315  0E14                     	;# 
  1316  0E15                     	;# 
  1317  0E16                     	;# 
  1318  0E17                     	;# 
  1319  0E90                     	;# 
  1320  0E91                     	;# 
  1321  0E92                     	;# 
  1322  0E94                     	;# 
  1323  0E95                     	;# 
  1324  0EA0                     	;# 
  1325  0EA1                     	;# 
  1326  0EA2                     	;# 
  1327  0EA3                     	;# 
  1328  0EA4                     	;# 
  1329  0EA5                     	;# 
  1330  0FE4                     	;# 
  1331  0FE5                     	;# 
  1332  0FE6                     	;# 
  1333  0FE7                     	;# 
  1334  0FE8                     	;# 
  1335  0FE8                     	;# 
  1336  0FE9                     	;# 
  1337  0FEA                     	;# 
  1338  0FEA                     	;# 
  1339  0FEB                     	;# 
  1340  0FED                     	;# 
  1341  0FEE                     	;# 
  1342  0FEE                     	;# 
  1343  0FEF                     	;# 
  1344  0000                     	;# 
  1345  0001                     	;# 
  1346  0002                     	;# 
  1347  0003                     	;# 
  1348  0004                     	;# 
  1349  0005                     	;# 
  1350  0006                     	;# 
  1351  0007                     	;# 
  1352  0008                     	;# 
  1353  0009                     	;# 
  1354  000A                     	;# 
  1355  000B                     	;# 
  1356  000C                     	;# 
  1357  000E                     	;# 
  1358  0011                     	;# 
  1359  0012                     	;# 
  1360  0013                     	;# 
  1361  0015                     	;# 
  1362  0016                     	;# 
  1363  0016                     	;# 
  1364  0017                     	;# 
  1365  0018                     	;# 
  1366  0019                     	;# 
  1367  001A                     	;# 
  1368  001B                     	;# 
  1369  001C                     	;# 
  1370  008C                     	;# 
  1371  008E                     	;# 
  1372  0091                     	;# 
  1373  0092                     	;# 
  1374  0093                     	;# 
  1375  0095                     	;# 
  1376  0096                     	;# 
  1377  0097                     	;# 
  1378  0098                     	;# 
  1379  0099                     	;# 
  1380  009A                     	;# 
  1381  009B                     	;# 
  1382  009B                     	;# 
  1383  009C                     	;# 
  1384  009D                     	;# 
  1385  009E                     	;# 
  1386  009F                     	;# 
  1387  010C                     	;# 
  1388  010E                     	;# 
  1389  0111                     	;# 
  1390  0112                     	;# 
  1391  0113                     	;# 
  1392  0114                     	;# 
  1393  0115                     	;# 
  1394  0116                     	;# 
  1395  0117                     	;# 
  1396  0118                     	;# 
  1397  0119                     	;# 
  1398  018C                     	;# 
  1399  018E                     	;# 
  1400  0191                     	;# 
  1401  0191                     	;# 
  1402  0192                     	;# 
  1403  0193                     	;# 
  1404  0193                     	;# 
  1405  0194                     	;# 
  1406  0195                     	;# 
  1407  0196                     	;# 
  1408  0197                     	;# 
  1409  0199                     	;# 
  1410  019A                     	;# 
  1411  019B                     	;# 
  1412  019B                     	;# 
  1413  019C                     	;# 
  1414  019D                     	;# 
  1415  019E                     	;# 
  1416  019F                     	;# 
  1417  020C                     	;# 
  1418  020E                     	;# 
  1419  028C                     	;# 
  1420  028E                     	;# 
  1421  030C                     	;# 
  1422  030E                     	;# 
  1423  038C                     	;# 
  1424  038E                     	;# 
  1425  0391                     	;# 
  1426  0392                     	;# 
  1427  0393                     	;# 
  1428  0397                     	;# 
  1429  0398                     	;# 
  1430  0399                     	;# 
  1431  0691                     	;# 
  1432  0692                     	;# 
  1433  0693                     	;# 
  1434  0694                     	;# 
  1435  0695                     	;# 
  1436  0D8E                     	;# 
  1437  0D8F                     	;# 
  1438  0D90                     	;# 
  1439  0D91                     	;# 
  1440  0D91                     	;# 
  1441  0D92                     	;# 
  1442  0D93                     	;# 
  1443  0D93                     	;# 
  1444  0D94                     	;# 
  1445  0D95                     	;# 
  1446  0D95                     	;# 
  1447  0D96                     	;# 
  1448  0D97                     	;# 
  1449  0D97                     	;# 
  1450  0D98                     	;# 
  1451  0D99                     	;# 
  1452  0D99                     	;# 
  1453  0D9A                     	;# 
  1454  0D9B                     	;# 
  1455  0D9C                     	;# 
  1456  0D9C                     	;# 
  1457  0D9D                     	;# 
  1458  0D9D                     	;# 
  1459  0D9E                     	;# 
  1460  0D9F                     	;# 
  1461  0DA0                     	;# 
  1462  0DA1                     	;# 
  1463  0DA1                     	;# 
  1464  0DA2                     	;# 
  1465  0DA3                     	;# 
  1466  0DA3                     	;# 
  1467  0DA4                     	;# 
  1468  0DA5                     	;# 
  1469  0DA5                     	;# 
  1470  0DA6                     	;# 
  1471  0DA7                     	;# 
  1472  0DA7                     	;# 
  1473  0DA8                     	;# 
  1474  0DA9                     	;# 
  1475  0DA9                     	;# 
  1476  0DAA                     	;# 
  1477  0DAB                     	;# 
  1478  0DAC                     	;# 
  1479  0DAC                     	;# 
  1480  0DAD                     	;# 
  1481  0DAD                     	;# 
  1482  0DAE                     	;# 
  1483  0DAF                     	;# 
  1484  0DB0                     	;# 
  1485  0DB1                     	;# 
  1486  0DB1                     	;# 
  1487  0DB2                     	;# 
  1488  0DB3                     	;# 
  1489  0DB3                     	;# 
  1490  0DB4                     	;# 
  1491  0DB5                     	;# 
  1492  0DB5                     	;# 
  1493  0DB6                     	;# 
  1494  0DB7                     	;# 
  1495  0DB7                     	;# 
  1496  0DB8                     	;# 
  1497  0DB9                     	;# 
  1498  0DB9                     	;# 
  1499  0DBA                     	;# 
  1500  0DBB                     	;# 
  1501  0DBC                     	;# 
  1502  0DBC                     	;# 
  1503  0DBD                     	;# 
  1504  0DBD                     	;# 
  1505  0DBE                     	;# 
  1506  0DBF                     	;# 
  1507  0DC0                     	;# 
  1508  0DC1                     	;# 
  1509  0DC1                     	;# 
  1510  0DC2                     	;# 
  1511  0DC3                     	;# 
  1512  0DC3                     	;# 
  1513  0DC4                     	;# 
  1514  0DC5                     	;# 
  1515  0DC5                     	;# 
  1516  0DC6                     	;# 
  1517  0DC7                     	;# 
  1518  0DC7                     	;# 
  1519  0DC8                     	;# 
  1520  0DC9                     	;# 
  1521  0DC9                     	;# 
  1522  0DCA                     	;# 
  1523  0DCB                     	;# 
  1524  0DCC                     	;# 
  1525  0DCC                     	;# 
  1526  0DCD                     	;# 
  1527  0DCD                     	;# 
  1528  0DCE                     	;# 
  1529  0DCF                     	;# 
  1530  0DD0                     	;# 
  1531  0E0F                     	;# 
  1532  0E10                     	;# 
  1533  0E11                     	;# 
  1534  0E12                     	;# 
  1535  0E13                     	;# 
  1536  0E14                     	;# 
  1537  0E15                     	;# 
  1538  0E16                     	;# 
  1539  0E17                     	;# 
  1540  0E90                     	;# 
  1541  0E91                     	;# 
  1542  0E92                     	;# 
  1543  0E94                     	;# 
  1544  0E95                     	;# 
  1545  0EA0                     	;# 
  1546  0EA1                     	;# 
  1547  0EA2                     	;# 
  1548  0EA3                     	;# 
  1549  0EA4                     	;# 
  1550  0EA5                     	;# 
  1551  0FE4                     	;# 
  1552  0FE5                     	;# 
  1553  0FE6                     	;# 
  1554  0FE7                     	;# 
  1555  0FE8                     	;# 
  1556  0FE8                     	;# 
  1557  0FE9                     	;# 
  1558  0FEA                     	;# 
  1559  0FEA                     	;# 
  1560  0FEB                     	;# 
  1561  0FED                     	;# 
  1562  0FEE                     	;# 
  1563  0FEE                     	;# 
  1564  0FEF                     	;# 
  1565                           
  1566                           	psect	idataBANK0
  1567  0000                     __pidataBANK0:	
  1568  000B                     _INTCONbits	set	11
  1569  0011                     _PIR1bits	set	17
  1570  000E                     _PORTCbits	set	14
  1571  0018                     _T1CON	set	24
  1572  0018                     _T1CONbits	set	24
  1573  0019                     _T1GCON	set	25
  1574  0017                     _TMR1H	set	23
  1575  0016                     _TMR1L	set	22
  1576  005F                     _GIE	set	95
  1577  0095                     _OPTION_REGbits	set	149
  1578  0099                     _OSCCON	set	153
  1579  0098                     _OSCTUNE	set	152
  1580  0091                     _PIE1bits	set	145
  1581  008C                     _TRISA	set	140
  1582  008E                     _TRISC	set	142
  1583  0097                     _WDTCON	set	151
  1584  04D6                     _PLLR	set	1238
  1585  010C                     _LATA	set	268
  1586  010C                     _LATAbits	set	268
  1587  010E                     _LATC	set	270
  1588  018C                     _ANSELA	set	396
  1589  018E                     _ANSELC	set	398
  1590  020C                     _WPUA	set	524
  1591  020E                     _WPUC	set	526
  1592  0D9E                     _PWM1CLKCON	set	3486
  1593  0D9B                     _PWM1CON	set	3483
  1594  0D9B                     _PWM1CONbits	set	3483
  1595  0D94                     _PWM1DCH	set	3476
  1596  0D93                     _PWM1DCL	set	3475
  1597  0D9C                     _PWM1INTE	set	3484
  1598  0D9D                     _PWM1INTF	set	3485
  1599  0D9F                     _PWM1LDCON	set	3487
  1600  0DA0                     _PWM1OFCON	set	3488
  1601  0D98                     _PWM1OFH	set	3480
  1602  0D97                     _PWM1OFL	set	3479
  1603  0D92                     _PWM1PHH	set	3474
  1604  0D91                     _PWM1PHL	set	3473
  1605  0D96                     _PWM1PRH	set	3478
  1606  0D95                     _PWM1PRL	set	3477
  1607  0D9A                     _PWM1TMRH	set	3482
  1608  0D99                     _PWM1TMRL	set	3481
  1609  0E0F                     _PPSLOCK	set	3599
  1610  0E0F                     _PPSLOCKbits	set	3599
  1611  0EA0                     _RC0PPSbits	set	3744
  1612                           
  1613                           ; #config settings
  1614  0000                     
  1615                           	psect	cinit
  1616  0014                     start_initialization:	
  1617  0014                     __initialization:	
  1618                           
  1619                           ;initializer for _dwell_timeout
  1620  0014  3020               	movlw	32
  1621  0015  00BE               	movwf	__pdataBANK0& (0+127)
  1622  0016  30BF               	movlw	191
  1623  0017  00BF               	movwf	(__pdataBANK0+1)& (0+127)
  1624  0018  3002               	movlw	2
  1625  0019  00C0               	movwf	(__pdataBANK0+2)& (0+127)
  1626  001A  3020               	movlw	low __pbssBANK0
  1627  001B  01C1               	clrf	(__pdataBANK0+3)& (0+127)
  1628                           
  1629                           ; Clear objects allocated to COMMON
  1630  001C  01FC               	clrf	__pbssCOMMON& (0+127)
  1631  001D  01FD               	clrf	(__pbssCOMMON+1)& (0+127)
  1632                           
  1633                           ; Clear objects allocated to BANK0
  1634  001E  0084               	movwf	4
  1635  001F  3000               	movlw	high __pbssBANK0
  1636  0020  0085               	movwf	5
  1637  0021  301E               	movlw	30
  1638  0022  3182  2219  3180   	fcall	clear_ram0
  1639  0025                     end_of_initialization:	
  1640                           ;End of C runtime variable initialization code
  1641                           
  1642  0025                     __end_of__initialization:	
  1643  0025  107E               	bcf	126,0	;clear compiler interrupt flag (level 1)
  1644  0026  0020               	movlb	0
  1645  0027  2828               	ljmp	_main	;jump to C main() function
  1646  0028                     __pmaintext:	
  1647 ;;
  1648 ;;Main: autosize = 0, tempsize = 0, incstack = 0, save=0
  1649 ;;
  1650 ;; *************** function _main *****************
  1651 ;; Defined at:
  1652 ;;		line 60 in file "main.c"
  1653 ;; Parameters:    Size  Location     Type
  1654 ;;		None
  1655 ;; Auto vars:     Size  Location     Type
  1656 ;;		None
  1657 ;; Return value:  Size  Location     Type
  1658 ;;                  2  266[None  ] int 
  1659 ;; Registers used:
  1660 ;;		wreg, fsr0l, fsr0h, fsr1l, fsr1h, status,2, status,0, pclath, cstack
  1661 ;; Tracked objects:
  1662 ;;		On entry : B1F/0
  1663 ;;		On exit  : 1F/0
  1664 ;;		Unchanged: 0/0
  1665 ;; Data sizes:     COMMON   BANK0   BANK1   BANK2   BANK3   BANK4   BANK5   BANK6   BANK7   BANK8   BANK9  BANK10  BANK1
      +1  BANK12
  1666 ;;      Params:         0       0       0       0       0       0       0       0       0       0       0       0       
      +0       0
  1667 ;;      Locals:         0       0       0       0       0       0       0       0       0       0       0       0       
      +0       0
  1668 ;;      Temps:          0       0       0       0       0       0       0       0       0       0       0       0       
      +0       0
  1669 ;;      Totals:         0       0       0       0       0       0       0       0       0       0       0       0       
      +0       0
  1670 ;;Total ram usage:        0 bytes
  1671 ;; Hardware stack levels required when called:    8
  1672 ;; This function calls:
  1673 ;;		_ButtonPressed
  1674 ;;		_GetSysTick
  1675 ;;		_PWM1_Start
  1676 ;;		_PWM1_Stop
  1677 ;;		_debounceInput
  1678 ;;		_initSysTick
  1679 ;;		_init_hardware
  1680 ;;		_timePassed
  1681 ;; This function is called by:
  1682 ;;		Startup code after reset
  1683 ;; This function uses a non-reentrant model
  1684 ;;
  1685                           
  1686                           
  1687                           ;psect for function _main
  1688  0028                     _main:	
  1689                           
  1690                           ;main.c: 62: init_hardware();
  1691                           
  1692                           ;incstack = 0
  1693                           ; Regs used in _main: [wreg-fsr1h+status,2+status,0+pclath+cstack]
  1694  0028  217E  3180         	fcall	_init_hardware
  1695                           
  1696                           ;main.c: 63: initSysTick();
  1697  002A  2152  3180         	fcall	_initSysTick
  1698                           
  1699                           ;main.c: 65: (INTCONbits.PEIE = 1);
  1700  002C  170B               	bsf	11,6	;volatile
  1701                           
  1702                           ;main.c: 66: (INTCONbits.GIE = 1);
  1703  002D  178B               	bsf	11,7	;volatile
  1704  002E                     l1156:	
  1705                           
  1706                           ;main.c: 69: {
  1707                           ;main.c: 70: if(SysTick_Ticked)
  1708  002E  087C               	movf	_SysTick_Ticked,w	;volatile
  1709  002F  1903               	btfsc	3,2
  1710  0030  282E               	goto	l1156
  1711                           
  1712                           ;main.c: 71: {
  1713                           ;main.c: 72: SysTick_Ticked = 0;
  1714  0031  01FC               	clrf	_SysTick_Ticked	;volatile
  1715                           
  1716                           ;main.c: 73: if( timePassed( task_10mS ) >= 10 )
  1717  0032  082B               	movf	_task_10mS+3,w
  1718  0033  00F7               	movwf	timePassed@timeOrig+3
  1719  0034  082A               	movf	_task_10mS+2,w
  1720  0035  00F6               	movwf	timePassed@timeOrig+2
  1721  0036  0829               	movf	_task_10mS+1,w
  1722  0037  00F5               	movwf	timePassed@timeOrig+1
  1723  0038  0828               	movf	_task_10mS,w
  1724  0039  00F4               	movwf	timePassed@timeOrig
  1725  003A  20DD  3180         	fcall	_timePassed
  1726  003C  0877               	movf	?_timePassed+3,w
  1727  003D  1D03               	btfss	3,2
  1728  003E  2849               	goto	l1162
  1729  003F  0876               	movf	?_timePassed+2,w
  1730  0040  1D03               	btfss	3,2
  1731  0041  2849               	goto	l1162
  1732  0042  0875               	movf	?_timePassed+1,w
  1733  0043  1D03               	btfss	3,2
  1734  0044  2849               	goto	l1162
  1735  0045  300A               	movlw	10
  1736  0046  0274               	subwf	?_timePassed,w
  1737  0047  1C03               	btfss	3,0
  1738  0048  28A2               	goto	l1192
  1739  0049                     l1162:	
  1740                           
  1741                           ;main.c: 74: {
  1742                           ;main.c: 75: task_10mS = GetSysTick();
  1743  0049  20D4  3180         	fcall	_GetSysTick
  1744  004B  0873               	movf	?_GetSysTick+3,w
  1745  004C  00AB               	movwf	_task_10mS+3
  1746  004D  0872               	movf	?_GetSysTick+2,w
  1747  004E  00AA               	movwf	_task_10mS+2
  1748  004F  0871               	movf	?_GetSysTick+1,w
  1749  0050  00A9               	movwf	_task_10mS+1
  1750  0051  0870               	movf	?_GetSysTick,w
  1751  0052  00A8               	movwf	_task_10mS
  1752                           
  1753                           ;main.c: 76: debounceInput( &btn_start, PORTCbits.RC1 );
  1754  0053  3000               	movlw	0
  1755  0054  188E               	btfsc	14,1	;volatile
  1756  0055  3001               	movlw	1
  1757  0056  00F0               	movwf	debounceInput@rawInput
  1758  0057  3034               	movlw	(low (_btn_start| 0))& (0+255)
  1759  0058  2106  3180         	fcall	_debounceInput
  1760                           
  1761                           ;main.c: 77: debounceInput( &btn_stop, PORTCbits.RC2 );
  1762  005A  3000               	movlw	0
  1763  005B  190E               	btfsc	14,2	;volatile
  1764  005C  3001               	movlw	1
  1765  005D  00F0               	movwf	debounceInput@rawInput
  1766  005E  3039               	movlw	(low (_btn_stop| 0))& (0+255)
  1767  005F  2106  3180         	fcall	_debounceInput
  1768                           
  1769                           ;main.c: 79: if( is_unit_running )
  1770  0061  087D               	movf	_is_unit_running,w
  1771  0062  1903               	btfsc	3,2
  1772  0063  288A               	goto	l1180
  1773                           
  1774                           ;main.c: 80: {
  1775                           ;main.c: 81: if( timePassed( dwell_timer_ms ) >= dwell_timeout || ButtonPressed( &btn_st
      +                          op) )
  1776  0064  0827               	movf	_dwell_timer_ms+3,w
  1777  0065  00F7               	movwf	timePassed@timeOrig+3
  1778  0066  0826               	movf	_dwell_timer_ms+2,w
  1779  0067  00F6               	movwf	timePassed@timeOrig+2
  1780  0068  0825               	movf	_dwell_timer_ms+1,w
  1781  0069  00F5               	movwf	timePassed@timeOrig+1
  1782  006A  0824               	movf	_dwell_timer_ms,w
  1783  006B  00F4               	movwf	timePassed@timeOrig
  1784  006C  20DD  3180         	fcall	_timePassed
  1785  006E  0841               	movf	_dwell_timeout+3,w
  1786  006F  0277               	subwf	?_timePassed+3,w
  1787  0070  1D03               	skipz
  1788  0071  287C               	goto	u425
  1789  0072  0840               	movf	_dwell_timeout+2,w
  1790  0073  0276               	subwf	?_timePassed+2,w
  1791  0074  1D03               	skipz
  1792  0075  287C               	goto	u425
  1793  0076  083F               	movf	_dwell_timeout+1,w
  1794  0077  0275               	subwf	?_timePassed+1,w
  1795  0078  1D03               	skipz
  1796  0079  287C               	goto	u425
  1797  007A  083E               	movf	_dwell_timeout,w
  1798  007B  0274               	subwf	?_timePassed,w
  1799  007C                     u425:	
  1800  007C  1803               	skipnc
  1801  007D  2884               	goto	l1174
  1802  007E  3039               	movlw	(low (_btn_stop| 0))& (0+255)
  1803  007F  20FA  3180         	fcall	_ButtonPressed
  1804  0081  3A00               	xorlw	0
  1805  0082  1903               	skipnz
  1806  0083  28A2               	goto	l1192
  1807  0084                     l1174:	
  1808                           
  1809                           ;main.c: 82: {
  1810                           ;main.c: 83: PWM1_Stop();
  1811  0084  214D  3180         	fcall	_PWM1_Stop
  1812  0086  0022               	movlb	2	; select bank2
  1813  0087  110C               	bcf	12,2	;volatile
  1814                           
  1815                           ;main.c: 85: is_unit_running = 0;
  1816  0088  01FD               	clrf	_is_unit_running
  1817  0089  28A2               	goto	l1192
  1818  008A                     l1180:	
  1819                           
  1820                           ;main.c: 88: else
  1821                           ;main.c: 89: {
  1822                           ;main.c: 90: if( ButtonPressed( &btn_start))
  1823  008A  3034               	movlw	(low (_btn_start| 0))& (0+255)
  1824  008B  20FA  3180         	fcall	_ButtonPressed
  1825  008D  3A00               	xorlw	0
  1826  008E  1903               	skipnz
  1827  008F  28A2               	goto	l1192
  1828                           
  1829                           ;main.c: 91: {
  1830                           ;main.c: 92: dwell_timer_ms = GetSysTick();
  1831  0090  20D4  3180         	fcall	_GetSysTick
  1832  0092  0873               	movf	?_GetSysTick+3,w
  1833  0093  00A7               	movwf	_dwell_timer_ms+3
  1834  0094  0872               	movf	?_GetSysTick+2,w
  1835  0095  00A6               	movwf	_dwell_timer_ms+2
  1836  0096  0871               	movf	?_GetSysTick+1,w
  1837  0097  00A5               	movwf	_dwell_timer_ms+1
  1838  0098  0870               	movf	?_GetSysTick,w
  1839  0099  00A4               	movwf	_dwell_timer_ms
  1840  009A  0022               	movlb	2	; select bank2
  1841  009B  150C               	bsf	12,2	;volatile
  1842                           
  1843                           ;main.c: 94: is_unit_running = 1;
  1844  009C  01FD               	clrf	_is_unit_running
  1845  009D  0AFD               	incf	_is_unit_running,f
  1846                           
  1847                           ;main.c: 95: PWM1_Stop();
  1848  009E  214D  3180         	fcall	_PWM1_Stop
  1849                           
  1850                           ;main.c: 96: PWM1_Start();
  1851  00A0  2150  3180         	fcall	_PWM1_Start
  1852  00A2                     l1192:	
  1853                           
  1854                           ;main.c: 97: }
  1855                           ;main.c: 98: }
  1856                           ;main.c: 99: }
  1857                           ;main.c: 100: if( timePassed( task_1s ) >= 1000 )
  1858  00A2  0020               	movlb	0	; select bank0
  1859  00A3  082F               	movf	_task_1s+3,w
  1860  00A4  00F7               	movwf	timePassed@timeOrig+3
  1861  00A5  082E               	movf	_task_1s+2,w
  1862  00A6  00F6               	movwf	timePassed@timeOrig+2
  1863  00A7  082D               	movf	_task_1s+1,w
  1864  00A8  00F5               	movwf	timePassed@timeOrig+1
  1865  00A9  082C               	movf	_task_1s,w
  1866  00AA  00F4               	movwf	timePassed@timeOrig
  1867  00AB  20DD  3180         	fcall	_timePassed
  1868  00AD  0877               	movf	?_timePassed+3,w
  1869  00AE  1D03               	btfss	3,2
  1870  00AF  28B9               	goto	l1194
  1871  00B0  0876               	movf	?_timePassed+2,w
  1872  00B1  1D03               	btfss	3,2
  1873  00B2  28B9               	goto	l1194
  1874  00B3  30E8               	movlw	232
  1875  00B4  0274               	subwf	?_timePassed,w
  1876  00B5  3003               	movlw	3
  1877  00B6  3B75               	subwfb	?_timePassed+1,w
  1878  00B7  1C03               	btfss	3,0
  1879  00B8  282E               	goto	l1156
  1880  00B9                     l1194:	
  1881                           
  1882                           ;main.c: 101: {
  1883                           ;main.c: 102: task_1s = GetSysTick();
  1884  00B9  20D4  3180         	fcall	_GetSysTick
  1885  00BB  0873               	movf	?_GetSysTick+3,w
  1886  00BC  00AF               	movwf	_task_1s+3
  1887  00BD  0872               	movf	?_GetSysTick+2,w
  1888  00BE  00AE               	movwf	_task_1s+2
  1889  00BF  0871               	movf	?_GetSysTick+1,w
  1890  00C0  00AD               	movwf	_task_1s+1
  1891  00C1  0870               	movf	?_GetSysTick,w
  1892  00C2  00AC               	movwf	_task_1s
  1893                           
  1894                           ;main.c: 103: dwell_timeout = ( (PORTCbits.RC3 == 0) ? ( 10UL * 60UL * 1000UL) : ( 3UL *
      +                           60UL * 1000UL));
  1895  00C3  1D8E               	btfss	14,3	;volatile
  1896  00C4  28CC               	goto	l1200
  1897  00C5  3002               	movlw	2
  1898  00C6  01C1               	clrf	_dwell_timeout+3
  1899  00C7  00C0               	movwf	_dwell_timeout+2
  1900  00C8  30BF               	movlw	191
  1901  00C9  00BF               	movwf	_dwell_timeout+1
  1902  00CA  3020               	movlw	32
  1903  00CB  28D2               	goto	L1
  1904  00CC                     l1200:	
  1905  00CC  3009               	movlw	9
  1906  00CD  01C1               	clrf	_dwell_timeout+3
  1907  00CE  00C0               	movwf	_dwell_timeout+2
  1908  00CF  3027               	movlw	39
  1909  00D0  00BF               	movwf	_dwell_timeout+1
  1910  00D1  30C0               	movlw	192
  1911  00D2                     L1:	
  1912  00D2  00BE               	movwf	_dwell_timeout
  1913  00D3  282E               	goto	l1156
  1914  00D4                     __end_of_main:	
  1915  00D4                     __ptext2:	
  1916 ;; *************** function _GetSysTick *****************
  1917 ;; Defined at:
  1918 ;;		line 69 in file "system_Tick.c"
  1919 ;; Parameters:    Size  Location     Type
  1920 ;;		None
  1921 ;; Auto vars:     Size  Location     Type
  1922 ;;		None
  1923 ;; Return value:  Size  Location     Type
  1924 ;;                  4    0[COMMON] unsigned long 
  1925 ;; Registers used:
  1926 ;;		wreg
  1927 ;; Tracked objects:
  1928 ;;		On entry : 1F/0
  1929 ;;		On exit  : 1F/0
  1930 ;;		Unchanged: 0/0
  1931 ;; Data sizes:     COMMON   BANK0   BANK1   BANK2   BANK3   BANK4   BANK5   BANK6   BANK7   BANK8   BANK9  BANK10  BANK1
      +1  BANK12
  1932 ;;      Params:         4       0       0       0       0       0       0       0       0       0       0       0       
      +0       0
  1933 ;;      Locals:         0       0       0       0       0       0       0       0       0       0       0       0       
      +0       0
  1934 ;;      Temps:          0       0       0       0       0       0       0       0       0       0       0       0       
      +0       0
  1935 ;;      Totals:         4       0       0       0       0       0       0       0       0       0       0       0       
      +0       0
  1936 ;;Total ram usage:        4 bytes
  1937 ;; Hardware stack levels used:    1
  1938 ;; Hardware stack levels required when called:    4
  1939 ;; This function calls:
  1940 ;;		Nothing
  1941 ;; This function is called by:
  1942 ;;		_main
  1943 ;;		_timePassed
  1944 ;; This function uses a non-reentrant model
  1945 ;;
  1946                           
  1947                           
  1948                           ;psect for function _GetSysTick
  1949  00D4                     _GetSysTick:	
  1950                           
  1951                           ;system_Tick.c: 71: return SysTick;
  1952                           
  1953                           ;incstack = 0
  1954                           ; Regs used in _GetSysTick: [wreg]
  1955  00D4  0823               	movf	_SysTick+3,w	;volatile
  1956  00D5  00F3               	movwf	?_GetSysTick+3
  1957  00D6  0822               	movf	_SysTick+2,w	;volatile
  1958  00D7  00F2               	movwf	?_GetSysTick+2
  1959  00D8  0821               	movf	_SysTick+1,w	;volatile
  1960  00D9  00F1               	movwf	?_GetSysTick+1
  1961  00DA  0820               	movf	_SysTick,w	;volatile
  1962  00DB  00F0               	movwf	?_GetSysTick
  1963  00DC  0008               	return
  1964  00DD                     __end_of_GetSysTick:	
  1965  00DD                     __ptext1:	
  1966 ;; *************** function _timePassed *****************
  1967 ;; Defined at:
  1968 ;;		line 117 in file "system_Tick.c"
  1969 ;; Parameters:    Size  Location     Type
  1970 ;;  timeOrig        4    4[COMMON] unsigned long 
  1971 ;; Auto vars:     Size  Location     Type
  1972 ;;  now             4    0[BANK0 ] unsigned long 
  1973 ;; Return value:  Size  Location     Type
  1974 ;;                  4    4[COMMON] unsigned long 
  1975 ;; Registers used:
  1976 ;;		wreg, pclath, cstack
  1977 ;; Tracked objects:
  1978 ;;		On entry : 1F/0
  1979 ;;		On exit  : 1F/0
  1980 ;;		Unchanged: 0/0
  1981 ;; Data sizes:     COMMON   BANK0   BANK1   BANK2   BANK3   BANK4   BANK5   BANK6   BANK7   BANK8   BANK9  BANK10  BANK1
      +1  BANK12
  1982 ;;      Params:         4       0       0       0       0       0       0       0       0       0       0       0       
      +0       0
  1983 ;;      Locals:         0       4       0       0       0       0       0       0       0       0       0       0       
      +0       0
  1984 ;;      Temps:          4       0       0       0       0       0       0       0       0       0       0       0       
      +0       0
  1985 ;;      Totals:         8       4       0       0       0       0       0       0       0       0       0       0       
      +0       0
  1986 ;;Total ram usage:       12 bytes
  1987 ;; Hardware stack levels used:    1
  1988 ;; Hardware stack levels required when called:    5
  1989 ;; This function calls:
  1990 ;;		_GetSysTick
  1991 ;; This function is called by:
  1992 ;;		_main
  1993 ;; This function uses a non-reentrant model
  1994 ;;
  1995                           
  1996                           
  1997                           ;psect for function _timePassed
  1998  00DD                     _timePassed:	
  1999                           
  2000                           ;system_Tick.c: 119: uint32_t now = GetSysTick();
  2001                           
  2002                           ;incstack = 0
  2003                           ; Regs used in _timePassed: [wreg+pclath+cstack]
  2004  00DD  20D4               	fcall	_GetSysTick
  2005  00DE  0873               	movf	?_GetSysTick+3,w
  2006  00DF  00C5               	movwf	timePassed@now+3
  2007  00E0  0872               	movf	?_GetSysTick+2,w
  2008  00E1  00C4               	movwf	timePassed@now+2
  2009  00E2  0871               	movf	?_GetSysTick+1,w
  2010  00E3  00C3               	movwf	timePassed@now+1
  2011  00E4  0870               	movf	?_GetSysTick,w
  2012  00E5  00C2               	movwf	timePassed@now
  2013                           
  2014                           ;system_Tick.c: 122: {
  2015                           ;system_Tick.c: 123: return (now - timeOrig);
  2016  00E6  0874               	movf	timePassed@timeOrig,w
  2017  00E7  0242               	subwf	timePassed@now,w
  2018  00E8  00F8               	movwf	??_timePassed
  2019  00E9  0875               	movf	timePassed@timeOrig+1,w
  2020  00EA  3B43               	subwfb	timePassed@now+1,w
  2021  00EB  00F9               	movwf	??_timePassed+1
  2022  00EC  0876               	movf	timePassed@timeOrig+2,w
  2023  00ED  3B44               	subwfb	timePassed@now+2,w
  2024  00EE  00FA               	movwf	??_timePassed+2
  2025  00EF  0877               	movf	timePassed@timeOrig+3,w
  2026  00F0  3B45               	subwfb	timePassed@now+3,w
  2027  00F1  00FB               	movwf	??_timePassed+3
  2028  00F2  00F7               	movwf	?_timePassed+3
  2029  00F3  087A               	movf	??_timePassed+2,w
  2030  00F4  00F6               	movwf	?_timePassed+2
  2031  00F5  0879               	movf	??_timePassed+1,w
  2032  00F6  00F5               	movwf	?_timePassed+1
  2033  00F7  0878               	movf	??_timePassed,w
  2034  00F8  00F4               	movwf	?_timePassed
  2035  00F9  0008               	return
  2036  00FA                     __end_of_timePassed:	
  2037  00FA                     __ptext18:	
  2038 ;; *************** function _ButtonPressed *****************
  2039 ;; Defined at:
  2040 ;;		line 117 in file "user_debounce.c"
  2041 ;; Parameters:    Size  Location     Type
  2042 ;;  pin             1    wreg     PTR struct .
  2043 ;;		 -> btn_stop(5), btn_start(5), 
  2044 ;; Auto vars:     Size  Location     Type
  2045 ;;  pin             1    0[COMMON] PTR struct .
  2046 ;;		 -> btn_stop(5), btn_start(5), 
  2047 ;; Return value:  Size  Location     Type
  2048 ;;                  1    wreg      unsigned char 
  2049 ;; Registers used:
  2050 ;;		wreg, fsr0l, fsr0h, fsr1l, fsr1h, status,2, status,0
  2051 ;; Tracked objects:
  2052 ;;		On entry : 1F/0
  2053 ;;		On exit  : 1F/0
  2054 ;;		Unchanged: 1F/0
  2055 ;; Data sizes:     COMMON   BANK0   BANK1   BANK2   BANK3   BANK4   BANK5   BANK6   BANK7   BANK8   BANK9  BANK10  BANK1
      +1  BANK12
  2056 ;;      Params:         0       0       0       0       0       0       0       0       0       0       0       0       
      +0       0
  2057 ;;      Locals:         1       0       0       0       0       0       0       0       0       0       0       0       
      +0       0
  2058 ;;      Temps:          0       0       0       0       0       0       0       0       0       0       0       0       
      +0       0
  2059 ;;      Totals:         1       0       0       0       0       0       0       0       0       0       0       0       
      +0       0
  2060 ;;Total ram usage:        1 bytes
  2061 ;; Hardware stack levels used:    1
  2062 ;; Hardware stack levels required when called:    4
  2063 ;; This function calls:
  2064 ;;		Nothing
  2065 ;; This function is called by:
  2066 ;;		_main
  2067 ;; This function uses a non-reentrant model
  2068 ;;
  2069                           
  2070                           
  2071                           ;psect for function _ButtonPressed
  2072  00FA                     _ButtonPressed:	
  2073                           
  2074                           ;incstack = 0
  2075                           ; Regs used in _ButtonPressed: [wreg-fsr1h+status,2+status,0]
  2076                           ;ButtonPressed@pin stored from wreg
  2077  00FA  00F0               	movwf	ButtonPressed@pin
  2078                           
  2079                           ;user_debounce.c: 119: return( (pin->debouncedState == pin->activeState));
  2080  00FB  3E04               	addlw	4
  2081  00FC  0086               	movwf	6
  2082  00FD  0187               	clrf	7
  2083  00FE  0A70               	incf	ButtonPressed@pin,w
  2084  00FF  0084               	movwf	4
  2085  0100  0185               	clrf	5
  2086  0101  0800               	movf	0,w
  2087  0102  0601               	xorwf	1,w
  2088  0103  1903               	skipnz
  2089  0104  3401               	retlw	1
  2090  0105  3400               	retlw	0
  2091  0106                     __end_of_ButtonPressed:	
  2092  0106                     __ptext16:	
  2093 ;; *************** function _debounceInput *****************
  2094 ;; Defined at:
  2095 ;;		line 79 in file "user_debounce.c"
  2096 ;; Parameters:    Size  Location     Type
  2097 ;;  pin             1    wreg     PTR struct .
  2098 ;;		 -> btn_stop(5), btn_start(5), 
  2099 ;;  rawInput        1    0[COMMON] unsigned char 
  2100 ;; Auto vars:     Size  Location     Type
  2101 ;;  pin             1    1[COMMON] PTR struct .
  2102 ;;		 -> btn_stop(5), btn_start(5), 
  2103 ;; Return value:  Size  Location     Type
  2104 ;;                  1    wreg      void 
  2105 ;; Registers used:
  2106 ;;		wreg, fsr0l, fsr0h, fsr1l, fsr1h, status,2, status,0
  2107 ;; Tracked objects:
  2108 ;;		On entry : 1F/0
  2109 ;;		On exit  : 1F/0
  2110 ;;		Unchanged: 1F/0
  2111 ;; Data sizes:     COMMON   BANK0   BANK1   BANK2   BANK3   BANK4   BANK5   BANK6   BANK7   BANK8   BANK9  BANK10  BANK1
      +1  BANK12
  2112 ;;      Params:         1       0       0       0       0       0       0       0       0       0       0       0       
      +0       0
  2113 ;;      Locals:         1       0       0       0       0       0       0       0       0       0       0       0       
      +0       0
  2114 ;;      Temps:          0       0       0       0       0       0       0       0       0       0       0       0       
      +0       0
  2115 ;;      Totals:         2       0       0       0       0       0       0       0       0       0       0       0       
      +0       0
  2116 ;;Total ram usage:        2 bytes
  2117 ;; Hardware stack levels used:    1
  2118 ;; Hardware stack levels required when called:    4
  2119 ;; This function calls:
  2120 ;;		Nothing
  2121 ;; This function is called by:
  2122 ;;		_main
  2123 ;; This function uses a non-reentrant model
  2124 ;;
  2125                           
  2126                           
  2127                           ;psect for function _debounceInput
  2128  0106                     _debounceInput:	
  2129                           
  2130                           ;incstack = 0
  2131                           ; Regs used in _debounceInput: [wreg-fsr1h+status,2+status,0]
  2132                           ;debounceInput@pin stored from wreg
  2133  0106  00F1               	movwf	debounceInput@pin
  2134                           
  2135                           ;user_debounce.c: 81: pin->prevDebouncedState = pin->debouncedState;
  2136  0107  3E02               	addlw	2
  2137  0108  0086               	movwf	6
  2138  0109  0187               	clrf	7
  2139  010A  0A71               	incf	debounceInput@pin,w
  2140  010B  0084               	movwf	4
  2141  010C  0185               	clrf	5
  2142  010D  0800               	movf	0,w
  2143  010E  0081               	movwf	1
  2144                           
  2145                           ;user_debounce.c: 82: if(rawInput)
  2146  010F  0870               	movf	debounceInput@rawInput,w
  2147  0110  1903               	btfsc	3,2
  2148  0111  2916               	goto	l1118
  2149                           
  2150                           ;user_debounce.c: 83: {
  2151                           ;user_debounce.c: 84: pin->counter++;
  2152  0112  0871               	movf	debounceInput@pin,w
  2153  0113  0086               	movwf	6
  2154  0114  0A81               	incf	1,f
  2155                           
  2156                           ;user_debounce.c: 85: }
  2157  0115  291A               	goto	l1120
  2158  0116                     l1118:	
  2159                           
  2160                           ;user_debounce.c: 86: else
  2161                           ;user_debounce.c: 87: {
  2162                           ;user_debounce.c: 88: pin->counter--;
  2163  0116  0871               	movf	debounceInput@pin,w
  2164  0117  0086               	movwf	6
  2165  0118  0187               	clrf	7
  2166  0119  0381               	decf	1,f
  2167  011A                     l1120:	
  2168                           
  2169                           ;user_debounce.c: 89: }
  2170                           ;user_debounce.c: 91: if( pin->counter > ( 5 + 5))
  2171  011A  0871               	movf	debounceInput@pin,w
  2172  011B  0086               	movwf	6
  2173  011C  300B               	movlw	11
  2174  011D  0187               	clrf	7
  2175  011E  0201               	subwf	1,w
  2176                           
  2177                           ;user_debounce.c: 92: {
  2178                           ;user_debounce.c: 93: pin->counter = ( 5 + 5);
  2179  011F  0871               	movf	debounceInput@pin,w
  2180  0120  0086               	movwf	6
  2181  0121  1C03               	skipc
  2182  0122  292A               	goto	L2
  2183  0123  300A               	movlw	10
  2184  0124  0081               	movwf	1
  2185                           
  2186                           ;user_debounce.c: 94: pin->debouncedState = 1;
  2187  0125  0A71               	incf	debounceInput@pin,w
  2188  0126  0086               	movwf	6
  2189  0127  0181               	clrf	1
  2190  0128  0A81               	incf	1,f
  2191                           
  2192                           ;user_debounce.c: 95: }
  2193  0129  2936               	goto	l1130
  2194  012A                     L2:	
  2195                           ;user_debounce.c: 96: else if( pin->counter < 5)
  2196                           
  2197  012A  3005               	movlw	5
  2198  012B  0187               	clrf	7
  2199  012C  0201               	subwf	1,w
  2200  012D  1803               	skipnc
  2201  012E  2936               	goto	l1130
  2202                           
  2203                           ;user_debounce.c: 97: {
  2204                           ;user_debounce.c: 98: pin->counter = 5;
  2205  012F  0871               	movf	debounceInput@pin,w
  2206  0130  0086               	movwf	6
  2207  0131  3005               	movlw	5
  2208  0132  0081               	movwf	1
  2209                           
  2210                           ;user_debounce.c: 99: pin->debouncedState = 0;
  2211  0133  0A71               	incf	debounceInput@pin,w
  2212  0134  0086               	movwf	6
  2213  0135  0181               	clrf	1
  2214  0136                     l1130:	
  2215                           
  2216                           ;user_debounce.c: 100: }
  2217                           ;user_debounce.c: 102: if( pin->prevDebouncedState != pin->debouncedState)
  2218  0136  0A71               	incf	debounceInput@pin,w
  2219  0137  0086               	movwf	6
  2220  0138  0187               	clrf	7
  2221  0139  0871               	movf	debounceInput@pin,w
  2222  013A  3E02               	addlw	2
  2223  013B  0084               	movwf	4
  2224  013C  0185               	clrf	5
  2225  013D  0800               	movf	0,w
  2226  013E  0601               	xorwf	1,w
  2227  013F  1903               	skipnz
  2228  0140  2947               	goto	l1134
  2229                           
  2230                           ;user_debounce.c: 103: pin->changed = 1;
  2231  0141  0871               	movf	debounceInput@pin,w
  2232  0142  3E03               	addlw	3
  2233  0143  0086               	movwf	6
  2234  0144  0181               	clrf	1
  2235  0145  0A81               	incf	1,f
  2236  0146  0008               	return
  2237  0147                     l1134:	
  2238                           
  2239                           ;user_debounce.c: 104: else
  2240                           ;user_debounce.c: 105: pin->changed = 0;
  2241  0147  0871               	movf	debounceInput@pin,w
  2242  0148  3E03               	addlw	3
  2243  0149  0086               	movwf	6
  2244  014A  0187               	clrf	7
  2245  014B  0181               	clrf	1
  2246  014C  0008               	return
  2247  014D                     __end_of_debounceInput:	
  2248  014D                     __ptext10:	
  2249 ;; *************** function _PWM1_Stop *****************
  2250 ;; Defined at:
  2251 ;;		line 117 in file "mcc_generated_files/pwm1.c"
  2252 ;; Parameters:    Size  Location     Type
  2253 ;;		None
  2254 ;; Auto vars:     Size  Location     Type
  2255 ;;		None
  2256 ;; Return value:  Size  Location     Type
  2257 ;;                  1    wreg      void 
  2258 ;; Registers used:
  2259 ;;		None
  2260 ;; Tracked objects:
  2261 ;;		On entry : 1D/0
  2262 ;;		On exit  : 1F/1B
  2263 ;;		Unchanged: 0/0
  2264 ;; Data sizes:     COMMON   BANK0   BANK1   BANK2   BANK3   BANK4   BANK5   BANK6   BANK7   BANK8   BANK9  BANK10  BANK1
      +1  BANK12
  2265 ;;      Params:         0       0       0       0       0       0       0       0       0       0       0       0       
      +0       0
  2266 ;;      Locals:         0       0       0       0       0       0       0       0       0       0       0       0       
      +0       0
  2267 ;;      Temps:          0       0       0       0       0       0       0       0       0       0       0       0       
      +0       0
  2268 ;;      Totals:         0       0       0       0       0       0       0       0       0       0       0       0       
      +0       0
  2269 ;;Total ram usage:        0 bytes
  2270 ;; Hardware stack levels used:    1
  2271 ;; Hardware stack levels required when called:    4
  2272 ;; This function calls:
  2273 ;;		Nothing
  2274 ;; This function is called by:
  2275 ;;		_main
  2276 ;;		_init_hardware
  2277 ;; This function uses a non-reentrant model
  2278 ;;
  2279                           
  2280                           
  2281                           ;psect for function _PWM1_Stop
  2282  014D                     _PWM1_Stop:	
  2283                           
  2284                           ;pwm1.c: 119: PWM1CONbits.EN = 0;
  2285                           
  2286                           ;incstack = 0
  2287                           ; Regs used in _PWM1_Stop: []
  2288  014D  003B               	movlb	27	; select bank27
  2289  014E  139B               	bcf	27,7	;volatile
  2290  014F  0008               	return
  2291  0150                     __end_of_PWM1_Stop:	
  2292  0150                     __ptext17:	
  2293 ;; *************** function _PWM1_Start *****************
  2294 ;; Defined at:
  2295 ;;		line 112 in file "mcc_generated_files/pwm1.c"
  2296 ;; Parameters:    Size  Location     Type
  2297 ;;		None
  2298 ;; Auto vars:     Size  Location     Type
  2299 ;;		None
  2300 ;; Return value:  Size  Location     Type
  2301 ;;                  1    wreg      void 
  2302 ;; Registers used:
  2303 ;;		None
  2304 ;; Tracked objects:
  2305 ;;		On entry : 1F/1B
  2306 ;;		On exit  : 1F/1B
  2307 ;;		Unchanged: 0/0
  2308 ;; Data sizes:     COMMON   BANK0   BANK1   BANK2   BANK3   BANK4   BANK5   BANK6   BANK7   BANK8   BANK9  BANK10  BANK1
      +1  BANK12
  2309 ;;      Params:         0       0       0       0       0       0       0       0       0       0       0       0       
      +0       0
  2310 ;;      Locals:         0       0       0       0       0       0       0       0       0       0       0       0       
      +0       0
  2311 ;;      Temps:          0       0       0       0       0       0       0       0       0       0       0       0       
      +0       0
  2312 ;;      Totals:         0       0       0       0       0       0       0       0       0       0       0       0       
      +0       0
  2313 ;;Total ram usage:        0 bytes
  2314 ;; Hardware stack levels used:    1
  2315 ;; Hardware stack levels required when called:    4
  2316 ;; This function calls:
  2317 ;;		Nothing
  2318 ;; This function is called by:
  2319 ;;		_main
  2320 ;; This function uses a non-reentrant model
  2321 ;;
  2322                           
  2323                           
  2324                           ;psect for function _PWM1_Start
  2325  0150                     _PWM1_Start:	
  2326                           
  2327                           ;pwm1.c: 114: PWM1CONbits.EN = 1;
  2328                           
  2329                           ;incstack = 0
  2330                           ; Regs used in _PWM1_Start: []
  2331  0150  179B               	bsf	27,7	;volatile
  2332  0151  0008               	return
  2333  0152                     __end_of_PWM1_Start:	
  2334  0152                     __ptext11:	
  2335 ;; *************** function _initSysTick *****************
  2336 ;; Defined at:
  2337 ;;		line 81 in file "system_Tick.c"
  2338 ;; Parameters:    Size  Location     Type
  2339 ;;		None
  2340 ;; Auto vars:     Size  Location     Type
  2341 ;;		None
  2342 ;; Return value:  Size  Location     Type
  2343 ;;                  1    wreg      void 
  2344 ;; Registers used:
  2345 ;;		wreg, status,2, status,0, pclath, cstack
  2346 ;; Tracked objects:
  2347 ;;		On entry : 0/0
  2348 ;;		On exit  : 1F/0
  2349 ;;		Unchanged: 0/0
  2350 ;; Data sizes:     COMMON   BANK0   BANK1   BANK2   BANK3   BANK4   BANK5   BANK6   BANK7   BANK8   BANK9  BANK10  BANK1
      +1  BANK12
  2351 ;;      Params:         0       0       0       0       0       0       0       0       0       0       0       0       
      +0       0
  2352 ;;      Locals:         0       0       0       0       0       0       0       0       0       0       0       0       
      +0       0
  2353 ;;      Temps:          0       0       0       0       0       0       0       0       0       0       0       0       
      +0       0
  2354 ;;      Totals:         0       0       0       0       0       0       0       0       0       0       0       0       
      +0       0
  2355 ;;Total ram usage:        0 bytes
  2356 ;; Hardware stack levels used:    1
  2357 ;; Hardware stack levels required when called:    6
  2358 ;; This function calls:
  2359 ;;		_TMR1_Initialize
  2360 ;;		_TMR1_SetInterruptHandler
  2361 ;;		_TMR1_StartTimer
  2362 ;;		_TMR1_StopTimer
  2363 ;; This function is called by:
  2364 ;;		_main
  2365 ;; This function uses a non-reentrant model
  2366 ;;
  2367                           
  2368                           
  2369                           ;psect for function _initSysTick
  2370  0152                     _initSysTick:	
  2371                           
  2372                           ;system_Tick.c: 83: TMR1_Initialize();
  2373                           
  2374                           ;incstack = 0
  2375                           ; Regs used in _initSysTick: [wreg+status,2+status,0+pclath+cstack]
  2376  0152  215D  3180         	fcall	_TMR1_Initialize
  2377                           
  2378                           ;system_Tick.c: 84: TMR1_StopTimer();
  2379  0154  217C  3180         	fcall	_TMR1_StopTimer
  2380                           
  2381                           ;system_Tick.c: 85: TMR1_SetInterruptHandler(systemTimerCallback);
  2382  0156  3011               	movlw	low _systemTimerCallback
  2383  0157  00F0               	movwf	TMR1_SetInterruptHandler@InterruptHandler
  2384  0158  3002               	movlw	high _systemTimerCallback
  2385  0159  00F1               	movwf	TMR1_SetInterruptHandler@InterruptHandler+1
  2386  015A  2174  3180         	fcall	_TMR1_SetInterruptHandler
  2387                           
  2388                           ;system_Tick.c: 86: TMR1_StartTimer();
  2389  015C  297A               	ljmp	l964
  2390  015D                     __end_of_initSysTick:	
  2391  015D                     __ptext13:	
  2392 ;; *************** function _TMR1_Initialize *****************
  2393 ;; Defined at:
  2394 ;;		line 63 in file "mcc_generated_files/tmr1.c"
  2395 ;; Parameters:    Size  Location     Type
  2396 ;;		None
  2397 ;; Auto vars:     Size  Location     Type
  2398 ;;		None
  2399 ;; Return value:  Size  Location     Type
  2400 ;;                  1    wreg      void 
  2401 ;; Registers used:
  2402 ;;		wreg, status,2, status,0, pclath, cstack
  2403 ;; Tracked objects:
  2404 ;;		On entry : 0/1B
  2405 ;;		On exit  : 1F/0
  2406 ;;		Unchanged: 0/0
  2407 ;; Data sizes:     COMMON   BANK0   BANK1   BANK2   BANK3   BANK4   BANK5   BANK6   BANK7   BANK8   BANK9  BANK10  BANK1
      +1  BANK12
  2408 ;;      Params:         0       0       0       0       0       0       0       0       0       0       0       0       
      +0       0
  2409 ;;      Locals:         0       0       0       0       0       0       0       0       0       0       0       0       
      +0       0
  2410 ;;      Temps:          0       0       0       0       0       0       0       0       0       0       0       0       
      +0       0
  2411 ;;      Totals:         0       0       0       0       0       0       0       0       0       0       0       0       
      +0       0
  2412 ;;Total ram usage:        0 bytes
  2413 ;; Hardware stack levels used:    1
  2414 ;; Hardware stack levels required when called:    5
  2415 ;; This function calls:
  2416 ;;		_TMR1_SetInterruptHandler
  2417 ;;		_TMR1_StartTimer
  2418 ;; This function is called by:
  2419 ;;		_SYSTEM_Initialize
  2420 ;;		_initSysTick
  2421 ;; This function uses a non-reentrant model
  2422 ;;
  2423                           
  2424                           
  2425                           ;psect for function _TMR1_Initialize
  2426  015D                     _TMR1_Initialize:	
  2427  015D                     l992:	
  2428                           ;incstack = 0
  2429                           ; Regs used in _TMR1_Initialize: [wreg+status,2+status,0+pclath+cstack]
  2430                           
  2431                           
  2432                           ;tmr1.c: 68: T1CON = 0x30;
  2433  015D  3030               	movlw	48
  2434  015E  0020               	movlb	0	; select bank0
  2435  015F  0098               	movwf	24	;volatile
  2436                           
  2437                           ;tmr1.c: 71: T1GCON = 0x00;
  2438  0160  0199               	clrf	25	;volatile
  2439                           
  2440                           ;tmr1.c: 74: TMR1H = 0xFC;
  2441  0161  30FC               	movlw	252
  2442  0162  0097               	movwf	23	;volatile
  2443                           
  2444                           ;tmr1.c: 77: TMR1L = 0x18;
  2445  0163  3018               	movlw	24
  2446  0164  0096               	movwf	22	;volatile
  2447                           
  2448                           ;tmr1.c: 80: timer1ReloadVal=(TMR1H << 8) | TMR1L;
  2449  0165  0817               	movf	23,w	;volatile
  2450  0166  00B3               	movwf	_timer1ReloadVal+1	;volatile
  2451  0167  01B2               	clrf	_timer1ReloadVal	;volatile
  2452  0168  0816               	movf	22,w	;volatile
  2453  0169  04B2               	iorwf	_timer1ReloadVal,f	;volatile
  2454                           
  2455                           ;tmr1.c: 83: PIR1bits.TMR1IF = 0;
  2456  016A  1011               	bcf	17,0	;volatile
  2457                           
  2458                           ;tmr1.c: 86: PIE1bits.TMR1IE = 1;
  2459  016B  0021               	movlb	1	; select bank1
  2460  016C  1411               	bsf	17,0	;volatile
  2461                           
  2462                           ;tmr1.c: 89: TMR1_SetInterruptHandler(TMR1_DefaultInterruptHandler);
  2463  016D  301F               	movlw	low _TMR1_DefaultInterruptHandler
  2464  016E  00F0               	movwf	TMR1_SetInterruptHandler@InterruptHandler
  2465  016F  3002               	movlw	high _TMR1_DefaultInterruptHandler
  2466  0170  00F1               	movwf	TMR1_SetInterruptHandler@InterruptHandler+1
  2467  0171  2174  3180         	fcall	_TMR1_SetInterruptHandler
  2468                           
  2469                           ;tmr1.c: 92: TMR1_StartTimer();
  2470  0173  297A               	ljmp	l964
  2471  0174                     __end_of_TMR1_Initialize:	
  2472  0174                     __ptext15:	
  2473 ;; *************** function _TMR1_SetInterruptHandler *****************
  2474 ;; Defined at:
  2475 ;;		line 178 in file "mcc_generated_files/tmr1.c"
  2476 ;; Parameters:    Size  Location     Type
  2477 ;;  InterruptHan    2    0[COMMON] PTR void 
  2478 ;;		 -> systemTimerCallback(1), TMR1_DefaultInterruptHandler(1), 
  2479 ;; Auto vars:     Size  Location     Type
  2480 ;;		None
  2481 ;; Return value:  Size  Location     Type
  2482 ;;                  1    wreg      void 
  2483 ;; Registers used:
  2484 ;;		wreg
  2485 ;; Tracked objects:
  2486 ;;		On entry : 1E/0
  2487 ;;		On exit  : 1F/0
  2488 ;;		Unchanged: 0/0
  2489 ;; Data sizes:     COMMON   BANK0   BANK1   BANK2   BANK3   BANK4   BANK5   BANK6   BANK7   BANK8   BANK9  BANK10  BANK1
      +1  BANK12
  2490 ;;      Params:         2       0       0       0       0       0       0       0       0       0       0       0       
      +0       0
  2491 ;;      Locals:         0       0       0       0       0       0       0       0       0       0       0       0       
      +0       0
  2492 ;;      Temps:          0       0       0       0       0       0       0       0       0       0       0       0       
      +0       0
  2493 ;;      Totals:         2       0       0       0       0       0       0       0       0       0       0       0       
      +0       0
  2494 ;;Total ram usage:        2 bytes
  2495 ;; Hardware stack levels used:    1
  2496 ;; Hardware stack levels required when called:    4
  2497 ;; This function calls:
  2498 ;;		Nothing
  2499 ;; This function is called by:
  2500 ;;		_TMR1_Initialize
  2501 ;;		_initSysTick
  2502 ;; This function uses a non-reentrant model
  2503 ;;
  2504                           
  2505                           
  2506                           ;psect for function _TMR1_SetInterruptHandler
  2507  0174                     _TMR1_SetInterruptHandler:	
  2508                           
  2509                           ;tmr1.c: 179: TMR1_InterruptHandler = InterruptHandler;
  2510                           
  2511                           ;incstack = 0
  2512                           ; Regs used in _TMR1_SetInterruptHandler: [wreg]
  2513  0174  0871               	movf	TMR1_SetInterruptHandler@InterruptHandler+1,w
  2514  0175  0020               	movlb	0	; select bank0
  2515  0176  00B1               	movwf	_TMR1_InterruptHandler+1
  2516  0177  0870               	movf	TMR1_SetInterruptHandler@InterruptHandler,w
  2517  0178  00B0               	movwf	_TMR1_InterruptHandler
  2518  0179  0008               	return
  2519  017A                     __end_of_TMR1_SetInterruptHandler:	
  2520  017A                     __ptext14:	
  2521 ;; *************** function _TMR1_StartTimer *****************
  2522 ;; Defined at:
  2523 ;;		line 95 in file "mcc_generated_files/tmr1.c"
  2524 ;; Parameters:    Size  Location     Type
  2525 ;;		None
  2526 ;; Auto vars:     Size  Location     Type
  2527 ;;		None
  2528 ;; Return value:  Size  Location     Type
  2529 ;;                  1    wreg      void 
  2530 ;; Registers used:
  2531 ;;		None
  2532 ;; Tracked objects:
  2533 ;;		On entry : 1F/0
  2534 ;;		On exit  : 1F/0
  2535 ;;		Unchanged: 0/0
  2536 ;; Data sizes:     COMMON   BANK0   BANK1   BANK2   BANK3   BANK4   BANK5   BANK6   BANK7   BANK8   BANK9  BANK10  BANK1
      +1  BANK12
  2537 ;;      Params:         0       0       0       0       0       0       0       0       0       0       0       0       
      +0       0
  2538 ;;      Locals:         0       0       0       0       0       0       0       0       0       0       0       0       
      +0       0
  2539 ;;      Temps:          0       0       0       0       0       0       0       0       0       0       0       0       
      +0       0
  2540 ;;      Totals:         0       0       0       0       0       0       0       0       0       0       0       0       
      +0       0
  2541 ;;Total ram usage:        0 bytes
  2542 ;; Hardware stack levels used:    1
  2543 ;; Hardware stack levels required when called:    4
  2544 ;; This function calls:
  2545 ;;		Nothing
  2546 ;; This function is called by:
  2547 ;;		_TMR1_Initialize
  2548 ;;		_initSysTick
  2549 ;; This function uses a non-reentrant model
  2550 ;;
  2551                           
  2552                           
  2553                           ;psect for function _TMR1_StartTimer
  2554  017A                     _TMR1_StartTimer:	
  2555  017A                     l964:	
  2556                           ;incstack = 0
  2557                           ; Regs used in _TMR1_StartTimer: []
  2558                           
  2559                           
  2560                           ;tmr1.c: 98: T1CONbits.TMR1ON = 1;
  2561  017A  1418               	bsf	24,0	;volatile
  2562  017B  0008               	return
  2563  017C                     __end_of_TMR1_StartTimer:	
  2564  017C                     __ptext12:	
  2565 ;; *************** function _TMR1_StopTimer *****************
  2566 ;; Defined at:
  2567 ;;		line 101 in file "mcc_generated_files/tmr1.c"
  2568 ;; Parameters:    Size  Location     Type
  2569 ;;		None
  2570 ;; Auto vars:     Size  Location     Type
  2571 ;;		None
  2572 ;; Return value:  Size  Location     Type
  2573 ;;                  1    wreg      void 
  2574 ;; Registers used:
  2575 ;;		None
  2576 ;; Tracked objects:
  2577 ;;		On entry : 1F/0
  2578 ;;		On exit  : 1F/0
  2579 ;;		Unchanged: 0/0
  2580 ;; Data sizes:     COMMON   BANK0   BANK1   BANK2   BANK3   BANK4   BANK5   BANK6   BANK7   BANK8   BANK9  BANK10  BANK1
      +1  BANK12
  2581 ;;      Params:         0       0       0       0       0       0       0       0       0       0       0       0       
      +0       0
  2582 ;;      Locals:         0       0       0       0       0       0       0       0       0       0       0       0       
      +0       0
  2583 ;;      Temps:          0       0       0       0       0       0       0       0       0       0       0       0       
      +0       0
  2584 ;;      Totals:         0       0       0       0       0       0       0       0       0       0       0       0       
      +0       0
  2585 ;;Total ram usage:        0 bytes
  2586 ;; Hardware stack levels used:    1
  2587 ;; Hardware stack levels required when called:    4
  2588 ;; This function calls:
  2589 ;;		Nothing
  2590 ;; This function is called by:
  2591 ;;		_initSysTick
  2592 ;; This function uses a non-reentrant model
  2593 ;;
  2594                           
  2595                           
  2596                           ;psect for function _TMR1_StopTimer
  2597  017C                     _TMR1_StopTimer:	
  2598                           
  2599                           ;tmr1.c: 104: T1CONbits.TMR1ON = 0;
  2600                           
  2601                           ;incstack = 0
  2602                           ; Regs used in _TMR1_StopTimer: []
  2603  017C  1018               	bcf	24,0	;volatile
  2604  017D  0008               	return
  2605  017E                     __end_of_TMR1_StopTimer:	
  2606  017E                     __ptext3:	
  2607 ;; *************** function _init_hardware *****************
  2608 ;; Defined at:
  2609 ;;		line 118 in file "main.c"
  2610 ;; Parameters:    Size  Location     Type
  2611 ;;		None
  2612 ;; Auto vars:     Size  Location     Type
  2613 ;;		None
  2614 ;; Return value:  Size  Location     Type
  2615 ;;                  1    wreg      void 
  2616 ;; Registers used:
  2617 ;;		wreg, fsr1l, fsr1h, status,2, status,0, pclath, cstack
  2618 ;; Tracked objects:
  2619 ;;		On entry : B1F/0
  2620 ;;		On exit  : 0/0
  2621 ;;		Unchanged: 0/0
  2622 ;; Data sizes:     COMMON   BANK0   BANK1   BANK2   BANK3   BANK4   BANK5   BANK6   BANK7   BANK8   BANK9  BANK10  BANK1
      +1  BANK12
  2623 ;;      Params:         0       0       0       0       0       0       0       0       0       0       0       0       
      +0       0
  2624 ;;      Locals:         0       0       0       0       0       0       0       0       0       0       0       0       
      +0       0
  2625 ;;      Temps:          0       0       0       0       0       0       0       0       0       0       0       0       
      +0       0
  2626 ;;      Totals:         0       0       0       0       0       0       0       0       0       0       0       0       
      +0       0
  2627 ;;Total ram usage:        0 bytes
  2628 ;; Hardware stack levels used:    1
  2629 ;; Hardware stack levels required when called:    7
  2630 ;; This function calls:
  2631 ;;		_PWM1_Stop
  2632 ;;		_SYSTEM_Initialize
  2633 ;;		_initDebounce
  2634 ;; This function is called by:
  2635 ;;		_main
  2636 ;; This function uses a non-reentrant model
  2637 ;;
  2638                           
  2639                           
  2640                           ;psect for function _init_hardware
  2641  017E                     _init_hardware:	
  2642                           
  2643                           ;main.c: 120: SYSTEM_Initialize();
  2644                           
  2645                           ;incstack = 0
  2646                           ; Regs used in _init_hardware: [wreg+fsr1l+fsr1h+status,2+status,0+pclath+cstack]
  2647  017E  2189  3180         	fcall	_SYSTEM_Initialize
  2648                           
  2649                           ;main.c: 121: PWM1_Stop();
  2650  0180  214D  3180         	fcall	_PWM1_Stop
  2651  0182  3034               	movlw	(low (_btn_start| 0))& (0+255)
  2652                           
  2653                           ;main.c: 123: initDebounce( &btn_start, 0);
  2654  0183  01F0               	clrf	initDebounce@initalState
  2655  0184  2192  3180         	fcall	_initDebounce
  2656  0186  3039               	movlw	(low (_btn_stop| 0))& (0+255)
  2657                           
  2658                           ;main.c: 124: initDebounce( &btn_stop, 0);
  2659  0187  01F0               	clrf	initDebounce@initalState
  2660  0188  2992               	ljmp	_initDebounce
  2661  0189                     __end_of_init_hardware:	
  2662  0189                     __ptext5:	
  2663 ;; *************** function _SYSTEM_Initialize *****************
  2664 ;; Defined at:
  2665 ;;		line 68 in file "mcc_generated_files/mcc.c"
  2666 ;; Parameters:    Size  Location     Type
  2667 ;;		None
  2668 ;; Auto vars:     Size  Location     Type
  2669 ;;		None
  2670 ;; Return value:  Size  Location     Type
  2671 ;;                  1    wreg      void 
  2672 ;; Registers used:
  2673 ;;		wreg, status,2, status,0, pclath, cstack
  2674 ;; Tracked objects:
  2675 ;;		On entry : B1F/0
  2676 ;;		On exit  : 1F/0
  2677 ;;		Unchanged: 0/0
  2678 ;; Data sizes:     COMMON   BANK0   BANK1   BANK2   BANK3   BANK4   BANK5   BANK6   BANK7   BANK8   BANK9  BANK10  BANK1
      +1  BANK12
  2679 ;;      Params:         0       0       0       0       0       0       0       0       0       0       0       0       
      +0       0
  2680 ;;      Locals:         0       0       0       0       0       0       0       0       0       0       0       0       
      +0       0
  2681 ;;      Temps:          0       0       0       0       0       0       0       0       0       0       0       0       
      +0       0
  2682 ;;      Totals:         0       0       0       0       0       0       0       0       0       0       0       0       
      +0       0
  2683 ;;Total ram usage:        0 bytes
  2684 ;; Hardware stack levels used:    1
  2685 ;; Hardware stack levels required when called:    6
  2686 ;; This function calls:
  2687 ;;		_OSCILLATOR_Initialize
  2688 ;;		_PIN_MANAGER_Initialize
  2689 ;;		_PWM1_Initialize
  2690 ;;		_TMR1_Initialize
  2691 ;;		_WDT_Initialize
  2692 ;; This function is called by:
  2693 ;;		_init_hardware
  2694 ;; This function uses a non-reentrant model
  2695 ;;
  2696                           
  2697                           
  2698                           ;psect for function _SYSTEM_Initialize
  2699  0189                     _SYSTEM_Initialize:	
  2700                           
  2701                           ;mcc.c: 71: PIN_MANAGER_Initialize();
  2702                           
  2703                           ;incstack = 0
  2704                           ; Regs used in _SYSTEM_Initialize: [wreg+status,2+status,0+pclath+cstack]
  2705  0189  21B6  3180         	fcall	_PIN_MANAGER_Initialize
  2706                           
  2707                           ;mcc.c: 72: OSCILLATOR_Initialize();
  2708  018B  21AF  3180         	fcall	_OSCILLATOR_Initialize
  2709                           
  2710                           ;mcc.c: 73: WDT_Initialize();
  2711  018D  21FE  3180         	fcall	_WDT_Initialize
  2712                           
  2713                           ;mcc.c: 74: PWM1_Initialize();
  2714  018F  21E5  3180         	fcall	_PWM1_Initialize
  2715                           
  2716                           ;mcc.c: 75: TMR1_Initialize();
  2717  0191  295D               	ljmp	l992
  2718  0192                     __end_of_SYSTEM_Initialize:	
  2719  0192                     __ptext4:	
  2720 ;; *************** function _initDebounce *****************
  2721 ;; Defined at:
  2722 ;;		line 62 in file "user_debounce.c"
  2723 ;; Parameters:    Size  Location     Type
  2724 ;;  pin             1    wreg     PTR struct .
  2725 ;;		 -> btn_stop(5), btn_start(5), 
  2726 ;;  initalState     1    0[COMMON] unsigned char 
  2727 ;; Auto vars:     Size  Location     Type
  2728 ;;  pin             1    1[COMMON] PTR struct .
  2729 ;;		 -> btn_stop(5), btn_start(5), 
  2730 ;; Return value:  Size  Location     Type
  2731 ;;                  1    wreg      void 
  2732 ;; Registers used:
  2733 ;;		wreg, fsr1l, fsr1h, status,2, status,0
  2734 ;; Tracked objects:
  2735 ;;		On entry : 0/1B
  2736 ;;		On exit  : 0/0
  2737 ;;		Unchanged: 0/0
  2738 ;; Data sizes:     COMMON   BANK0   BANK1   BANK2   BANK3   BANK4   BANK5   BANK6   BANK7   BANK8   BANK9  BANK10  BANK1
      +1  BANK12
  2739 ;;      Params:         1       0       0       0       0       0       0       0       0       0       0       0       
      +0       0
  2740 ;;      Locals:         1       0       0       0       0       0       0       0       0       0       0       0       
      +0       0
  2741 ;;      Temps:          0       0       0       0       0       0       0       0       0       0       0       0       
      +0       0
  2742 ;;      Totals:         2       0       0       0       0       0       0       0       0       0       0       0       
      +0       0
  2743 ;;Total ram usage:        2 bytes
  2744 ;; Hardware stack levels used:    1
  2745 ;; Hardware stack levels required when called:    4
  2746 ;; This function calls:
  2747 ;;		Nothing
  2748 ;; This function is called by:
  2749 ;;		_init_hardware
  2750 ;; This function uses a non-reentrant model
  2751 ;;
  2752                           
  2753                           
  2754                           ;psect for function _initDebounce
  2755  0192                     _initDebounce:	
  2756                           
  2757                           ;incstack = 0
  2758                           ; Regs used in _initDebounce: [wreg+fsr1l+fsr1h+status,2+status,0]
  2759                           ;initDebounce@pin stored from wreg
  2760  0192  00F1               	movwf	initDebounce@pin
  2761                           
  2762                           ;user_debounce.c: 64: pin->changed = 0;
  2763  0193  3E03               	addlw	3
  2764  0194  0086               	movwf	6
  2765  0195  0187               	clrf	7
  2766  0196  0181               	clrf	1
  2767                           
  2768                           ;user_debounce.c: 65: pin->counter = 5;
  2769  0197  0871               	movf	initDebounce@pin,w
  2770  0198  0086               	movwf	6
  2771  0199  3005               	movlw	5
  2772  019A  0081               	movwf	1
  2773                           
  2774                           ;user_debounce.c: 66: pin->debouncedState = !initalState;
  2775  019B  0A71               	incf	initDebounce@pin,w
  2776  019C  0086               	movwf	6
  2777  019D  0870               	movf	initDebounce@initalState,w
  2778  019E  1D03               	btfss	3,2
  2779  019F  29A2               	goto	u280
  2780  01A0  3001               	movlw	1
  2781  01A1  29A3               	goto	u290
  2782  01A2                     u280:	
  2783  01A2  3000               	movlw	0
  2784  01A3                     u290:	
  2785  01A3  0081               	movwf	1
  2786                           
  2787                           ;user_debounce.c: 67: pin->prevDebouncedState = 0;
  2788  01A4  0871               	movf	initDebounce@pin,w
  2789  01A5  3E02               	addlw	2
  2790  01A6  0086               	movwf	6
  2791  01A7  0187               	clrf	7
  2792  01A8  0181               	clrf	1
  2793                           
  2794                           ;user_debounce.c: 68: pin->activeState = initalState;
  2795  01A9  0871               	movf	initDebounce@pin,w
  2796  01AA  3E04               	addlw	4
  2797  01AB  0086               	movwf	6
  2798  01AC  0870               	movf	initDebounce@initalState,w
  2799  01AD  0081               	movwf	1
  2800  01AE  0008               	return
  2801  01AF                     __end_of_initDebounce:	
  2802  01AF                     __ptext9:	
  2803 ;; *************** function _OSCILLATOR_Initialize *****************
  2804 ;; Defined at:
  2805 ;;		line 78 in file "mcc_generated_files/mcc.c"
  2806 ;; Parameters:    Size  Location     Type
  2807 ;;		None
  2808 ;; Auto vars:     Size  Location     Type
  2809 ;;		None
  2810 ;; Return value:  Size  Location     Type
  2811 ;;                  1    wreg      void 
  2812 ;; Registers used:
  2813 ;;		wreg, status,2
  2814 ;; Tracked objects:
  2815 ;;		On entry : 0/0
  2816 ;;		On exit  : 1F/1
  2817 ;;		Unchanged: 0/0
  2818 ;; Data sizes:     COMMON   BANK0   BANK1   BANK2   BANK3   BANK4   BANK5   BANK6   BANK7   BANK8   BANK9  BANK10  BANK1
      +1  BANK12
  2819 ;;      Params:         0       0       0       0       0       0       0       0       0       0       0       0       
      +0       0
  2820 ;;      Locals:         0       0       0       0       0       0       0       0       0       0       0       0       
      +0       0
  2821 ;;      Temps:          0       0       0       0       0       0       0       0       0       0       0       0       
      +0       0
  2822 ;;      Totals:         0       0       0       0       0       0       0       0       0       0       0       0       
      +0       0
  2823 ;;Total ram usage:        0 bytes
  2824 ;; Hardware stack levels used:    1
  2825 ;; Hardware stack levels required when called:    4
  2826 ;; This function calls:
  2827 ;;		Nothing
  2828 ;; This function is called by:
  2829 ;;		_SYSTEM_Initialize
  2830 ;; This function uses a non-reentrant model
  2831 ;;
  2832                           
  2833                           
  2834                           ;psect for function _OSCILLATOR_Initialize
  2835  01AF                     _OSCILLATOR_Initialize:	
  2836                           
  2837                           ;mcc.c: 81: OSCCON = 0x70;
  2838                           
  2839                           ;incstack = 0
  2840                           ; Regs used in _OSCILLATOR_Initialize: [wreg+status,2]
  2841  01AF  3070               	movlw	112
  2842  01B0  0021               	movlb	1	; select bank1
  2843  01B1  0099               	movwf	25	;volatile
  2844                           
  2845                           ;mcc.c: 83: OSCTUNE = 0x00;
  2846  01B2  0198               	clrf	24	;volatile
  2847  01B3                     l184:	
  2848                           ;mcc.c: 88: {
  2849                           
  2850  01B3  1B1A               	btfsc	26,6	;volatile
  2851  01B4  0008               	return
  2852  01B5  29B3               	goto	l184
  2853  01B6                     __end_of_OSCILLATOR_Initialize:	
  2854  01B6                     __ptext8:	
  2855 ;; *************** function _PIN_MANAGER_Initialize *****************
  2856 ;; Defined at:
  2857 ;;		line 51 in file "mcc_generated_files/pin_manager.c"
  2858 ;; Parameters:    Size  Location     Type
  2859 ;;		None
  2860 ;; Auto vars:     Size  Location     Type
  2861 ;;  state           1    0[COMMON] unsigned char 
  2862 ;; Return value:  Size  Location     Type
  2863 ;;                  1    wreg      void 
  2864 ;; Registers used:
  2865 ;;		wreg, status,2, status,0
  2866 ;; Tracked objects:
  2867 ;;		On entry : B1F/0
  2868 ;;		On exit  : 0/0
  2869 ;;		Unchanged: 0/0
  2870 ;; Data sizes:     COMMON   BANK0   BANK1   BANK2   BANK3   BANK4   BANK5   BANK6   BANK7   BANK8   BANK9  BANK10  BANK1
      +1  BANK12
  2871 ;;      Params:         0       0       0       0       0       0       0       0       0       0       0       0       
      +0       0
  2872 ;;      Locals:         1       0       0       0       0       0       0       0       0       0       0       0       
      +0       0
  2873 ;;      Temps:          0       0       0       0       0       0       0       0       0       0       0       0       
      +0       0
  2874 ;;      Totals:         1       0       0       0       0       0       0       0       0       0       0       0       
      +0       0
  2875 ;;Total ram usage:        1 bytes
  2876 ;; Hardware stack levels used:    1
  2877 ;; Hardware stack levels required when called:    4
  2878 ;; This function calls:
  2879 ;;		Nothing
  2880 ;; This function is called by:
  2881 ;;		_SYSTEM_Initialize
  2882 ;; This function uses a non-reentrant model
  2883 ;;
  2884                           
  2885                           
  2886                           ;psect for function _PIN_MANAGER_Initialize
  2887  01B6                     _PIN_MANAGER_Initialize:	
  2888                           
  2889                           ;pin_manager.c: 56: LATA = 0x00;
  2890                           
  2891                           ;incstack = 0
  2892                           ; Regs used in _PIN_MANAGER_Initialize: [wreg+status,2+status,0]
  2893  01B6  0022               	movlb	2	; select bank2
  2894  01B7  018C               	clrf	12	;volatile
  2895                           
  2896                           ;pin_manager.c: 57: LATC = 0x06;
  2897  01B8  3006               	movlw	6
  2898  01B9  008E               	movwf	14	;volatile
  2899                           
  2900                           ;pin_manager.c: 62: TRISA = 0x3B;
  2901  01BA  303B               	movlw	59
  2902  01BB  0021               	movlb	1	; select bank1
  2903  01BC  008C               	movwf	12	;volatile
  2904                           
  2905                           ;pin_manager.c: 63: TRISC = 0x1E;
  2906  01BD  301E               	movlw	30
  2907  01BE  008E               	movwf	14	;volatile
  2908                           
  2909                           ;pin_manager.c: 68: ANSELC = 0x00;
  2910  01BF  0023               	movlb	3	; select bank3
  2911  01C0  018E               	clrf	14	;volatile
  2912                           
  2913                           ;pin_manager.c: 69: ANSELA = 0x13;
  2914  01C1  3013               	movlw	19
  2915  01C2  008C               	movwf	12	;volatile
  2916                           
  2917                           ;pin_manager.c: 74: WPUA = 0x3B;
  2918  01C3  303B               	movlw	59
  2919  01C4  0024               	movlb	4	; select bank4
  2920  01C5  008C               	movwf	12	;volatile
  2921                           
  2922                           ;pin_manager.c: 75: WPUC = 0x00;
  2923  01C6  018E               	clrf	14	;volatile
  2924                           
  2925                           ;pin_manager.c: 76: OPTION_REGbits.nWPUEN = 0;
  2926  01C7  0021               	movlb	1	; select bank1
  2927  01C8  1395               	bcf	21,7	;volatile
  2928                           
  2929                           ;pin_manager.c: 84: bool state = GIE;
  2930  01C9  3000               	movlw	0
  2931  01CA  1B8B               	btfsc	11,7	;volatile
  2932  01CB  3001               	movlw	1
  2933  01CC  00F0               	movwf	PIN_MANAGER_Initialize@state
  2934                           
  2935                           ;pin_manager.c: 85: GIE = 0;
  2936  01CD  138B               	bcf	11,7	;volatile
  2937                           
  2938                           ;pin_manager.c: 86: PPSLOCK = 0x55;
  2939  01CE  3055               	movlw	85
  2940  01CF  003C               	movlb	28	; select bank28
  2941  01D0  008F               	movwf	15	;volatile
  2942                           
  2943                           ;pin_manager.c: 87: PPSLOCK = 0xAA;
  2944  01D1  30AA               	movlw	170
  2945  01D2  008F               	movwf	15	;volatile
  2946                           
  2947                           ;pin_manager.c: 88: PPSLOCKbits.PPSLOCKED = 0x00;
  2948  01D3  100F               	bcf	15,0	;volatile
  2949                           
  2950                           ;pin_manager.c: 90: RC0PPSbits.RC0PPS = 0x03;
  2951  01D4  003D               	movlb	29	; select bank29
  2952  01D5  0820               	movf	32,w	;volatile
  2953  01D6  39F0               	andlw	-16
  2954  01D7  3803               	iorlw	3
  2955  01D8  00A0               	movwf	32	;volatile
  2956                           
  2957                           ;pin_manager.c: 92: PPSLOCK = 0x55;
  2958  01D9  3055               	movlw	85
  2959  01DA  003C               	movlb	28	; select bank28
  2960  01DB  008F               	movwf	15	;volatile
  2961                           
  2962                           ;pin_manager.c: 93: PPSLOCK = 0xAA;
  2963  01DC  30AA               	movlw	170
  2964  01DD  008F               	movwf	15	;volatile
  2965                           
  2966                           ;pin_manager.c: 94: PPSLOCKbits.PPSLOCKED = 0x01;
  2967  01DE  140F               	bsf	15,0	;volatile
  2968                           
  2969                           ;pin_manager.c: 96: GIE = state;
  2970  01DF  1C70               	btfss	PIN_MANAGER_Initialize@state,0
  2971  01E0  29E3               	goto	u240
  2972  01E1  178B               	bsf	11,7	;volatile
  2973  01E2  0008               	return
  2974  01E3                     u240:	
  2975  01E3  138B               	bcf	11,7	;volatile
  2976  01E4  0008               	return
  2977  01E5                     __end_of_PIN_MANAGER_Initialize:	
  2978  01E5                     __ptext7:	
  2979 ;; *************** function _PWM1_Initialize *****************
  2980 ;; Defined at:
  2981 ;;		line 58 in file "mcc_generated_files/pwm1.c"
  2982 ;; Parameters:    Size  Location     Type
  2983 ;;		None
  2984 ;; Auto vars:     Size  Location     Type
  2985 ;;		None
  2986 ;; Return value:  Size  Location     Type
  2987 ;;                  1    wreg      void 
  2988 ;; Registers used:
  2989 ;;		wreg, status,2
  2990 ;; Tracked objects:
  2991 ;;		On entry : 1F/1
  2992 ;;		On exit  : 1F/1B
  2993 ;;		Unchanged: 0/0
  2994 ;; Data sizes:     COMMON   BANK0   BANK1   BANK2   BANK3   BANK4   BANK5   BANK6   BANK7   BANK8   BANK9  BANK10  BANK1
      +1  BANK12
  2995 ;;      Params:         0       0       0       0       0       0       0       0       0       0       0       0       
      +0       0
  2996 ;;      Locals:         0       0       0       0       0       0       0       0       0       0       0       0       
      +0       0
  2997 ;;      Temps:          0       0       0       0       0       0       0       0       0       0       0       0       
      +0       0
  2998 ;;      Totals:         0       0       0       0       0       0       0       0       0       0       0       0       
      +0       0
  2999 ;;Total ram usage:        0 bytes
  3000 ;; Hardware stack levels used:    1
  3001 ;; Hardware stack levels required when called:    4
  3002 ;; This function calls:
  3003 ;;		Nothing
  3004 ;; This function is called by:
  3005 ;;		_SYSTEM_Initialize
  3006 ;; This function uses a non-reentrant model
  3007 ;;
  3008                           
  3009                           
  3010                           ;psect for function _PWM1_Initialize
  3011  01E5                     _PWM1_Initialize:	
  3012                           
  3013                           ;pwm1.c: 63: PWM1INTE = 0x00;
  3014                           
  3015                           ;incstack = 0
  3016                           ; Regs used in _PWM1_Initialize: [wreg+status,2]
  3017  01E5  003B               	movlb	27	; select bank27
  3018  01E6  019C               	clrf	28	;volatile
  3019                           
  3020                           ;pwm1.c: 66: PWM1INTF = 0x00;
  3021  01E7  019D               	clrf	29	;volatile
  3022                           
  3023                           ;pwm1.c: 69: PWM1CLKCON = 0x70;
  3024  01E8  3070               	movlw	112
  3025  01E9  009E               	movwf	30	;volatile
  3026                           
  3027                           ;pwm1.c: 72: PWM1LDCON = 0x00;
  3028  01EA  019F               	clrf	31	;volatile
  3029                           
  3030                           ;pwm1.c: 75: PWM1OFCON = 0x00;
  3031  01EB  01A0               	clrf	32	;volatile
  3032                           
  3033                           ;pwm1.c: 78: PWM1PHH = 0x00;
  3034  01EC  0192               	clrf	18	;volatile
  3035                           
  3036                           ;pwm1.c: 81: PWM1PHL = 0x00;
  3037  01ED  0191               	clrf	17	;volatile
  3038                           
  3039                           ;pwm1.c: 84: PWM1DCH = 0x3C;
  3040  01EE  303C               	movlw	60
  3041  01EF  0094               	movwf	20	;volatile
  3042                           
  3043                           ;pwm1.c: 87: PWM1DCL = 0x48;
  3044  01F0  3048               	movlw	72
  3045  01F1  0093               	movwf	19	;volatile
  3046                           
  3047                           ;pwm1.c: 90: PWM1PRH = 0x78;
  3048  01F2  3078               	movlw	120
  3049  01F3  0096               	movwf	22	;volatile
  3050                           
  3051                           ;pwm1.c: 93: PWM1PRL = 0x90;
  3052  01F4  3090               	movlw	144
  3053  01F5  0095               	movwf	21	;volatile
  3054                           
  3055                           ;pwm1.c: 96: PWM1OFH = 0x00;
  3056  01F6  0198               	clrf	24	;volatile
  3057                           
  3058                           ;pwm1.c: 99: PWM1OFL = 0x01;
  3059  01F7  3001               	movlw	1
  3060  01F8  0097               	movwf	23	;volatile
  3061                           
  3062                           ;pwm1.c: 102: PWM1TMRH = 0x00;
  3063  01F9  019A               	clrf	26	;volatile
  3064                           
  3065                           ;pwm1.c: 105: PWM1TMRL = 0x00;
  3066  01FA  0199               	clrf	25	;volatile
  3067                           
  3068                           ;pwm1.c: 108: PWM1CON = 0x80;
  3069  01FB  3080               	movlw	128
  3070  01FC  009B               	movwf	27	;volatile
  3071  01FD  0008               	return
  3072  01FE                     __end_of_PWM1_Initialize:	
  3073  01FE                     __ptext6:	
  3074 ;; *************** function _WDT_Initialize *****************
  3075 ;; Defined at:
  3076 ;;		line 92 in file "mcc_generated_files/mcc.c"
  3077 ;; Parameters:    Size  Location     Type
  3078 ;;		None
  3079 ;; Auto vars:     Size  Location     Type
  3080 ;;		None
  3081 ;; Return value:  Size  Location     Type
  3082 ;;                  1    wreg      void 
  3083 ;; Registers used:
  3084 ;;		wreg
  3085 ;; Tracked objects:
  3086 ;;		On entry : 1F/1
  3087 ;;		On exit  : 1F/1
  3088 ;;		Unchanged: 0/0
  3089 ;; Data sizes:     COMMON   BANK0   BANK1   BANK2   BANK3   BANK4   BANK5   BANK6   BANK7   BANK8   BANK9  BANK10  BANK1
      +1  BANK12
  3090 ;;      Params:         0       0       0       0       0       0       0       0       0       0       0       0       
      +0       0
  3091 ;;      Locals:         0       0       0       0       0       0       0       0       0       0       0       0       
      +0       0
  3092 ;;      Temps:          0       0       0       0       0       0       0       0       0       0       0       0       
      +0       0
  3093 ;;      Totals:         0       0       0       0       0       0       0       0       0       0       0       0       
      +0       0
  3094 ;;Total ram usage:        0 bytes
  3095 ;; Hardware stack levels used:    1
  3096 ;; Hardware stack levels required when called:    4
  3097 ;; This function calls:
  3098 ;;		Nothing
  3099 ;; This function is called by:
  3100 ;;		_SYSTEM_Initialize
  3101 ;; This function uses a non-reentrant model
  3102 ;;
  3103                           
  3104                           
  3105                           ;psect for function _WDT_Initialize
  3106  01FE                     _WDT_Initialize:	
  3107                           
  3108                           ;mcc.c: 95: WDTCON = 0x16;
  3109                           
  3110                           ;incstack = 0
  3111                           ; Regs used in _WDT_Initialize: [wreg]
  3112  01FE  3016               	movlw	22
  3113  01FF  0097               	movwf	23	;volatile
  3114  0200  0008               	return
  3115  0201                     __end_of_WDT_Initialize:	
  3116                           
  3117                           	psect	bssCOMMON
  3118  007C                     __pbssCOMMON:	
  3119  007C                     _SysTick_Ticked:	
  3120  007C                     	ds	1
  3121  007D                     _is_unit_running:	
  3122  007D                     	ds	1
  3123                           
  3124                           	psect	bssBANK0
  3125  0020                     __pbssBANK0:	
  3126  0020                     _SysTick:	
  3127  0020                     	ds	4
  3128  0024                     _dwell_timer_ms:	
  3129  0024                     	ds	4
  3130  0028                     _task_10mS:	
  3131  0028                     	ds	4
  3132  002C                     _task_1s:	
  3133  002C                     	ds	4
  3134  0030                     _TMR1_InterruptHandler:	
  3135  0030                     	ds	2
  3136  0032                     _timer1ReloadVal:	
  3137  0032                     	ds	2
  3138  0034                     _btn_start:	
  3139  0034                     	ds	5
  3140  0039                     _btn_stop:	
  3141  0039                     	ds	5
  3142                           
  3143                           	psect	dataBANK0
  3144  003E                     __pdataBANK0:	
  3145  003E                     _dwell_timeout:	
  3146  003E                     	ds	4
  3147                           
  3148                           	psect	clrtext
  3149  0219                     clear_ram0:	
  3150                           ;	Called with FSR0 containing the base address, and
  3151                           ;	WREG with the size to clear
  3152                           
  3153  0219  0064               	clrwdt	;clear the watchdog before getting into this loop
  3154  021A                     clrloop0:	
  3155  021A  0180               	clrf	0	;clear RAM location pointed to by FSR
  3156  021B  3101               	addfsr 0,1
  3157  021C  0B89               	decfsz	9,f	;Have we reached the end of clearing yet?
  3158  021D  2A1A               	goto	clrloop0	;have we reached the end yet?
  3159  021E  3400               	retlw	0	;all done for this memory range, return
  3160                           
  3161                           	psect	cstackCOMMON
  3162  0070                     __pcstackCOMMON:	
  3163  0070                     ?_TMR1_SetInterruptHandler:	
  3164  0070                     ?_TMR1_DefaultInterruptHandler:	
  3165                           ; 1 bytes @ 0x0
  3166                           
  3167  0070                     ??_TMR1_DefaultInterruptHandler:	
  3168                           ; 1 bytes @ 0x0
  3169                           
  3170  0070                     ?_TMR1_StartTimer:	
  3171                           ; 1 bytes @ 0x0
  3172                           
  3173  0070                     ??_TMR1_StartTimer:	
  3174                           ; 1 bytes @ 0x0
  3175                           
  3176  0070                     ?_TMR1_CallBack:	
  3177                           ; 1 bytes @ 0x0
  3178                           
  3179  0070                     ??_TMR1_CallBack:	
  3180                           ; 1 bytes @ 0x0
  3181                           
  3182  0070                     ?_PIN_MANAGER_Initialize:	
  3183                           ; 1 bytes @ 0x0
  3184                           
  3185  0070                     ??_PIN_MANAGER_Initialize:	
  3186                           ; 1 bytes @ 0x0
  3187                           
  3188  0070                     ?_OSCILLATOR_Initialize:	
  3189                           ; 1 bytes @ 0x0
  3190                           
  3191  0070                     ??_OSCILLATOR_Initialize:	
  3192                           ; 1 bytes @ 0x0
  3193                           
  3194  0070                     ?_WDT_Initialize:	
  3195                           ; 1 bytes @ 0x0
  3196                           
  3197  0070                     ??_WDT_Initialize:	
  3198                           ; 1 bytes @ 0x0
  3199                           
  3200  0070                     ?_init_hardware:	
  3201                           ; 1 bytes @ 0x0
  3202                           
  3203  0070                     ?_initSysTick:	
  3204                           ; 1 bytes @ 0x0
  3205                           
  3206  0070                     ?_debounceInput:	
  3207                           ; 1 bytes @ 0x0
  3208                           
  3209  0070                     ?_ButtonPressed:	
  3210                           ; 1 bytes @ 0x0
  3211                           
  3212  0070                     ??_ButtonPressed:	
  3213                           ; 1 bytes @ 0x0
  3214                           
  3215  0070                     ?_initDebounce:	
  3216                           ; 1 bytes @ 0x0
  3217                           
  3218  0070                     ?_PWM1_Initialize:	
  3219                           ; 1 bytes @ 0x0
  3220                           
  3221  0070                     ??_PWM1_Initialize:	
  3222                           ; 1 bytes @ 0x0
  3223                           
  3224  0070                     ?_PWM1_Start:	
  3225                           ; 1 bytes @ 0x0
  3226                           
  3227  0070                     ??_PWM1_Start:	
  3228                           ; 1 bytes @ 0x0
  3229                           
  3230  0070                     ?_PWM1_Stop:	
  3231                           ; 1 bytes @ 0x0
  3232                           
  3233  0070                     ??_PWM1_Stop:	
  3234                           ; 1 bytes @ 0x0
  3235                           
  3236  0070                     ?_TMR1_Initialize:	
  3237                           ; 1 bytes @ 0x0
  3238                           
  3239  0070                     ?_TMR1_StopTimer:	
  3240                           ; 1 bytes @ 0x0
  3241                           
  3242  0070                     ??_TMR1_StopTimer:	
  3243                           ; 1 bytes @ 0x0
  3244                           
  3245  0070                     ?_TMR1_ISR:	
  3246                           ; 1 bytes @ 0x0
  3247                           
  3248  0070                     ??_TMR1_ISR:	
  3249                           ; 1 bytes @ 0x0
  3250                           
  3251  0070                     ?_INTERRUPT_InterruptManager:	
  3252                           ; 1 bytes @ 0x0
  3253                           
  3254  0070                     ??_INTERRUPT_InterruptManager:	
  3255                           ; 1 bytes @ 0x0
  3256                           
  3257  0070                     ?_SYSTEM_Initialize:	
  3258                           ; 1 bytes @ 0x0
  3259                           
  3260  0070                     ?_systemTimerCallback:	
  3261                           ; 1 bytes @ 0x0
  3262                           
  3263  0070                     ??_systemTimerCallback:	
  3264                           ; 1 bytes @ 0x0
  3265                           
  3266  0070                     ?_main:	
  3267                           ; 1 bytes @ 0x0
  3268                           
  3269  0070                     ?_GetSysTick:	
  3270                           ; 2 bytes @ 0x0
  3271                           
  3272  0070                     PIN_MANAGER_Initialize@state:	
  3273                           ; 4 bytes @ 0x0
  3274                           
  3275  0070                     initDebounce@initalState:	
  3276                           ; 1 bytes @ 0x0
  3277                           
  3278  0070                     debounceInput@rawInput:	
  3279                           ; 1 bytes @ 0x0
  3280                           
  3281  0070                     ButtonPressed@pin:	
  3282                           ; 1 bytes @ 0x0
  3283                           
  3284  0070                     TMR1_SetInterruptHandler@InterruptHandler:	
  3285                           ; 1 bytes @ 0x0
  3286                           
  3287                           
  3288                           ; 2 bytes @ 0x0
  3289  0070                     	ds	1
  3290  0071                     ??_debounceInput:	
  3291  0071                     ??_initDebounce:	
  3292                           ; 1 bytes @ 0x1
  3293                           
  3294  0071                     initDebounce@pin:	
  3295                           ; 1 bytes @ 0x1
  3296                           
  3297  0071                     debounceInput@pin:	
  3298                           ; 1 bytes @ 0x1
  3299                           
  3300                           
  3301                           ; 1 bytes @ 0x1
  3302  0071                     	ds	1
  3303  0072                     ??_TMR1_SetInterruptHandler:	
  3304  0072                     ??_init_hardware:	
  3305                           ; 1 bytes @ 0x2
  3306                           
  3307  0072                     ??_initSysTick:	
  3308                           ; 1 bytes @ 0x2
  3309                           
  3310  0072                     ??_TMR1_Initialize:	
  3311                           ; 1 bytes @ 0x2
  3312                           
  3313  0072                     ??_SYSTEM_Initialize:	
  3314                           ; 1 bytes @ 0x2
  3315                           
  3316                           
  3317                           ; 1 bytes @ 0x2
  3318  0072                     	ds	2
  3319  0074                     ??_GetSysTick:	
  3320  0074                     ?_timePassed:	
  3321                           ; 1 bytes @ 0x4
  3322                           
  3323  0074                     timePassed@timeOrig:	
  3324                           ; 4 bytes @ 0x4
  3325                           
  3326                           
  3327                           ; 4 bytes @ 0x4
  3328  0074                     	ds	4
  3329  0078                     ??_timePassed:	
  3330                           
  3331                           ; 1 bytes @ 0x8
  3332  0078                     	ds	4
  3333  007C                     ??_main:	
  3334                           
  3335                           	psect	cstackBANK0
  3336  0042                     __pcstackBANK0:	
  3337                           ; 1 bytes @ 0xC
  3338                           
  3339  0042                     timePassed@now:	
  3340                           
  3341                           ; 4 bytes @ 0x0
  3342  0042                     	ds	4
  3343                           
  3344                           	psect	intentry
  3345  0004                     __pintentry:	
  3346 ;; *************** function _INTERRUPT_InterruptManager *****************
  3347 ;; Defined at:
  3348 ;;		line 51 in file "mcc_generated_files/interrupt_manager.c"
  3349 ;; Parameters:    Size  Location     Type
  3350 ;;		None
  3351 ;; Auto vars:     Size  Location     Type
  3352 ;;		None
  3353 ;; Return value:  Size  Location     Type
  3354 ;;                  1    wreg      void 
  3355 ;; Registers used:
  3356 ;;		wreg, status,2, status,0, pclath, cstack
  3357 ;; Tracked objects:
  3358 ;;		On entry : 0/0
  3359 ;;		On exit  : 0/0
  3360 ;;		Unchanged: 0/0
  3361 ;; Data sizes:     COMMON   BANK0   BANK1   BANK2   BANK3   BANK4   BANK5   BANK6   BANK7   BANK8   BANK9  BANK10  BANK1
      +1  BANK12
  3362 ;;      Params:         0       0       0       0       0       0       0       0       0       0       0       0       
      +0       0
  3363 ;;      Locals:         0       0       0       0       0       0       0       0       0       0       0       0       
      +0       0
  3364 ;;      Temps:          0       0       0       0       0       0       0       0       0       0       0       0       
      +0       0
  3365 ;;      Totals:         0       0       0       0       0       0       0       0       0       0       0       0       
      +0       0
  3366 ;;Total ram usage:        0 bytes
  3367 ;; Hardware stack levels used:    1
  3368 ;; Hardware stack levels required when called:    3
  3369 ;; This function calls:
  3370 ;;		_TMR1_ISR
  3371 ;; This function is called by:
  3372 ;;		Interrupt level 1
  3373 ;; This function uses a non-reentrant model
  3374 ;;
  3375                           
  3376  0004                     _INTERRUPT_InterruptManager:	
  3377                           
  3378                           ;incstack = 0
  3379  0004  147E               	bsf	126,0	;set compiler interrupt flag (level 1)
  3380                           
  3381                           ; Regs used in _INTERRUPT_InterruptManager: [wreg+status,2+status,0+pclath+cstack]
  3382  0005  3180               	pagesel	$
  3383                           
  3384                           ;interrupt_manager.c: 54: if(INTCONbits.PEIE == 1 && PIE1bits.TMR1IE == 1 && PIR1bits.TM
      +                          R1IF == 1)
  3385  0006  1F0B               	btfss	11,6	;volatile
  3386  0007  2810               	goto	i1l160
  3387  0008  0021               	movlb	1	; select bank1
  3388  0009  1C11               	btfss	17,0	;volatile
  3389  000A  2810               	goto	i1l160
  3390  000B  0020               	movlb	0	; select bank0
  3391  000C  1C11               	btfss	17,0	;volatile
  3392  000D  2810               	goto	i1l160
  3393                           
  3394                           ;interrupt_manager.c: 55: {
  3395                           ;interrupt_manager.c: 56: TMR1_ISR();
  3396  000E  3182  2201         	fcall	_TMR1_ISR
  3397  0010                     i1l160:	
  3398                           ;interrupt_manager.c: 57: }
  3399                           
  3400  0010  107E               	bcf	126,0	;clear compiler interrupt flag (level 1)
  3401  0011  0009               	retfie
  3402  0012                     __end_of_INTERRUPT_InterruptManager:	
  3403                           
  3404                           	psect	text20
  3405  0201                     __ptext20:	
  3406 ;; *************** function _TMR1_ISR *****************
  3407 ;; Defined at:
  3408 ;;		line 155 in file "mcc_generated_files/tmr1.c"
  3409 ;; Parameters:    Size  Location     Type
  3410 ;;		None
  3411 ;; Auto vars:     Size  Location     Type
  3412 ;;		None
  3413 ;; Return value:  Size  Location     Type
  3414 ;;                  1    wreg      void 
  3415 ;; Registers used:
  3416 ;;		wreg, status,2, status,0, pclath, cstack
  3417 ;; Tracked objects:
  3418 ;;		On entry : 1F/0
  3419 ;;		On exit  : 0/0
  3420 ;;		Unchanged: 0/0
  3421 ;; Data sizes:     COMMON   BANK0   BANK1   BANK2   BANK3   BANK4   BANK5   BANK6   BANK7   BANK8   BANK9  BANK10  BANK1
      +1  BANK12
  3422 ;;      Params:         0       0       0       0       0       0       0       0       0       0       0       0       
      +0       0
  3423 ;;      Locals:         0       0       0       0       0       0       0       0       0       0       0       0       
      +0       0
  3424 ;;      Temps:          0       0       0       0       0       0       0       0       0       0       0       0       
      +0       0
  3425 ;;      Totals:         0       0       0       0       0       0       0       0       0       0       0       0       
      +0       0
  3426 ;;Total ram usage:        0 bytes
  3427 ;; Hardware stack levels used:    1
  3428 ;; Hardware stack levels required when called:    2
  3429 ;; This function calls:
  3430 ;;		_TMR1_CallBack
  3431 ;; This function is called by:
  3432 ;;		_INTERRUPT_InterruptManager
  3433 ;; This function uses a non-reentrant model
  3434 ;;
  3435                           
  3436                           
  3437                           ;psect for function _TMR1_ISR
  3438  0201                     _TMR1_ISR:	
  3439                           
  3440                           ;tmr1.c: 159: PIR1bits.TMR1IF = 0;
  3441                           
  3442                           ;incstack = 0
  3443                           ; Regs used in _TMR1_ISR: [wreg+status,2+status,0+pclath+cstack]
  3444  0201  1011               	bcf	17,0	;volatile
  3445                           
  3446                           ;tmr1.c: 161: TMR1H = (timer1ReloadVal >> 8);
  3447  0202  0833               	movf	_timer1ReloadVal+1,w	;volatile
  3448  0203  0097               	movwf	23	;volatile
  3449                           
  3450                           ;tmr1.c: 162: TMR1L = timer1ReloadVal;
  3451  0204  0832               	movf	_timer1ReloadVal,w	;volatile
  3452  0205  0096               	movwf	22	;volatile
  3453                           
  3454                           ;tmr1.c: 166: TMR1_CallBack();
  3455  0206  2A07               	ljmp	i1l1058
  3456  0207                     __end_of_TMR1_ISR:	
  3457  0207                     __ptext21:	
  3458 ;; *************** function _TMR1_CallBack *****************
  3459 ;; Defined at:
  3460 ;;		line 169 in file "mcc_generated_files/tmr1.c"
  3461 ;; Parameters:    Size  Location     Type
  3462 ;;		None
  3463 ;; Auto vars:     Size  Location     Type
  3464 ;;		None
  3465 ;; Return value:  Size  Location     Type
  3466 ;;                  1    wreg      void 
  3467 ;; Registers used:
  3468 ;;		wreg, status,2, status,0, pclath, cstack
  3469 ;; Tracked objects:
  3470 ;;		On entry : 1F/0
  3471 ;;		On exit  : 0/0
  3472 ;;		Unchanged: 0/0
  3473 ;; Data sizes:     COMMON   BANK0   BANK1   BANK2   BANK3   BANK4   BANK5   BANK6   BANK7   BANK8   BANK9  BANK10  BANK1
      +1  BANK12
  3474 ;;      Params:         0       0       0       0       0       0       0       0       0       0       0       0       
      +0       0
  3475 ;;      Locals:         0       0       0       0       0       0       0       0       0       0       0       0       
      +0       0
  3476 ;;      Temps:          0       0       0       0       0       0       0       0       0       0       0       0       
      +0       0
  3477 ;;      Totals:         0       0       0       0       0       0       0       0       0       0       0       0       
      +0       0
  3478 ;;Total ram usage:        0 bytes
  3479 ;; Hardware stack levels used:    1
  3480 ;; Hardware stack levels required when called:    1
  3481 ;; This function calls:
  3482 ;;		Absolute function
  3483 ;;		_TMR1_DefaultInterruptHandler
  3484 ;;		_systemTimerCallback
  3485 ;; This function is called by:
  3486 ;;		_TMR1_ISR
  3487 ;; This function uses a non-reentrant model
  3488 ;;
  3489                           
  3490                           
  3491                           ;psect for function _TMR1_CallBack
  3492  0207                     _TMR1_CallBack:	
  3493  0207                     i1l1058:	
  3494                           ;incstack = 0
  3495                           ; Regs used in _TMR1_CallBack: [wreg+status,2+status,0+pclath+cstack]
  3496                           
  3497                           
  3498                           ;tmr1.c: 172: if(TMR1_InterruptHandler)
  3499  0207  0830               	movf	_TMR1_InterruptHandler,w
  3500  0208  0431               	iorwf	_TMR1_InterruptHandler+1,w
  3501  0209  1903               	btfsc	3,2
  3502  020A  0008               	return
  3503                           
  3504                           ;tmr1.c: 173: {
  3505                           ;tmr1.c: 174: TMR1_InterruptHandler();
  3506  020B  0831               	movf	_TMR1_InterruptHandler+1,w
  3507  020C  008A               	movwf	10
  3508  020D  0830               	movf	_TMR1_InterruptHandler,w
  3509  020E  000A               	callw
  3510  020F  3182               	pagesel	$
  3511  0210  0008               	return
  3512  0211                     __end_of_TMR1_CallBack:	
  3513                           
  3514                           	psect	text22
  3515  021F                     __ptext22:	
  3516 ;; *************** function _TMR1_DefaultInterruptHandler *****************
  3517 ;; Defined at:
  3518 ;;		line 182 in file "mcc_generated_files/tmr1.c"
  3519 ;; Parameters:    Size  Location     Type
  3520 ;;		None
  3521 ;; Auto vars:     Size  Location     Type
  3522 ;;		None
  3523 ;; Return value:  Size  Location     Type
  3524 ;;                  1    wreg      void 
  3525 ;; Registers used:
  3526 ;;		None
  3527 ;; Tracked objects:
  3528 ;;		On entry : 1F/0
  3529 ;;		On exit  : 1F/0
  3530 ;;		Unchanged: 1F/0
  3531 ;; Data sizes:     COMMON   BANK0   BANK1   BANK2   BANK3   BANK4   BANK5   BANK6   BANK7   BANK8   BANK9  BANK10  BANK1
      +1  BANK12
  3532 ;;      Params:         0       0       0       0       0       0       0       0       0       0       0       0       
      +0       0
  3533 ;;      Locals:         0       0       0       0       0       0       0       0       0       0       0       0       
      +0       0
  3534 ;;      Temps:          0       0       0       0       0       0       0       0       0       0       0       0       
      +0       0
  3535 ;;      Totals:         0       0       0       0       0       0       0       0       0       0       0       0       
      +0       0
  3536 ;;Total ram usage:        0 bytes
  3537 ;; Hardware stack levels used:    1
  3538 ;; This function calls:
  3539 ;;		Nothing
  3540 ;; This function is called by:
  3541 ;;		_TMR1_Initialize
  3542 ;;		_TMR1_CallBack
  3543 ;; This function uses a non-reentrant model
  3544 ;;
  3545                           
  3546                           
  3547                           ;psect for function _TMR1_DefaultInterruptHandler
  3548  021F                     _TMR1_DefaultInterruptHandler:	
  3549                           
  3550                           ;incstack = 0
  3551                           ; Regs used in _TMR1_DefaultInterruptHandler: []
  3552  021F  0008               	return
  3553  0220                     __end_of_TMR1_DefaultInterruptHandler:	
  3554                           
  3555                           	psect	text23
  3556  0211                     __ptext23:	
  3557 ;; *************** function _systemTimerCallback *****************
  3558 ;; Defined at:
  3559 ;;		line 53 in file "system_Tick.c"
  3560 ;; Parameters:    Size  Location     Type
  3561 ;;		None
  3562 ;; Auto vars:     Size  Location     Type
  3563 ;;		None
  3564 ;; Return value:  Size  Location     Type
  3565 ;;                  1    wreg      void 
  3566 ;; Registers used:
  3567 ;;		wreg, status,2, status,0
  3568 ;; Tracked objects:
  3569 ;;		On entry : 1F/0
  3570 ;;		On exit  : 1F/0
  3571 ;;		Unchanged: 0/0
  3572 ;; Data sizes:     COMMON   BANK0   BANK1   BANK2   BANK3   BANK4   BANK5   BANK6   BANK7   BANK8   BANK9  BANK10  BANK1
      +1  BANK12
  3573 ;;      Params:         0       0       0       0       0       0       0       0       0       0       0       0       
      +0       0
  3574 ;;      Locals:         0       0       0       0       0       0       0       0       0       0       0       0       
      +0       0
  3575 ;;      Temps:          0       0       0       0       0       0       0       0       0       0       0       0       
      +0       0
  3576 ;;      Totals:         0       0       0       0       0       0       0       0       0       0       0       0       
      +0       0
  3577 ;;Total ram usage:        0 bytes
  3578 ;; Hardware stack levels used:    1
  3579 ;; This function calls:
  3580 ;;		Nothing
  3581 ;; This function is called by:
  3582 ;;		_initSysTick
  3583 ;;		_TMR1_CallBack
  3584 ;; This function uses a non-reentrant model
  3585 ;;
  3586                           
  3587                           
  3588                           ;psect for function _systemTimerCallback
  3589  0211                     _systemTimerCallback:	
  3590                           
  3591                           ;system_Tick.c: 55: SysTick_Ticked = 1;
  3592                           
  3593                           ;incstack = 0
  3594                           ; Regs used in _systemTimerCallback: [wreg+status,2+status,0]
  3595  0211  3001               	movlw	1
  3596  0212  00FC               	movwf	_SysTick_Ticked	;volatile
  3597                           
  3598                           ;system_Tick.c: 56: SysTick++;
  3599  0213  07A0               	addwf	_SysTick,f	;volatile
  3600  0214  3000               	movlw	0
  3601  0215  3DA1               	addwfc	_SysTick+1,f	;volatile
  3602  0216  3DA2               	addwfc	_SysTick+2,f	;volatile
  3603  0217  3DA3               	addwfc	_SysTick+3,f	;volatile
  3604  0218  0008               	return
  3605  0219                     __end_of_systemTimerCallback:	
  3606  007E                     btemp	set	126	;btemp
  3607  007E                     int$flags	set	126
  3608  007E                     wtemp	set	126
  3609  007E                     wtemp0	set	126
  3610  0080                     wtemp1	set	128
  3611  0082                     wtemp2	set	130
  3612  0084                     wtemp3	set	132
  3613  0086                     wtemp4	set	134
  3614  0088                     wtemp5	set	136
  3615  007F                     wtemp6	set	127
  3616  007E                     ttemp	set	126
  3617  007E                     ttemp0	set	126
  3618  0081                     ttemp1	set	129
  3619  0084                     ttemp2	set	132
  3620  0087                     ttemp3	set	135
  3621  007F                     ttemp4	set	127
  3622  007E                     ltemp	set	126
  3623  007E                     ltemp0	set	126
  3624  0082                     ltemp1	set	130
  3625  0086                     ltemp2	set	134
  3626  0080                     ltemp3	set	128


Data Sizes:
    Strings     0
    Constant    0
    Data        4
    BSS         32
    Persistent  0
    Stack       0

Auto Spaces:
    Space          Size  Autos    Used
    COMMON           14     12      14
    BANK0            80      4      38
    BANK1            80      0       0
    BANK2            80      0       0
    BANK3            80      0       0
    BANK4            80      0       0
    BANK5            80      0       0
    BANK6            80      0       0
    BANK7            80      0       0
    BANK8            80      0       0
    BANK9            80      0       0
    BANK10           80      0       0
    BANK11           80      0       0
    BANK12           32      0       0

Pointer List with Targets:

    ButtonPressed@pin	PTR struct . size(1) Largest target is 5
		 -> btn_stop(BANK0[5]), btn_start(BANK0[5]), 

    debounceInput@pin	PTR struct . size(1) Largest target is 5
		 -> btn_stop(BANK0[5]), btn_start(BANK0[5]), 

    initDebounce@pin	PTR struct . size(1) Largest target is 5
		 -> btn_stop(BANK0[5]), btn_start(BANK0[5]), 

    TMR1_SetInterruptHandler@InterruptHandler	PTR void  size(2) Largest target is 1
		 -> systemTimerCallback(), TMR1_DefaultInterruptHandler(), 

    TMR1_InterruptHandler	PTR FTN()void  size(2) Largest target is 1
		 -> systemTimerCallback(), Absolute function(), TMR1_DefaultInterruptHandler(), 


Critical Paths under _main in COMMON

    _main->_timePassed
    _timePassed->_GetSysTick
    _init_hardware->_initDebounce
    _initSysTick->_TMR1_SetInterruptHandler
    _TMR1_Initialize->_TMR1_SetInterruptHandler

Critical Paths under _INTERRUPT_InterruptManager in COMMON

    None.

Critical Paths under _main in BANK0

    _main->_timePassed

Critical Paths under _INTERRUPT_InterruptManager in BANK0

    None.

Critical Paths under _main in BANK1

    None.

Critical Paths under _INTERRUPT_InterruptManager in BANK1

    None.

Critical Paths under _main in BANK2

    None.

Critical Paths under _INTERRUPT_InterruptManager in BANK2

    None.

Critical Paths under _main in BANK3

    None.

Critical Paths under _INTERRUPT_InterruptManager in BANK3

    None.

Critical Paths under _main in BANK4

    None.

Critical Paths under _INTERRUPT_InterruptManager in BANK4

    None.

Critical Paths under _main in BANK5

    None.

Critical Paths under _INTERRUPT_InterruptManager in BANK5

    None.

Critical Paths under _main in BANK6

    None.

Critical Paths under _INTERRUPT_InterruptManager in BANK6

    None.

Critical Paths under _main in BANK7

    None.

Critical Paths under _INTERRUPT_InterruptManager in BANK7

    None.

Critical Paths under _main in BANK8

    None.

Critical Paths under _INTERRUPT_InterruptManager in BANK8

    None.

Critical Paths under _main in BANK9

    None.

Critical Paths under _INTERRUPT_InterruptManager in BANK9

    None.

Critical Paths under _main in BANK10

    None.

Critical Paths under _INTERRUPT_InterruptManager in BANK10

    None.

Critical Paths under _main in BANK11

    None.

Critical Paths under _INTERRUPT_InterruptManager in BANK11

    None.

Critical Paths under _main in BANK12

    None.

Critical Paths under _INTERRUPT_InterruptManager in BANK12

    None.

Call Graph Tables:

 ---------------------------------------------------------------------------------
 (Depth) Function   	        Calls       Base Space   Used Autos Params    Refs
 ---------------------------------------------------------------------------------
 (0) _main                                                 0     0      0    1601
                      _ButtonPressed
                         _GetSysTick
                         _PWM1_Start
                          _PWM1_Stop
                      _debounceInput
                        _initSysTick
                      _init_hardware
                         _timePassed
 ---------------------------------------------------------------------------------
 (1) _timePassed                                          12     8      4     292
                                              4 COMMON     8     4      4
                                              0 BANK0      4     4      0
                         _GetSysTick
 ---------------------------------------------------------------------------------
 (2) _GetSysTick                                           4     0      4       0
                                              0 COMMON     4     0      4
 ---------------------------------------------------------------------------------
 (1) _init_hardware                                        0     0      0     465
                          _PWM1_Stop
                  _SYSTEM_Initialize
                       _initDebounce
 ---------------------------------------------------------------------------------
 (2) _initDebounce                                         2     1      1     314
                                              0 COMMON     2     1      1
 ---------------------------------------------------------------------------------
 (2) _SYSTEM_Initialize                                    0     0      0     151
              _OSCILLATOR_Initialize
             _PIN_MANAGER_Initialize
                    _PWM1_Initialize
                    _TMR1_Initialize
                     _WDT_Initialize
 ---------------------------------------------------------------------------------
 (3) _WDT_Initialize                                       0     0      0       0
 ---------------------------------------------------------------------------------
 (3) _PWM1_Initialize                                      0     0      0       0
 ---------------------------------------------------------------------------------
 (3) _PIN_MANAGER_Initialize                               1     1      0      23
                                              0 COMMON     1     1      0
 ---------------------------------------------------------------------------------
 (3) _OSCILLATOR_Initialize                                0     0      0       0
 ---------------------------------------------------------------------------------
 (2) _PWM1_Stop                                            0     0      0       0
 ---------------------------------------------------------------------------------
 (1) _initSysTick                                          0     0      0     256
                    _TMR1_Initialize
           _TMR1_SetInterruptHandler
                    _TMR1_StartTimer
                     _TMR1_StopTimer
 ---------------------------------------------------------------------------------
 (2) _TMR1_StopTimer                                       0     0      0       0
 ---------------------------------------------------------------------------------
 (3) _TMR1_Initialize                                      0     0      0     128
           _TMR1_SetInterruptHandler
                    _TMR1_StartTimer
 ---------------------------------------------------------------------------------
 (4) _TMR1_StartTimer                                      0     0      0       0
 ---------------------------------------------------------------------------------
 (4) _TMR1_SetInterruptHandler                             2     0      2     128
                                              0 COMMON     2     0      2
 ---------------------------------------------------------------------------------
 (1) _debounceInput                                        2     1      1     490
                                              0 COMMON     2     1      1
 ---------------------------------------------------------------------------------
 (1) _PWM1_Start                                           0     0      0       0
 ---------------------------------------------------------------------------------
 (1) _ButtonPressed                                        1     1      0      98
                                              0 COMMON     1     1      0
 ---------------------------------------------------------------------------------
 Estimated maximum stack depth 4
 ---------------------------------------------------------------------------------
 (Depth) Function   	        Calls       Base Space   Used Autos Params    Refs
 ---------------------------------------------------------------------------------
 (5) _INTERRUPT_InterruptManager                           0     0      0       0
                           _TMR1_ISR
 ---------------------------------------------------------------------------------
 (6) _TMR1_ISR                                             0     0      0       0
                      _TMR1_CallBack
 ---------------------------------------------------------------------------------
 (7) _TMR1_CallBack                                        0     0      0       0
                   Absolute function *
       _TMR1_DefaultInterruptHandler *
                _systemTimerCallback *
 ---------------------------------------------------------------------------------
 (8) _systemTimerCallback                                  0     0      0       0
 ---------------------------------------------------------------------------------
 (8) _TMR1_DefaultInterruptHandler                         0     0      0       0
 ---------------------------------------------------------------------------------
 (8) Absolute function(Fake)                               0     0      0       0
 ---------------------------------------------------------------------------------
 Estimated maximum stack depth 8
 ---------------------------------------------------------------------------------

 Call Graph Graphs:

 _main (ROOT)
   _ButtonPressed
   _GetSysTick
   _PWM1_Start
   _PWM1_Stop
   _debounceInput
   _initSysTick
     _TMR1_Initialize
       _TMR1_SetInterruptHandler
       _TMR1_StartTimer
     _TMR1_SetInterruptHandler
     _TMR1_StartTimer
     _TMR1_StopTimer
   _init_hardware
     _PWM1_Stop
     _SYSTEM_Initialize
       _OSCILLATOR_Initialize
       _PIN_MANAGER_Initialize
       _PWM1_Initialize
       _TMR1_Initialize
         _TMR1_SetInterruptHandler
         _TMR1_StartTimer
       _WDT_Initialize
     _initDebounce
   _timePassed
     _GetSysTick

 _INTERRUPT_InterruptManager (ROOT)
   _TMR1_ISR
     _TMR1_CallBack
       Absolute function(Fake) *
       _TMR1_DefaultInterruptHandler *
       _systemTimerCallback *

 Address spaces:
Name               Size   Autos  Total    Cost      Usage
BIGRAM             3E0      0       0       0        0.0%
NULL                 0      0       0       0        0.0%
CODE                 0      0       0       0        0.0%
BITCOMMON            E      0       0       1        0.0%
BITSFR0              0      0       0       1        0.0%
SFR0                 0      0       0       1        0.0%
COMMON               E      C       E       2      100.0%
BITSFR1              0      0       0       2        0.0%
SFR1                 0      0       0       2        0.0%
BITSFR2              0      0       0       3        0.0%
SFR2                 0      0       0       3        0.0%
STACK                0      0       0       3        0.0%
BITBANK0            50      0       0       4        0.0%
BITSFR3              0      0       0       4        0.0%
SFR3                 0      0       0       4        0.0%
BANK0               50      4      26       5       47.5%
BITSFR4              0      0       0       5        0.0%
SFR4                 0      0       0       5        0.0%
BITBANK1            50      0       0       6        0.0%
BITSFR5              0      0       0       6        0.0%
SFR5                 0      0       0       6        0.0%
BANK1               50      0       0       7        0.0%
BITSFR6              0      0       0       7        0.0%
SFR6                 0      0       0       7        0.0%
BITBANK2            50      0       0       8        0.0%
BITSFR7              0      0       0       8        0.0%
SFR7                 0      0       0       8        0.0%
BANK2               50      0       0       9        0.0%
BITSFR8              0      0       0       9        0.0%
SFR8                 0      0       0       9        0.0%
BITBANK3            50      0       0      10        0.0%
BITSFR9              0      0       0      10        0.0%
SFR9                 0      0       0      10        0.0%
BANK3               50      0       0      11        0.0%
BITSFR10             0      0       0      11        0.0%
SFR10                0      0       0      11        0.0%
BITBANK4            50      0       0      12        0.0%
BITSFR11             0      0       0      12        0.0%
SFR11                0      0       0      12        0.0%
BANK4               50      0       0      13        0.0%
BITSFR12             0      0       0      13        0.0%
SFR12                0      0       0      13        0.0%
BITBANK5            50      0       0      14        0.0%
BITSFR13             0      0       0      14        0.0%
SFR13                0      0       0      14        0.0%
BANK5               50      0       0      15        0.0%
BITSFR14             0      0       0      15        0.0%
SFR14                0      0       0      15        0.0%
BITBANK6            50      0       0      16        0.0%
BITSFR15             0      0       0      16        0.0%
SFR15                0      0       0      16        0.0%
BANK6               50      0       0      17        0.0%
BITSFR16             0      0       0      17        0.0%
SFR16                0      0       0      17        0.0%
BITBANK7            50      0       0      18        0.0%
BITSFR17             0      0       0      18        0.0%
SFR17                0      0       0      18        0.0%
BANK7               50      0       0      19        0.0%
BITSFR18             0      0       0      19        0.0%
SFR18                0      0       0      19        0.0%
BITSFR19             0      0       0      20        0.0%
SFR19                0      0       0      20        0.0%
ABS                  0      0      34      20        0.0%
BITBANK8            50      0       0      21        0.0%
BITSFR20             0      0       0      21        0.0%
SFR20                0      0       0      21        0.0%
BANK8               50      0       0      22        0.0%
BITSFR21             0      0       0      22        0.0%
SFR21                0      0       0      22        0.0%
BITBANK9            50      0       0      23        0.0%
BITSFR22             0      0       0      23        0.0%
SFR22                0      0       0      23        0.0%
BANK9               50      0       0      24        0.0%
BITSFR23             0      0       0      24        0.0%
SFR23                0      0       0      24        0.0%
BITBANK10           50      0       0      25        0.0%
BITSFR24             0      0       0      25        0.0%
SFR24                0      0       0      25        0.0%
BANK10              50      0       0      26        0.0%
BITSFR25             0      0       0      26        0.0%
SFR25                0      0       0      26        0.0%
BITBANK11           50      0       0      27        0.0%
BITSFR26             0      0       0      27        0.0%
SFR26                0      0       0      27        0.0%
BANK11              50      0       0      28        0.0%
BITSFR27             0      0       0      28        0.0%
SFR27                0      0       0      28        0.0%
BITBANK12           20      0       0      29        0.0%
BITSFR28             0      0       0      29        0.0%
SFR28                0      0       0      29        0.0%
BANK12              20      0       0      30        0.0%
BITSFR29             0      0       0      30        0.0%
SFR29                0      0       0      30        0.0%
BITSFR30             0      0       0      31        0.0%
SFR30                0      0       0      31        0.0%
DATA                 0      0      34      31        0.0%
BITSFR31             0      0       0      32        0.0%
SFR31                0      0       0      32        0.0%


Microchip Technology PIC Macro Assembler V1.38 build -256452561 
Symbol Table                                                                                   Thu Jan 05 19:34:10 2017

                             __CFG_CP$OFF 0000                               __CFG_LVP$ON 0000  
                                     l184 01B3                                       l964 017A  
                                     l992 015D                                       _GIE 005F  
                                     u240 01E3                                       u280 01A2  
                                     u425 007C                                       u290 01A3  
                         _timer1ReloadVal 0032                              __CFG_BORV$LO 0000  
                                     wreg 0009                                      l1120 011A  
                                    l1200 00CC                                      l1130 0136  
                                    l1134 0147                                      l1118 0116  
                                    l1162 0049                                      l1180 008A  
                                    l1156 002E                                      l1174 0084  
                                    l1192 00A2                                      l1194 00B9  
                 __end_of_PWM1_Initialize 01FE                                      _LATA 010C  
                                    _LATC 010E                    __size_of_ButtonPressed 000C  
                                    _PLLR 04D6                                      _WPUA 020C  
                                    _WPUC 020E                              __CFG_WRT$OFF 0000  
                                    _main 0028                                      fsr0h 0005  
                                    fsr1h 0007                                      fsr0l 0004  
                                    indf0 0000                                      indf1 0001  
                                    fsr1l 0006                                      btemp 007E  
                           __CFG_BOREN$ON 0000                                      ltemp 007E  
                                    start 0012                                      ttemp 007E  
                                    wtemp 007E                ??_TMR1_SetInterruptHandler 0072  
                           __CFG_MCLRE$ON 0000                             __CFG_PLLEN$ON 0000  
          __size_of_OSCILLATOR_Initialize 0007             __end_of_OSCILLATOR_Initialize 01B6  
                                   ?_main 0070                              ?_initSysTick 0070  
                           __CFG_WDTE$OFF 0000                           _TMR1_StartTimer 017A  
                              _GetSysTick 00D4                                     _T1CON 0018  
                                   i1l160 0010                                     _TMR1H 0017  
                                   _TMR1L 0016                                     _TRISA 008C  
                                   _TRISC 008E                          __end_of_TMR1_ISR 0207  
                             ?_PWM1_Start 0070                        __size_of_PWM1_Stop 0003  
                          _WDT_Initialize 01FE                   __end_of_TMR1_Initialize 0174  
                                   pclath 000A                                     ltemp0 007E  
                                   ltemp1 0082                                     ltemp2 0086  
                                   ltemp3 0080                     __end_of_debounceInput 014D  
                                   ttemp0 007E                                     ttemp1 0081  
                                   ttemp2 0084                                     ttemp3 0087  
                                   ttemp4 007F                                     status 0003  
                                   wtemp0 007E                                     wtemp1 0080  
                                   wtemp2 0082                                     wtemp3 0084  
                                   wtemp4 0086                                     wtemp5 0088  
                                   wtemp6 007F                             ?_initDebounce 0070  
                         __initialization 0014                              __end_of_main 00D4  
                           _ButtonPressed 00FA               ?_INTERRUPT_InterruptManager 0070  
                                  ??_main 007C                    __end_of_WDT_Initialize 0201  
                                  _ANSELA 018C                                    _ANSELC 018E  
                                  _T1GCON 0019                          ?_PWM1_Initialize 0070  
                                  i1l1058 0207                             _dwell_timeout 003E  
                                  _OSCCON 0099                            ??_initDebounce 0071  
                                  _WDTCON 0097                            __CFG_PWRTE$OFF 0000  
                     _systemTimerCallback 0211                    __size_of_init_hardware 000B  
    __end_of_TMR1_DefaultInterruptHandler 0220     __size_of_TMR1_DefaultInterruptHandler 0001  
            _TMR1_DefaultInterruptHandler 021F                   __end_of_TMR1_StartTimer 017C  
                       __end_of_PWM1_Stop 0150                            ?_ButtonPressed 0070  
                          __CFG_STVREN$ON 0000                       __size_of_PWM1_Start 0002  
                          _SysTick_Ticked 007C                               ?_GetSysTick 0070  
                    ?_systemTimerCallback 0070                           ?_WDT_Initialize 0070  
TMR1_SetInterruptHandler@InterruptHandler 0070                     __end_of_TMR1_CallBack 0211  
                        ?_TMR1_Initialize 0070                         _SYSTEM_Initialize 0189  
                 __end_of__initialization 0025                        ?_SYSTEM_Initialize 0070  
                          __pcstackCOMMON 0070                              __pidataBANK0 0000  
                     ??_SYSTEM_Initialize 0072                                 ?_TMR1_ISR 0070  
           ?_TMR1_DefaultInterruptHandler 0070                            _OPTION_REGbits 0095  
                   ??_systemTimerCallback 0070                      __size_of_initSysTick 000B  
                           _init_hardware 017E                 __end_of_SYSTEM_Initialize 0192  
                              __pbssBANK0 0020                       __size_of_GetSysTick 0009  
                   debounceInput@rawInput 0070                           ??_ButtonPressed 0070  
                              __pmaintext 0028                          ?_TMR1_StartTimer 0070  
                              ??_TMR1_ISR 0070                           __CFG_PPS1WAY$ON 0000  
                              __pintentry 0004                   __size_of_TMR1_StopTimer 0002  
                    __end_of_initDebounce 01AF                            ?_init_hardware 0070  
                          _dwell_timer_ms 0024                                   _PWM1DCH 0D94  
                            ??_PWM1_Start 0070                                   _PWM1DCL 0D93  
                                 _OSCTUNE 0098                                   _PWM1CON 0D9B  
                                 _PWM1OFH 0D98                                   _PWM1OFL 0D97  
                                 _PWM1PHH 0D92                                   _PWM1PHL 0D91  
                                 _PWM1PRH 0D96                                   _PWM1PRL 0D95  
                                 _PPSLOCK 0E0F                                   _SysTick 0020  
                      __end_of_PWM1_Start 0152                                   __ptext1 00DD  
                                 __ptext2 00D4                                   __ptext3 017E  
                                 __ptext4 0192                                   __ptext5 0189  
                                 __ptext6 01FE                                   __ptext7 01E5  
                                 __ptext8 01B6                                   __ptext9 01AF  
          ??_TMR1_DefaultInterruptHandler 0070                                 _T1CONbits 0018  
                   _OSCILLATOR_Initialize 01AF         __size_of_TMR1_SetInterruptHandler 0006  
                                 _task_1s 002C                  ??_PIN_MANAGER_Initialize 0070  
               ?_TMR1_SetInterruptHandler 0070                __size_of_SYSTEM_Initialize 0009  
                                 clrloop0 021A                      end_of_initialization 0025  
                        ButtonPressed@pin 0070                          __CFG_CLKOUTEN$ON 0000  
                              _timePassed 00DD                                 _PWM1LDCON 0D9F  
                               _PWM1OFCON 0DA0                          ??_WDT_Initialize 0070  
                               _PWM1_Stop 014D                                 _PORTCbits 000E  
                         ??_init_hardware 0072                              ??_GetSysTick 0074  
                  __size_of_debounceInput 0047                          __CFG_FOSC$INTOSC 0000  
                         initDebounce@pin 0071                        __end_of_GetSysTick 00DD  
                __size_of_PWM1_Initialize 0019                     __size_of_initDebounce 001D  
                         _is_unit_running 007D                         __size_of_TMR1_ISR 0006  
                              ?_PWM1_Stop 0070                            _TMR1_StopTimer 017C  
                  ?_OSCILLATOR_Initialize 0070                       start_initialization 0014  
         __size_of_PIN_MANAGER_Initialize 002F                          debounceInput@pin 0071  
                           _debounceInput 0106                              _initDebounce 0192  
                        __CFG_LPBOREN$OFF 0000                  __size_of_TMR1_Initialize 0017  
                             ?_timePassed 0074                    __end_of_TMR1_StopTimer 017E  
                             __pdataBANK0 003E               __end_of_systemTimerCallback 0219  
                  __size_of_TMR1_CallBack 000A                             ??_initSysTick 0072  
                             __pbssCOMMON 007C                                 ___latbits 0002  
                           __pcstackBANK0 0042                            ?_debounceInput 0070  
                  _PIN_MANAGER_Initialize 01B6          __end_of_TMR1_SetInterruptHandler 017A  
                   __end_of_ButtonPressed 0106                           ?_TMR1_StopTimer 0070  
                       ??_PWM1_Initialize 0070              ??_INTERRUPT_InterruptManager 0070  
                             ??_PWM1_Stop 0070                                 _btn_start 0034  
                __size_of_TMR1_StartTimer 0002                       __end_of_initSysTick 015D  
                     __size_of_timePassed 001D                             _TMR1_CallBack 0207  
                               _task_10mS 0028                                  _LATAbits 010C  
                               clear_ram0 0219                                  _PIE1bits 0091  
     __size_of_INTERRUPT_InterruptManager 000E                                  _PIR1bits 0011  
                                _PWM1INTE 0D9C                                  _PWM1INTF 0D9D  
                                _PWM1TMRH 0D9A                                  _PWM1TMRL 0D99  
                                _TMR1_ISR 0201                         ??_TMR1_Initialize 0072  
                      timePassed@timeOrig 0074                             timePassed@now 0042  
                         ??_debounceInput 0071                            ?_TMR1_CallBack 0070  
                 ??_OSCILLATOR_Initialize 0070                  _TMR1_SetInterruptHandler 0174  
                             _initSysTick 0152                     _TMR1_InterruptHandler 0030  
                   __end_of_init_hardware 0189                                  __ptext10 014D  
                                __ptext11 0152                                  __ptext20 0201  
                                __ptext12 017C                                  __ptext21 0207  
                                __ptext13 015D                                  __ptext22 021F  
                                __ptext14 017A                                  __ptext23 0211  
                                __ptext15 0174                                  __ptext16 0106  
                                __ptext17 0150                                  __ptext18 00FA  
                       ??_TMR1_StartTimer 0070                                  _btn_stop 0039  
                           __size_of_main 00AC                                _RC0PPSbits 0EA0  
                            ??_timePassed 0078                                  int$flags 007E  
      __end_of_INTERRUPT_InterruptManager 0012                _INTERRUPT_InterruptManager 0004  
             PIN_MANAGER_Initialize@state 0070                                _INTCONbits 000B  
                             _PWM1CONbits 0D9B                           ??_TMR1_CallBack 0070  
                 __size_of_WDT_Initialize 0003                        __end_of_timePassed 00FA  
                                intlevel1 0000                   ?_PIN_MANAGER_Initialize 0070  
                             _PPSLOCKbits 0E0F                           _PWM1_Initialize 01E5  
                        ??_TMR1_StopTimer 0070                                _PWM1CLKCON 0D9E  
                 initDebounce@initalState 0070              __size_of_systemTimerCallback 0008  
                              _PWM1_Start 0150            __end_of_PIN_MANAGER_Initialize 01E5  
                         _TMR1_Initialize 015D  
