:040000008031122811
:100008007E1480310B1F10282100111C102820009D
:10001800111C1028823101227E1009008031142819
:100028002030BE00BF30BF000230C0002030C10108
:10003800FC01FD018400003085001E308231192248
:1000480080317E10200028287E2180315221803185
:100058000B178B177C0803192E28FC012B08F700B7
:100068002A08F6002908F5002808F400DD20803168
:100078007708031D49287608031D49287508031DBC
:1000880049280A307402031CA228D420803173083E
:10009800AB007208AA007108A9007008A800003017
:1000A8008E180130F00034300621803100300E19EE
:1000B8000130F0003930062180317D0803198A2883
:1000C8002708F7002608F6002508F5002408F4009C
:1000D800DD20803141087702031D7C284008760224
:1000E800031D7C283F087502031D7C283E08740206
:1000F800031884283930FA208031003A0319A228DD
:100108004D21803122000C11FD01A2283430FA2043
:100118008031003A0319A228D42080317308A7003F
:100128007208A6007108A5007008A40022000C152A
:10013800FD01FD0A4D2180315021803120002F081A
:10014800F7002E08F6002D08F5002C08F400DD2035
:1001580080317708031DB9287608031DB928E830CF
:1001680074020330753B031C2E28D4208031730899
:10017800AF007208AE007108AD007008AC008E1DAB
:10018800CC280230C101C000BF30BF002030D228C7
:100198000930C101C0002730BF00C030BE002E2882
:1001A8002308F3002208F2002108F1002008F000DB
:1001B8000800D4207308C5007208C4007108C30081
:1001C8007008C20074084202F8007508433BF90041
:1001D8007608443BFA007708453BFB00F7007A08AD
:1001E800F6007908F5007808F4000800F000043EED
:1001F80086008701700A840085010008010603193A
:1002080001340034F100023E86008701710A84003F
:1002180085010008810070080319162971088600F5
:10022800810A1A29710886008701810371088600EE
:100238000B308701010271088600031C2A290A3045
:100248008100710A86008101810A362905308701FB
:100258000102031836297108860005308100710AE9
:1002680086008101710A860087017108023E8400B8
:10027800850100080106031947297108033E860015
:100288008101810A08007108033E86008701810107
:1002980008003B009B1308009B1708005D21803174
:1002A8007C2180311130F0000230F100742180315E
:1002B8007A293030200098009901FC3097001830D6
:1002C80096001708B300B2011608B20411102100F5
:1002D80011141F30F0000230F100742180317A29A6
:1002E80071082000B1007008B00008001814080058
:1002F80018100800892180314D2180313430F001F7
:10030800922180313930F0019229B6218031AF2114
:100318008031FE218031E52180315D29F100033EE5
:100328008600870181017108860005308100710A05
:1003380086007008031DA2290130A329003081001E
:100348007108023E8600870181017108043E86001B
:1003580070088100080070302100990098011A1B6C
:100368000800B32922008C0106308E003B302100A2
:100378008C001E308E0023008E0113308C003B3021
:1003880024008C008E012100951300308B1B013056
:10039800F0008B1355303C008F00AA308F000F10EF
:1003A8003D002008F0390338A00055303C008F008C
:1003B800AA308F000F14701CE3298B1708008B13C9
:1003C80008003B009C019D0170309E009F01A00128
:1003D800920191013C3094004830930078309600A7
:1003E800903095009801013097009A01990180306A
:1003F8009B0008001630970008001110330897007A
:1004080032089600072A3008310403190800310819
:100418008A0030080A00823108000130FC00A00779
:100428000030A13DA23DA33D0800640080010131D8
:08043800890B1A2A00340800A8
:020000040001F9
:04000E00E4F7FFFF15
:00000001FF
